{
  "contractName": "AETH",
  "abi": [
    {
      "anonymous": false,
      "inputs": [
        {
          "indexed": true,
          "internalType": "address",
          "name": "owner",
          "type": "address"
        },
        {
          "indexed": true,
          "internalType": "address",
          "name": "spender",
          "type": "address"
        },
        {
          "indexed": false,
          "internalType": "uint256",
          "name": "value",
          "type": "uint256"
        }
      ],
      "name": "Approval",
      "type": "event"
    },
    {
      "anonymous": false,
      "inputs": [
        {
          "indexed": false,
          "internalType": "bool",
          "name": "_claimable",
          "type": "bool"
        }
      ],
      "name": "ClaimableToggle",
      "type": "event"
    },
    {
      "anonymous": false,
      "inputs": [
        {
          "indexed": false,
          "internalType": "address payable",
          "name": "user",
          "type": "address"
        },
        {
          "indexed": false,
          "internalType": "uint256",
          "name": "amount",
          "type": "uint256"
        }
      ],
      "name": "Claimed",
      "type": "event"
    },
    {
      "anonymous": false,
      "inputs": [
        {
          "indexed": true,
          "internalType": "address",
          "name": "account",
          "type": "address"
        },
        {
          "indexed": false,
          "internalType": "uint256",
          "name": "value",
          "type": "uint256"
        }
      ],
      "name": "Freeze",
      "type": "event"
    },
    {
      "anonymous": false,
      "inputs": [
        {
          "indexed": true,
          "internalType": "address",
          "name": "previousOwner",
          "type": "address"
        },
        {
          "indexed": true,
          "internalType": "address",
          "name": "newOwner",
          "type": "address"
        }
      ],
      "name": "OwnershipTransferred",
      "type": "event"
    },
    {
      "anonymous": false,
      "inputs": [
        {
          "indexed": true,
          "internalType": "address",
          "name": "from",
          "type": "address"
        },
        {
          "indexed": true,
          "internalType": "address",
          "name": "to",
          "type": "address"
        },
        {
          "indexed": false,
          "internalType": "uint256",
          "name": "value",
          "type": "uint256"
        }
      ],
      "name": "Transfer",
      "type": "event"
    },
    {
      "anonymous": false,
      "inputs": [
        {
          "indexed": true,
          "internalType": "address",
          "name": "account",
          "type": "address"
        },
        {
          "indexed": false,
          "internalType": "uint256",
          "name": "value",
          "type": "uint256"
        }
      ],
      "name": "Unfreeze",
      "type": "event"
    },
    {
      "inputs": [],
      "name": "_claimable",
      "outputs": [
        {
          "internalType": "bool",
          "name": "",
          "type": "bool"
        }
      ],
      "stateMutability": "view",
      "type": "function",
      "constant": true
    },
    {
      "inputs": [],
      "name": "_microPoolContract",
      "outputs": [
        {
          "internalType": "address",
          "name": "",
          "type": "address"
        }
      ],
      "stateMutability": "view",
      "type": "function",
      "constant": true
    },
    {
      "inputs": [
        {
          "internalType": "address",
          "name": "owner",
          "type": "address"
        },
        {
          "internalType": "address",
          "name": "spender",
          "type": "address"
        }
      ],
      "name": "allowance",
      "outputs": [
        {
          "internalType": "uint256",
          "name": "",
          "type": "uint256"
        }
      ],
      "stateMutability": "view",
      "type": "function",
      "constant": true
    },
    {
      "inputs": [
        {
          "internalType": "address",
          "name": "spender",
          "type": "address"
        },
        {
          "internalType": "uint256",
          "name": "amount",
          "type": "uint256"
        }
      ],
      "name": "approve",
      "outputs": [
        {
          "internalType": "bool",
          "name": "",
          "type": "bool"
        }
      ],
      "stateMutability": "nonpayable",
      "type": "function"
    },
    {
      "inputs": [
        {
          "internalType": "address",
          "name": "account",
          "type": "address"
        }
      ],
      "name": "balanceOf",
      "outputs": [
        {
          "internalType": "uint256",
          "name": "",
          "type": "uint256"
        }
      ],
      "stateMutability": "view",
      "type": "function",
      "constant": true
    },
    {
      "inputs": [],
      "name": "decimals",
      "outputs": [
        {
          "internalType": "uint8",
          "name": "",
          "type": "uint8"
        }
      ],
      "stateMutability": "view",
      "type": "function",
      "constant": true
    },
    {
      "inputs": [
        {
          "internalType": "address",
          "name": "spender",
          "type": "address"
        },
        {
          "internalType": "uint256",
          "name": "subtractedValue",
          "type": "uint256"
        }
      ],
      "name": "decreaseAllowance",
      "outputs": [
        {
          "internalType": "bool",
          "name": "",
          "type": "bool"
        }
      ],
      "stateMutability": "nonpayable",
      "type": "function"
    },
    {
      "inputs": [
        {
          "internalType": "address",
          "name": "spender",
          "type": "address"
        },
        {
          "internalType": "uint256",
          "name": "addedValue",
          "type": "uint256"
        }
      ],
      "name": "increaseAllowance",
      "outputs": [
        {
          "internalType": "bool",
          "name": "",
          "type": "bool"
        }
      ],
      "stateMutability": "nonpayable",
      "type": "function"
    },
    {
      "inputs": [],
      "name": "name",
      "outputs": [
        {
          "internalType": "string",
          "name": "",
          "type": "string"
        }
      ],
      "stateMutability": "view",
      "type": "function",
      "constant": true
    },
    {
      "inputs": [],
      "name": "owner",
      "outputs": [
        {
          "internalType": "address",
          "name": "",
          "type": "address"
        }
      ],
      "stateMutability": "view",
      "type": "function",
      "constant": true
    },
    {
      "inputs": [],
      "name": "renounceOwnership",
      "outputs": [],
      "stateMutability": "nonpayable",
      "type": "function"
    },
    {
      "inputs": [],
      "name": "symbol",
      "outputs": [
        {
          "internalType": "string",
          "name": "",
          "type": "string"
        }
      ],
      "stateMutability": "view",
      "type": "function",
      "constant": true
    },
    {
      "inputs": [],
      "name": "totalSupply",
      "outputs": [
        {
          "internalType": "uint256",
          "name": "",
          "type": "uint256"
        }
      ],
      "stateMutability": "view",
      "type": "function",
      "constant": true
    },
    {
      "inputs": [
        {
          "internalType": "address",
          "name": "recipient",
          "type": "address"
        },
        {
          "internalType": "uint256",
          "name": "amount",
          "type": "uint256"
        }
      ],
      "name": "transfer",
      "outputs": [
        {
          "internalType": "bool",
          "name": "",
          "type": "bool"
        }
      ],
      "stateMutability": "nonpayable",
      "type": "function"
    },
    {
      "inputs": [
        {
          "internalType": "address",
          "name": "sender",
          "type": "address"
        },
        {
          "internalType": "address",
          "name": "recipient",
          "type": "address"
        },
        {
          "internalType": "uint256",
          "name": "amount",
          "type": "uint256"
        }
      ],
      "name": "transferFrom",
      "outputs": [
        {
          "internalType": "bool",
          "name": "",
          "type": "bool"
        }
      ],
      "stateMutability": "nonpayable",
      "type": "function"
    },
    {
      "inputs": [
        {
          "internalType": "address",
          "name": "newOwner",
          "type": "address"
        }
      ],
      "name": "transferOwnership",
      "outputs": [],
      "stateMutability": "nonpayable",
      "type": "function"
    },
    {
      "stateMutability": "payable",
      "type": "receive",
      "payable": true
    },
    {
      "inputs": [
        {
          "internalType": "string",
          "name": "name",
          "type": "string"
        },
        {
          "internalType": "string",
          "name": "symbol",
          "type": "string"
        }
      ],
      "name": "initialize",
      "outputs": [],
      "stateMutability": "nonpayable",
      "type": "function"
    },
    {
      "inputs": [
        {
          "internalType": "address",
          "name": "microPoolContract",
          "type": "address"
        }
      ],
      "name": "updateMicroPoolContract",
      "outputs": [],
      "stateMutability": "nonpayable",
      "type": "function"
    },
    {
      "inputs": [
        {
          "internalType": "address",
          "name": "account",
          "type": "address"
        }
      ],
      "name": "availableBalanceOf",
      "outputs": [
        {
          "internalType": "uint256",
          "name": "",
          "type": "uint256"
        }
      ],
      "stateMutability": "view",
      "type": "function",
      "constant": true
    },
    {
      "inputs": [
        {
          "internalType": "address",
          "name": "account",
          "type": "address"
        }
      ],
      "name": "frozenBalanceOf",
      "outputs": [
        {
          "internalType": "uint256",
          "name": "",
          "type": "uint256"
        }
      ],
      "stateMutability": "view",
      "type": "function",
      "constant": true
    },
    {
      "inputs": [
        {
          "internalType": "address",
          "name": "account",
          "type": "address"
        },
        {
          "internalType": "uint256",
          "name": "amount",
          "type": "uint256"
        }
      ],
      "name": "mint",
      "outputs": [],
      "stateMutability": "nonpayable",
      "type": "function"
    },
    {
      "inputs": [],
      "name": "mintPool",
      "outputs": [],
      "stateMutability": "payable",
      "type": "function",
      "payable": true
    },
    {
      "inputs": [
        {
          "internalType": "address",
          "name": "account",
          "type": "address"
        },
        {
          "internalType": "uint256",
          "name": "amount",
          "type": "uint256"
        }
      ],
      "name": "mintFrozen",
      "outputs": [],
      "stateMutability": "nonpayable",
      "type": "function"
    },
    {
      "inputs": [],
      "name": "unfreeze",
      "outputs": [],
      "stateMutability": "nonpayable",
      "type": "function"
    },
    {
      "inputs": [],
      "name": "swap",
      "outputs": [],
      "stateMutability": "payable",
      "type": "function",
      "payable": true
    },
    {
      "inputs": [
        {
          "internalType": "uint256",
          "name": "amount",
          "type": "uint256"
        }
      ],
      "name": "burn",
      "outputs": [],
      "stateMutability": "nonpayable",
      "type": "function"
    },
    {
      "inputs": [],
      "name": "toggleClaimable",
      "outputs": [],
      "stateMutability": "nonpayable",
      "type": "function"
    }
  ],
  "bytecode": "0x608060405234801561001057600080fd5b50613242806100206000396000f3fe6080604052600436106101a05760003560e01c80636a28f000116100ec578063a9059cbb1161008a578063bf6edbd911610064578063bf6edbd9146109eb578063dd62ed3e14610a46578063f2fde38b14610acb578063fc1c505214610b1c576101b1565b8063a9059cbb146108e4578063b91c7a8f14610957578063be91de5314610986576101b1565b80638119c065116100c65780638119c065146107805780638da5cb5b1461078a57806395d89b41146107e1578063a457c2d714610871576101b1565b80636a28f000146106ed57806370a0823114610704578063715018a614610769576101b1565b8063313ce5671161015957806340c10f191161013357806340c10f19146104a157806342966c68146104fc5780634cd88b76146105375780635830fe3214610696576101b1565b8063313ce567146103e6578063395093511461041757806340897bbe1461048a576101b1565b806306fdde03146101b6578063095ea7b31461024657806318160ddd146102b95780631e832ae8146102e457806323b872dd146102ee57806325d998bb14610381576101b1565b366101b1576101af3334610b6d565b005b600080fd5b3480156101c257600080fd5b506101cb610d36565b6040518080602001828103825283818151815260200191508051906020019080838360005b8381101561020b5780820151818401526020810190506101f0565b50505050905090810190601f1680156102385780820380516001836020036101000a031916815260200191505b509250505060405180910390f35b34801561025257600080fd5b5061029f6004803603604081101561026957600080fd5b81019080803573ffffffffffffffffffffffffffffffffffffffff16906020019092919080359060200190929190505050610dd8565b604051808215151515815260200191505060405180910390f35b3480156102c557600080fd5b506102ce610df6565b6040518082815260200191505060405180910390f35b6102ec610e00565b005b3480156102fa57600080fd5b506103676004803603606081101561031157600080fd5b81019080803573ffffffffffffffffffffffffffffffffffffffff169060200190929190803573ffffffffffffffffffffffffffffffffffffffff16906020019092919080359060200190929190505050610e0c565b604051808215151515815260200191505060405180910390f35b34801561038d57600080fd5b506103d0600480360360208110156103a457600080fd5b81019080803573ffffffffffffffffffffffffffffffffffffffff169060200190929190505050610ee5565b6040518082815260200191505060405180910390f35b3480156103f257600080fd5b506103fb610f11565b604051808260ff1660ff16815260200191505060405180910390f35b34801561042357600080fd5b506104706004803603604081101561043a57600080fd5b81019080803573ffffffffffffffffffffffffffffffffffffffff16906020019092919080359060200190929190505050610f28565b604051808215151515815260200191505060405180910390f35b34801561049657600080fd5b5061049f610fdb565b005b3480156104ad57600080fd5b506104fa600480360360408110156104c457600080fd5b81019080803573ffffffffffffffffffffffffffffffffffffffff1690602001909291908035906020019092919050505061111b565b005b34801561050857600080fd5b506105356004803603602081101561051f57600080fd5b81019080803590602001909291905050506111d6565b005b34801561054357600080fd5b506106946004803603604081101561055a57600080fd5b810190808035906020019064010000000081111561057757600080fd5b82018360208201111561058957600080fd5b803590602001918460018302840111640100000000831117156105ab57600080fd5b91908080601f016020809104026020016040519081016040528093929190818152602001838380828437600081840152601f19601f8201169050808301925050505050505091929192908035906020019064010000000081111561060e57600080fd5b82018360208201111561062057600080fd5b8035906020019184600183028401116401000000008311171561064257600080fd5b91908080601f016020809104026020016040519081016040528093929190818152602001838380828437600081840152601f19601f8201169050808301925050505050505091929192905050506111e3565b005b3480156106a257600080fd5b506106ab611319565b604051808273ffffffffffffffffffffffffffffffffffffffff1673ffffffffffffffffffffffffffffffffffffffff16815260200191505060405180910390f35b3480156106f957600080fd5b5061070261133f565b005b34801561071057600080fd5b506107536004803603602081101561072757600080fd5b81019080803573ffffffffffffffffffffffffffffffffffffffff1690602001909291905050506115a6565b6040518082815260200191505060405180910390f35b34801561077557600080fd5b5061077e6115ef565b005b61078861177a565b005b34801561079657600080fd5b5061079f61193b565b604051808273ffffffffffffffffffffffffffffffffffffffff1673ffffffffffffffffffffffffffffffffffffffff16815260200191505060405180910390f35b3480156107ed57600080fd5b506107f6611965565b6040518080602001828103825283818151815260200191508051906020019080838360005b8381101561083657808201518184015260208101905061081b565b50505050905090810190601f1680156108635780820380516001836020036101000a031916815260200191505b509250505060405180910390f35b34801561087d57600080fd5b506108ca6004803603604081101561089457600080fd5b81019080803573ffffffffffffffffffffffffffffffffffffffff16906020019092919080359060200190929190505050611a07565b604051808215151515815260200191505060405180910390f35b3480156108f057600080fd5b5061093d6004803603604081101561090757600080fd5b81019080803573ffffffffffffffffffffffffffffffffffffffff16906020019092919080359060200190929190505050611ad4565b604051808215151515815260200191505060405180910390f35b34801561096357600080fd5b5061096c611af2565b604051808215151515815260200191505060405180910390f35b34801561099257600080fd5b506109d5600480360360208110156109a957600080fd5b81019080803573ffffffffffffffffffffffffffffffffffffffff169060200190929190505050611b05565b6040518082815260200191505060405180910390f35b3480156109f757600080fd5b50610a4460048036036040811015610a0e57600080fd5b81019080803573ffffffffffffffffffffffffffffffffffffffff16906020019092919080359060200190929190505050611b4e565b005b348015610a5257600080fd5b50610ab560048036036040811015610a6957600080fd5b81019080803573ffffffffffffffffffffffffffffffffffffffff169060200190929190803573ffffffffffffffffffffffffffffffffffffffff169060200190929190505050611cec565b6040518082815260200191505060405180910390f35b348015610ad757600080fd5b50610b1a60048036036020811015610aee57600080fd5b81019080803573ffffffffffffffffffffffffffffffffffffffff169060200190929190505050611d73565b005b348015610b2857600080fd5b50610b6b60048036036020811015610b3f57600080fd5b81019080803573ffffffffffffffffffffffffffffffffffffffff169060200190929190505050611f83565b005b600073ffffffffffffffffffffffffffffffffffffffff168273ffffffffffffffffffffffffffffffffffffffff161415610c10576040517f08c379a000000000000000000000000000000000000000000000000000000000815260040180806020018281038252601f8152602001807f45524332303a206d696e7420746f20746865207a65726f20616464726573730081525060200191505060405180910390fd5b610c1c60008383612091565b610c318160995461212c90919063ffffffff16565b609981905550610c8981609760008573ffffffffffffffffffffffffffffffffffffffff1673ffffffffffffffffffffffffffffffffffffffff1681526020019081526020016000205461212c90919063ffffffff16565b609760008473ffffffffffffffffffffffffffffffffffffffff1673ffffffffffffffffffffffffffffffffffffffff168152602001908152602001600020819055508173ffffffffffffffffffffffffffffffffffffffff16600073ffffffffffffffffffffffffffffffffffffffff167fddf252ad1be2c89b69c2b068fc378daa952ba7f163c4a11628f55a4df523b3ef836040518082815260200191505060405180910390a35050565b6060609a8054600181600116156101000203166002900480601f016020809104026020016040519081016040528092919081815260200182805460018160011615610100020316600290048015610dce5780601f10610da357610100808354040283529160200191610dce565b820191906000526020600020905b815481529060010190602001808311610db157829003601f168201915b5050505050905090565b6000610dec610de56121b4565b84846121bc565b6001905092915050565b6000609954905090565b610e0a3334610b6d565b565b6000610e198484846123b3565b610eda84610e256121b4565b610ed5856040518060600160405280602881526020016130f960289139609860008b73ffffffffffffffffffffffffffffffffffffffff1673ffffffffffffffffffffffffffffffffffffffff1681526020019081526020016000206000610e8b6121b4565b73ffffffffffffffffffffffffffffffffffffffff1673ffffffffffffffffffffffffffffffffffffffff168152602001908152602001600020546126789092919063ffffffff16565b6121bc565b600190509392505050565b6000610f0a610ef383611b05565b610efc846115a6565b61273890919063ffffffff16565b9050919050565b6000609c60009054906101000a900460ff16905090565b6000610fd1610f356121b4565b84610fcc8560986000610f466121b4565b73ffffffffffffffffffffffffffffffffffffffff1673ffffffffffffffffffffffffffffffffffffffff16815260200190815260200160002060008973ffffffffffffffffffffffffffffffffffffffff1673ffffffffffffffffffffffffffffffffffffffff1681526020019081526020016000205461212c90919063ffffffff16565b6121bc565b6001905092915050565b610fe36121b4565b73ffffffffffffffffffffffffffffffffffffffff16606560009054906101000a900473ffffffffffffffffffffffffffffffffffffffff1673ffffffffffffffffffffffffffffffffffffffff16146110a5576040517f08c379a00000000000000000000000000000000000000000000000000000000081526004018080602001828103825260208152602001807f4f776e61626c653a2063616c6c6572206973206e6f7420746865206f776e657281525060200191505060405180910390fd5b60d060009054906101000a900460ff161560d060006101000a81548160ff0219169083151502179055507f5ca75a4e4829e0cbe9685d85bc0ba660a9d60e2a1b6109fd29e4a71636b9af6460d060009054906101000a900460ff16604051808215151515815260200191505060405180910390a1565b6111236121b4565b73ffffffffffffffffffffffffffffffffffffffff1660d060019054906101000a900473ffffffffffffffffffffffffffffffffffffffff1673ffffffffffffffffffffffffffffffffffffffff16146111c8576040517f08c379a000000000000000000000000000000000000000000000000000000000815260040180806020018281038252602d8152602001806130cc602d913960400191505060405180910390fd5b6111d28282610b6d565b5050565b6111e03382612782565b50565b600060019054906101000a900460ff16806112025750611201612948565b5b8061121957506000809054906101000a900460ff16155b61126e576040517f08c379a000000000000000000000000000000000000000000000000000000000815260040180806020018281038252602e815260200180613121602e913960400191505060405180910390fd5b60008060019054906101000a900460ff1615905080156112be576001600060016101000a81548160ff02191690831515021790555060016000806101000a81548160ff0219169083151502179055505b6112c661295f565b6112d08383612a6e565b600060ca81905550600060d060006101000a81548160ff02191690831515021790555080156113145760008060016101000a81548160ff0219169083151502179055505b505050565b60d060019054906101000a900473ffffffffffffffffffffffffffffffffffffffff1681565b60d060009054906101000a900460ff166113c1576040517f08c379a000000000000000000000000000000000000000000000000000000000815260040180806020018281038252600d8152602001807f4e6f7420636c61696d61626c650000000000000000000000000000000000000081525060200191505060405180910390fd5b600060cf60003373ffffffffffffffffffffffffffffffffffffffff1673ffffffffffffffffffffffffffffffffffffffff1681526020019081526020016000205490506000811161147b576040517f08c379a00000000000000000000000000000000000000000000000000000000081526004018080602001828103825260138152602001807f46726f7a656e2042616c616e6365207a65726f0000000000000000000000000081525060200191505060405180910390fd5b600060cf60003373ffffffffffffffffffffffffffffffffffffffff1673ffffffffffffffffffffffffffffffffffffffff168152602001908152602001600020819055506115128160ce60003373ffffffffffffffffffffffffffffffffffffffff1673ffffffffffffffffffffffffffffffffffffffff1681526020019081526020016000205461212c90919063ffffffff16565b60ce60003373ffffffffffffffffffffffffffffffffffffffff1673ffffffffffffffffffffffffffffffffffffffff168152602001908152602001600020819055503373ffffffffffffffffffffffffffffffffffffffff167f2cfce4af01bcb9d6cf6c84ee1b7c491100b8695368264146a94d71e10a63083f826040518082815260200191505060405180910390a250565b6000609760008373ffffffffffffffffffffffffffffffffffffffff1673ffffffffffffffffffffffffffffffffffffffff168152602001908152602001600020549050919050565b6115f76121b4565b73ffffffffffffffffffffffffffffffffffffffff16606560009054906101000a900473ffffffffffffffffffffffffffffffffffffffff1673ffffffffffffffffffffffffffffffffffffffff16146116b9576040517f08c379a00000000000000000000000000000000000000000000000000000000081526004018080602001828103825260208152602001807f4f776e61626c653a2063616c6c6572206973206e6f7420746865206f776e657281525060200191505060405180910390fd5b600073ffffffffffffffffffffffffffffffffffffffff16606560009054906101000a900473ffffffffffffffffffffffffffffffffffffffff1673ffffffffffffffffffffffffffffffffffffffff167f8be0079c531659141344cd1fd0a4f28419497f9722a3daafe3b4186f6b6457e060405160405180910390a36000606560006101000a81548173ffffffffffffffffffffffffffffffffffffffff021916908373ffffffffffffffffffffffffffffffffffffffff160217905550565b60d060009054906101000a900460ff166117fc576040517f08c379a000000000000000000000000000000000000000000000000000000000815260040180806020018281038252600d8152602001807f4e6f7420636c61696d61626c650000000000000000000000000000000000000081525060200191505060405180910390fd5b600061180733610ee5565b1161187a576040517f08c379a000000000000000000000000000000000000000000000000000000000815260040180806020018281038252601e8152602001807f417661696c61626c6520616574682062616c616e6365206973207a65726f000081525060200191505060405180910390fd5b600061188533610ee5565b90506118913382612782565b3373ffffffffffffffffffffffffffffffffffffffff166108fc829081150290604051600060405180830381858888f19350505050611938576040517f08c379a00000000000000000000000000000000000000000000000000000000081526004018080602001828103825260128152602001807f496e73756666696369656e742066756e6473000000000000000000000000000081525060200191505060405180910390fd5b50565b6000606560009054906101000a900473ffffffffffffffffffffffffffffffffffffffff16905090565b6060609b8054600181600116156101000203166002900480601f0160208091040260200160405190810160405280929190818152602001828054600181600116156101000203166002900480156119fd5780601f106119d2576101008083540402835291602001916119fd565b820191906000526020600020905b8154815290600101906020018083116119e057829003601f168201915b5050505050905090565b6000611aca611a146121b4565b84611ac5856040518060600160405280602581526020016131e86025913960986000611a3e6121b4565b73ffffffffffffffffffffffffffffffffffffffff1673ffffffffffffffffffffffffffffffffffffffff16815260200190815260200160002060008a73ffffffffffffffffffffffffffffffffffffffff1673ffffffffffffffffffffffffffffffffffffffff168152602001908152602001600020546126789092919063ffffffff16565b6121bc565b6001905092915050565b6000611ae8611ae16121b4565b84846123b3565b6001905092915050565b60d060009054906101000a900460ff1681565b600060cf60008373ffffffffffffffffffffffffffffffffffffffff1673ffffffffffffffffffffffffffffffffffffffff168152602001908152602001600020549050919050565b611b566121b4565b73ffffffffffffffffffffffffffffffffffffffff1660d060019054906101000a900473ffffffffffffffffffffffffffffffffffffffff1673ffffffffffffffffffffffffffffffffffffffff1614611bfb576040517f08c379a000000000000000000000000000000000000000000000000000000000815260040180806020018281038252602d8152602001806130cc602d913960400191505060405180910390fd5b611c4d8160cf60008573ffffffffffffffffffffffffffffffffffffffff1673ffffffffffffffffffffffffffffffffffffffff1681526020019081526020016000205461212c90919063ffffffff16565b60cf60008473ffffffffffffffffffffffffffffffffffffffff1673ffffffffffffffffffffffffffffffffffffffff16815260200190815260200160002081905550611c9a8282610b6d565b8173ffffffffffffffffffffffffffffffffffffffff167ff97a274face0b5517365ad396b1fdba6f68bd3135ef603e44272adba3af5a1e0826040518082815260200191505060405180910390a25050565b6000609860008473ffffffffffffffffffffffffffffffffffffffff1673ffffffffffffffffffffffffffffffffffffffff16815260200190815260200160002060008373ffffffffffffffffffffffffffffffffffffffff1673ffffffffffffffffffffffffffffffffffffffff16815260200190815260200160002054905092915050565b611d7b6121b4565b73ffffffffffffffffffffffffffffffffffffffff16606560009054906101000a900473ffffffffffffffffffffffffffffffffffffffff1673ffffffffffffffffffffffffffffffffffffffff1614611e3d576040517f08c379a00000000000000000000000000000000000000000000000000000000081526004018080602001828103825260208152602001807f4f776e61626c653a2063616c6c6572206973206e6f7420746865206f776e657281525060200191505060405180910390fd5b600073ffffffffffffffffffffffffffffffffffffffff168173ffffffffffffffffffffffffffffffffffffffff161415611ec3576040517f08c379a000000000000000000000000000000000000000000000000000000000815260040180806020018281038252602681526020018061305e6026913960400191505060405180910390fd5b8073ffffffffffffffffffffffffffffffffffffffff16606560009054906101000a900473ffffffffffffffffffffffffffffffffffffffff1673ffffffffffffffffffffffffffffffffffffffff167f8be0079c531659141344cd1fd0a4f28419497f9722a3daafe3b4186f6b6457e060405160405180910390a380606560006101000a81548173ffffffffffffffffffffffffffffffffffffffff021916908373ffffffffffffffffffffffffffffffffffffffff16021790555050565b611f8b6121b4565b73ffffffffffffffffffffffffffffffffffffffff16606560009054906101000a900473ffffffffffffffffffffffffffffffffffffffff1673ffffffffffffffffffffffffffffffffffffffff161461204d576040517f08c379a00000000000000000000000000000000000000000000000000000000081526004018080602001828103825260208152602001807f4f776e61626c653a2063616c6c6572206973206e6f7420746865206f776e657281525060200191505060405180910390fd5b8060d060016101000a81548173ffffffffffffffffffffffffffffffffffffffff021916908373ffffffffffffffffffffffffffffffffffffffff16021790555050565b600073ffffffffffffffffffffffffffffffffffffffff168373ffffffffffffffffffffffffffffffffffffffff161461212757806120cf84610ee5565b1015612126576040517f08c379a000000000000000000000000000000000000000000000000000000000815260040180806020018281038252602f8152602001806131b9602f913960400191505060405180910390fd5b5b505050565b6000808284019050838110156121aa576040517f08c379a000000000000000000000000000000000000000000000000000000000815260040180806020018281038252601b8152602001807f536166654d6174683a206164646974696f6e206f766572666c6f77000000000081525060200191505060405180910390fd5b8091505092915050565b600033905090565b600073ffffffffffffffffffffffffffffffffffffffff168373ffffffffffffffffffffffffffffffffffffffff161415612242576040517f08c379a00000000000000000000000000000000000000000000000000000000081526004018080602001828103825260248152602001806131956024913960400191505060405180910390fd5b600073ffffffffffffffffffffffffffffffffffffffff168273ffffffffffffffffffffffffffffffffffffffff1614156122c8576040517f08c379a00000000000000000000000000000000000000000000000000000000081526004018080602001828103825260228152602001806130846022913960400191505060405180910390fd5b80609860008573ffffffffffffffffffffffffffffffffffffffff1673ffffffffffffffffffffffffffffffffffffffff16815260200190815260200160002060008473ffffffffffffffffffffffffffffffffffffffff1673ffffffffffffffffffffffffffffffffffffffff168152602001908152602001600020819055508173ffffffffffffffffffffffffffffffffffffffff168373ffffffffffffffffffffffffffffffffffffffff167f8c5be1e5ebec7d5bd14f71427d1e84f3dd0314c0f7b2291e5b200ac8c7c3b925836040518082815260200191505060405180910390a3505050565b600073ffffffffffffffffffffffffffffffffffffffff168373ffffffffffffffffffffffffffffffffffffffff161415612439576040517f08c379a00000000000000000000000000000000000000000000000000000000081526004018080602001828103825260258152602001806131706025913960400191505060405180910390fd5b600073ffffffffffffffffffffffffffffffffffffffff168273ffffffffffffffffffffffffffffffffffffffff1614156124bf576040517f08c379a00000000000000000000000000000000000000000000000000000000081526004018080602001828103825260238152602001806130196023913960400191505060405180910390fd5b6124ca838383612091565b612536816040518060600160405280602681526020016130a660269139609760008773ffffffffffffffffffffffffffffffffffffffff1673ffffffffffffffffffffffffffffffffffffffff168152602001908152602001600020546126789092919063ffffffff16565b609760008573ffffffffffffffffffffffffffffffffffffffff1673ffffffffffffffffffffffffffffffffffffffff168152602001908152602001600020819055506125cb81609760008573ffffffffffffffffffffffffffffffffffffffff1673ffffffffffffffffffffffffffffffffffffffff1681526020019081526020016000205461212c90919063ffffffff16565b609760008473ffffffffffffffffffffffffffffffffffffffff1673ffffffffffffffffffffffffffffffffffffffff168152602001908152602001600020819055508173ffffffffffffffffffffffffffffffffffffffff168373ffffffffffffffffffffffffffffffffffffffff167fddf252ad1be2c89b69c2b068fc378daa952ba7f163c4a11628f55a4df523b3ef836040518082815260200191505060405180910390a3505050565b6000838311158290612725576040517f08c379a00000000000000000000000000000000000000000000000000000000081526004018080602001828103825283818151815260200191508051906020019080838360005b838110156126ea5780820151818401526020810190506126cf565b50505050905090810190601f1680156127175780820380516001836020036101000a031916815260200191505b509250505060405180910390fd5b5060008385039050809150509392505050565b600061277a83836040518060400160405280601e81526020017f536166654d6174683a207375627472616374696f6e206f766572666c6f770000815250612678565b905092915050565b600073ffffffffffffffffffffffffffffffffffffffff168273ffffffffffffffffffffffffffffffffffffffff161415612808576040517f08c379a000000000000000000000000000000000000000000000000000000000815260040180806020018281038252602181526020018061314f6021913960400191505060405180910390fd5b61281482600083612091565b6128808160405180606001604052806022815260200161303c60229139609760008673ffffffffffffffffffffffffffffffffffffffff1673ffffffffffffffffffffffffffffffffffffffff168152602001908152602001600020546126789092919063ffffffff16565b609760008473ffffffffffffffffffffffffffffffffffffffff1673ffffffffffffffffffffffffffffffffffffffff168152602001908152602001600020819055506128d88160995461273890919063ffffffff16565b609981905550600073ffffffffffffffffffffffffffffffffffffffff168273ffffffffffffffffffffffffffffffffffffffff167fddf252ad1be2c89b69c2b068fc378daa952ba7f163c4a11628f55a4df523b3ef836040518082815260200191505060405180910390a35050565b6000803090506000813b9050600081149250505090565b600060019054906101000a900460ff168061297e575061297d612948565b5b8061299557506000809054906101000a900460ff16155b6129ea576040517f08c379a000000000000000000000000000000000000000000000000000000000815260040180806020018281038252602e815260200180613121602e913960400191505060405180910390fd5b60008060019054906101000a900460ff161590508015612a3a576001600060016101000a81548160ff02191690831515021790555060016000806101000a81548160ff0219169083151502179055505b612a42612b81565b612a4a612c80565b8015612a6b5760008060016101000a81548160ff0219169083151502179055505b50565b600060019054906101000a900460ff1680612a8d5750612a8c612948565b5b80612aa457506000809054906101000a900460ff16155b612af9576040517f08c379a000000000000000000000000000000000000000000000000000000000815260040180806020018281038252602e815260200180613121602e913960400191505060405180910390fd5b60008060019054906101000a900460ff161590508015612b49576001600060016101000a81548160ff02191690831515021790555060016000806101000a81548160ff0219169083151502179055505b612b51612b81565b612b5b8383612e28565b8015612b7c5760008060016101000a81548160ff0219169083151502179055505b505050565b600060019054906101000a900460ff1680612ba05750612b9f612948565b5b80612bb757506000809054906101000a900460ff16155b612c0c576040517f08c379a000000000000000000000000000000000000000000000000000000000815260040180806020018281038252602e815260200180613121602e913960400191505060405180910390fd5b60008060019054906101000a900460ff161590508015612c5c576001600060016101000a81548160ff02191690831515021790555060016000806101000a81548160ff0219169083151502179055505b8015612c7d5760008060016101000a81548160ff0219169083151502179055505b50565b600060019054906101000a900460ff1680612c9f5750612c9e612948565b5b80612cb657506000809054906101000a900460ff16155b612d0b576040517f08c379a000000000000000000000000000000000000000000000000000000000815260040180806020018281038252602e815260200180613121602e913960400191505060405180910390fd5b60008060019054906101000a900460ff161590508015612d5b576001600060016101000a81548160ff02191690831515021790555060016000806101000a81548160ff0219169083151502179055505b6000612d656121b4565b905080606560006101000a81548173ffffffffffffffffffffffffffffffffffffffff021916908373ffffffffffffffffffffffffffffffffffffffff1602179055508073ffffffffffffffffffffffffffffffffffffffff16600073ffffffffffffffffffffffffffffffffffffffff167f8be0079c531659141344cd1fd0a4f28419497f9722a3daafe3b4186f6b6457e060405160405180910390a3508015612e255760008060016101000a81548160ff0219169083151502179055505b50565b600060019054906101000a900460ff1680612e475750612e46612948565b5b80612e5e57506000809054906101000a900460ff16155b612eb3576040517f08c379a000000000000000000000000000000000000000000000000000000000815260040180806020018281038252602e815260200180613121602e913960400191505060405180910390fd5b60008060019054906101000a900460ff161590508015612f03576001600060016101000a81548160ff02191690831515021790555060016000806101000a81548160ff0219169083151502179055505b82609a9080519060200190612f19929190612f73565b5081609b9080519060200190612f30929190612f73565b506012609c60006101000a81548160ff021916908360ff1602179055508015612f6e5760008060016101000a81548160ff0219169083151502179055505b505050565b828054600181600116156101000203166002900490600052602060002090601f016020900481019282601f10612fb457805160ff1916838001178555612fe2565b82800160010185558215612fe2579182015b82811115612fe1578251825591602001919060010190612fc6565b5b509050612fef9190612ff3565b5090565b61301591905b80821115613011576000816000905550600101612ff9565b5090565b9056fe45524332303a207472616e7366657220746f20746865207a65726f206164647265737345524332303a206275726e20616d6f756e7420657863656564732062616c616e63654f776e61626c653a206e6577206f776e657220697320746865207a65726f206164647265737345524332303a20617070726f766520746f20746865207a65726f206164647265737345524332303a207472616e7366657220616d6f756e7420657863656564732062616c616e63654f776e61626c653a2063616c6c6572206973206e6f7420746865206d6963726f706f6f6c20636f6e747261637445524332303a207472616e7366657220616d6f756e74206578636565647320616c6c6f77616e6365436f6e747261637420696e7374616e63652068617320616c7265616479206265656e20696e697469616c697a656445524332303a206275726e2066726f6d20746865207a65726f206164647265737345524332303a207472616e736665722066726f6d20746865207a65726f206164647265737345524332303a20617070726f76652066726f6d20746865207a65726f2061646472657373417661696c61626c652062616c616e6365206973206c6f776572207468616e207472616e7366657220616d6f756e7445524332303a2064656372656173656420616c6c6f77616e63652062656c6f77207a65726fa2646970667358221220644b5056e2a858325a885a85b89308b865788c8764663449af9578d450a54c2a64736f6c63430006080033",
  "immutableReferences": {},
  "source": "// SPDX-License-Identifier: UNLICENSED\npragma solidity 0.6.8;\n\nimport \"@openzeppelin/contracts-ethereum-package/contracts/math/SafeMath.sol\";\nimport \"@openzeppelin/contracts-ethereum-package/contracts/access/Ownable.sol\";\nimport \"@openzeppelin/contracts-ethereum-package/contracts/token/ERC20/ERC20.sol\";\nimport \"./lib/Lockable.sol\";\n\ncontract AETH is OwnableUpgradeSafe, ERC20UpgradeSafe, Lockable {\n    using SafeMath for uint256;\n\n    event Freeze(address indexed account, uint256 value);\n    event Unfreeze(address indexed account, uint256 value);\n    event Claimed(address payable user, uint256 amount);\n\n    event ClaimableToggle(bool _claimable);\n\n    uint256 private _totalSupply;\n\n    string private _name;\n    string private _symbol;\n    uint8 private _decimals;\n\n    mapping (address => uint256) private _balances;\n    mapping (address => uint256) private _frozenBalances;\n\n    bool public _claimable;\n\n    address public _microPoolContract;\n\n    modifier onlyMicroPoolContract() {\n        require(_microPoolContract == _msgSender(), \"Ownable: caller is not the micropool contract\");\n        _;\n    }\n\n    modifier claimable() {\n        require(_claimable, \"Not claimable\");\n        _;\n    }\n\n    function initialize(string memory name, string memory symbol) public initializer {\n        OwnableUpgradeSafe.__Ownable_init();\n        __ERC20_init(name, symbol);\n        _totalSupply = 0;\n\n        _claimable = false;\n    }\n\n    function updateMicroPoolContract(address microPoolContract) external onlyOwner{\n        _microPoolContract = microPoolContract;\n    }\n\n    function availableBalanceOf(address account) public view returns (uint256) {\n        return balanceOf(account).sub(frozenBalanceOf(account));\n    }\n\n    function frozenBalanceOf(address account) public view returns (uint256) {\n        return _frozenBalances[account];\n    }\n\n    function mint(address account, uint256 amount) external onlyMicroPoolContract {\n        _mint(account, amount);\n    }\n\n    function mintPool() payable external {\n        _mint(msg.sender, msg.value);\n    }\n\n    function mintFrozen(address account, uint256 amount) external onlyMicroPoolContract {\n        _frozenBalances[account] = _frozenBalances[account].add(amount);\n\n        _mint(account, amount);\n\n        emit Freeze(account, amount);\n    }\n\n    function unfreeze() external claimable {\n        uint256 amount = _frozenBalances[msg.sender];\n\n        require(amount > 0, \"Frozen Balance zero\");\n\n        _frozenBalances[msg.sender] = 0;\n\n        _balances[msg.sender] = _balances[msg.sender].add(amount);\n\n        emit Unfreeze(msg.sender, amount);\n    }\n\n    function swap() payable claimable external {\n        require(availableBalanceOf(msg.sender) > 0, \"Available aeth balance is zero\");\n\n        uint256 balance = availableBalanceOf(msg.sender);\n        _burn(msg.sender, balance);\n        require(msg.sender.send(balance), \"Insufficient funds\");\n    }\n\n    function burn(uint256 amount) external {\n        _burn(msg.sender, amount);\n    }\n\n    function toggleClaimable() external onlyOwner {\n        _claimable = !_claimable;\n        emit ClaimableToggle(_claimable);\n    }\n\n    receive() external payable  {\n        _mint(msg.sender, msg.value);\n    }\n\n    function _beforeTokenTransfer(address from, address to, uint256 amount) override internal {\n        // if this is a real transfer\n        if (from != address(0)) {\n            require(availableBalanceOf(from) >= amount, \"Available balance is lower than transfer amount\");\n        }\n    }\n}\n",
  "sourcePath": "/Users/anilkucukrecep/Code/Personal/st/contracts/contracts/AETH.sol",
  "compiler": {
    "name": "solc",
    "version": "0.6.8+commit.0bbfe453.Emscripten.clang"
  },
  "schemaVersion": "3.3.0",
  "updatedAt": "2020-10-19T01:04:52.492Z",
  "networkType": "ethereum",
  "devdoc": {
    "methods": {
      "allowance(address,address)": {
        "details": "See {IERC20-allowance}."
      },
      "approve(address,uint256)": {
        "details": "See {IERC20-approve}.     * Requirements:     * - `spender` cannot be the zero address."
      },
      "balanceOf(address)": {
        "details": "See {IERC20-balanceOf}."
      },
      "decimals()": {
        "details": "Returns the number of decimals used to get its user representation. For example, if `decimals` equals `2`, a balance of `505` tokens should be displayed to a user as `5,05` (`505 / 10 ** 2`).     * Tokens usually opt for a value of 18, imitating the relationship between Ether and Wei. This is the value {ERC20} uses, unless {_setupDecimals} is called.     * NOTE: This information is only used for _display_ purposes: it in no way affects any of the arithmetic of the contract, including {IERC20-balanceOf} and {IERC20-transfer}."
      },
      "decreaseAllowance(address,uint256)": {
        "details": "Atomically decreases the allowance granted to `spender` by the caller.     * This is an alternative to {approve} that can be used as a mitigation for problems described in {IERC20-approve}.     * Emits an {Approval} event indicating the updated allowance.     * Requirements:     * - `spender` cannot be the zero address. - `spender` must have allowance for the caller of at least `subtractedValue`."
      },
      "increaseAllowance(address,uint256)": {
        "details": "Atomically increases the allowance granted to `spender` by the caller.     * This is an alternative to {approve} that can be used as a mitigation for problems described in {IERC20-approve}.     * Emits an {Approval} event indicating the updated allowance.     * Requirements:     * - `spender` cannot be the zero address."
      },
      "name()": {
        "details": "Returns the name of the token."
      },
      "owner()": {
        "details": "Returns the address of the current owner."
      },
      "renounceOwnership()": {
        "details": "Leaves the contract without owner. It will not be possible to call `onlyOwner` functions anymore. Can only be called by the current owner.     * NOTE: Renouncing ownership will leave the contract without an owner, thereby removing any functionality that is only available to the owner."
      },
      "symbol()": {
        "details": "Returns the symbol of the token, usually a shorter version of the name."
      },
      "totalSupply()": {
        "details": "See {IERC20-totalSupply}."
      },
      "transfer(address,uint256)": {
        "details": "See {IERC20-transfer}.     * Requirements:     * - `recipient` cannot be the zero address. - the caller must have a balance of at least `amount`."
      },
      "transferFrom(address,address,uint256)": {
        "details": "See {IERC20-transferFrom}.     * Emits an {Approval} event indicating the updated allowance. This is not required by the EIP. See the note at the beginning of {ERC20};     * Requirements: - `sender` and `recipient` cannot be the zero address. - `sender` must have a balance of at least `amount`. - the caller must have allowance for ``sender``'s tokens of at least `amount`."
      },
      "transferOwnership(address)": {
        "details": "Transfers ownership of the contract to a new account (`newOwner`). Can only be called by the current owner."
      }
    }
  },
  "userdoc": {
    "methods": {}
  }
}