{
  "contractName": "MarketPlace",
  "abi": [
    {
      "anonymous": false,
      "inputs": [
        {
          "indexed": true,
          "internalType": "address",
          "name": "previousOwner",
          "type": "address"
        },
        {
          "indexed": true,
          "internalType": "address",
          "name": "newOwner",
          "type": "address"
        }
      ],
      "name": "OwnershipTransferred",
      "type": "event"
    },
    {
      "inputs": [],
      "name": "AETHContract",
      "outputs": [
        {
          "internalType": "contract IAETH",
          "name": "",
          "type": "address"
        }
      ],
      "stateMutability": "view",
      "type": "function",
      "constant": true
    },
    {
      "inputs": [],
      "name": "owner",
      "outputs": [
        {
          "internalType": "address",
          "name": "",
          "type": "address"
        }
      ],
      "stateMutability": "view",
      "type": "function",
      "constant": true
    },
    {
      "inputs": [],
      "name": "renounceOwnership",
      "outputs": [],
      "stateMutability": "nonpayable",
      "type": "function"
    },
    {
      "inputs": [
        {
          "internalType": "address",
          "name": "newOwner",
          "type": "address"
        }
      ],
      "name": "transferOwnership",
      "outputs": [],
      "stateMutability": "nonpayable",
      "type": "function"
    },
    {
      "inputs": [
        {
          "internalType": "address",
          "name": "aethContract",
          "type": "address"
        }
      ],
      "name": "initialize",
      "outputs": [],
      "stateMutability": "nonpayable",
      "type": "function"
    },
    {
      "inputs": [
        {
          "internalType": "uint256",
          "name": "ethUsd",
          "type": "uint256"
        }
      ],
      "name": "updateEthUsdRate",
      "outputs": [],
      "stateMutability": "nonpayable",
      "type": "function"
    },
    {
      "inputs": [
        {
          "internalType": "uint256",
          "name": "ankrEth",
          "type": "uint256"
        }
      ],
      "name": "updateAnkrEthRate",
      "outputs": [],
      "stateMutability": "nonpayable",
      "type": "function"
    },
    {
      "inputs": [],
      "name": "ethUsdRate",
      "outputs": [
        {
          "internalType": "uint256",
          "name": "ethUsd",
          "type": "uint256"
        }
      ],
      "stateMutability": "nonpayable",
      "type": "function"
    },
    {
      "inputs": [],
      "name": "ankrEthRate",
      "outputs": [
        {
          "internalType": "uint256",
          "name": "ankrEth",
          "type": "uint256"
        }
      ],
      "stateMutability": "nonpayable",
      "type": "function"
    },
    {
      "inputs": [
        {
          "internalType": "address",
          "name": "aethContract",
          "type": "address"
        }
      ],
      "name": "updateAETHContract",
      "outputs": [],
      "stateMutability": "nonpayable",
      "type": "function"
    },
    {
      "inputs": [
        {
          "internalType": "uint256",
          "name": "etherAmount",
          "type": "uint256"
        }
      ],
      "name": "swapAndBurn",
      "outputs": [
        {
          "internalType": "uint256",
          "name": "",
          "type": "uint256"
        }
      ],
      "stateMutability": "nonpayable",
      "type": "function"
    }
  ],
  "bytecode": "0x608060405234801561001057600080fd5b506110a4806100206000396000f3fe608060405234801561001057600080fd5b50600436106100a95760003560e01c8063715018a611610071578063715018a61461019e57806373c4abcb146101a85780638da5cb5b146101d6578063c4d66de814610220578063dba257d514610264578063f2fde38b146102ae576100a9565b80631031e6da146100ae5780631d65a6ca146100dc5780632edabb711461011e5780633b478fc51461016257806353b6515314610180575b600080fd5b6100da600480360360208110156100c457600080fd5b81019080803590602001909291905050506102f2565b005b610108600480360360208110156100f257600080fd5b81019080803590602001909291905050506103c6565b6040518082815260200191505060405180910390f35b6101606004803603602081101561013457600080fd5b81019080803573ffffffffffffffffffffffffffffffffffffffff169060200190929190505050610474565b005b61016a610582565b6040518082815260200191505060405180910390f35b61018861058c565b6040518082815260200191505060405180910390f35b6101a6610596565b005b6101d4600480360360208110156101be57600080fd5b8101908080359060200190929190505050610721565b005b6101de6107f5565b604051808273ffffffffffffffffffffffffffffffffffffffff1673ffffffffffffffffffffffffffffffffffffffff16815260200191505060405180910390f35b6102626004803603602081101561023657600080fd5b81019080803573ffffffffffffffffffffffffffffffffffffffff16906020019092919050505061081f565b005b61026c610968565b604051808273ffffffffffffffffffffffffffffffffffffffff1673ffffffffffffffffffffffffffffffffffffffff16815260200191505060405180910390f35b6102f0600480360360208110156102c457600080fd5b81019080803573ffffffffffffffffffffffffffffffffffffffff16906020019092919050505061098e565b005b6102fa610b9e565b73ffffffffffffffffffffffffffffffffffffffff16606560009054906101000a900473ffffffffffffffffffffffffffffffffffffffff1673ffffffffffffffffffffffffffffffffffffffff16146103bc576040517f08c379a00000000000000000000000000000000000000000000000000000000081526004018080602001828103825260208152602001807f4f776e61626c653a2063616c6c6572206973206e6f7420746865206f776e657281525060200191505060405180910390fd5b8060978190555050565b6000806103dc8384610ba690919063ffffffff16565b9050609960009054906101000a900473ffffffffffffffffffffffffffffffffffffffff1673ffffffffffffffffffffffffffffffffffffffff166342966c68826040518263ffffffff1660e01b815260040180828152602001915050600060405180830381600087803b15801561045357600080fd5b505af1158015610467573d6000803e3d6000fd5b5050505080915050919050565b61047c610b9e565b73ffffffffffffffffffffffffffffffffffffffff16606560009054906101000a900473ffffffffffffffffffffffffffffffffffffffff1673ffffffffffffffffffffffffffffffffffffffff161461053e576040517f08c379a00000000000000000000000000000000000000000000000000000000081526004018080602001828103825260208152602001807f4f776e61626c653a2063616c6c6572206973206e6f7420746865206f776e657281525060200191505060405180910390fd5b80609960006101000a81548173ffffffffffffffffffffffffffffffffffffffff021916908373ffffffffffffffffffffffffffffffffffffffff16021790555050565b6000609754905090565b6000609854905090565b61059e610b9e565b73ffffffffffffffffffffffffffffffffffffffff16606560009054906101000a900473ffffffffffffffffffffffffffffffffffffffff1673ffffffffffffffffffffffffffffffffffffffff1614610660576040517f08c379a00000000000000000000000000000000000000000000000000000000081526004018080602001828103825260208152602001807f4f776e61626c653a2063616c6c6572206973206e6f7420746865206f776e657281525060200191505060405180910390fd5b600073ffffffffffffffffffffffffffffffffffffffff16606560009054906101000a900473ffffffffffffffffffffffffffffffffffffffff1673ffffffffffffffffffffffffffffffffffffffff167f8be0079c531659141344cd1fd0a4f28419497f9722a3daafe3b4186f6b6457e060405160405180910390a36000606560006101000a81548173ffffffffffffffffffffffffffffffffffffffff021916908373ffffffffffffffffffffffffffffffffffffffff160217905550565b610729610b9e565b73ffffffffffffffffffffffffffffffffffffffff16606560009054906101000a900473ffffffffffffffffffffffffffffffffffffffff1673ffffffffffffffffffffffffffffffffffffffff16146107eb576040517f08c379a00000000000000000000000000000000000000000000000000000000081526004018080602001828103825260208152602001807f4f776e61626c653a2063616c6c6572206973206e6f7420746865206f776e657281525060200191505060405180910390fd5b8060988190555050565b6000606560009054906101000a900473ffffffffffffffffffffffffffffffffffffffff16905090565b600060019054906101000a900460ff168061083e575061083d610c2c565b5b8061085557506000809054906101000a900460ff16155b6108aa576040517f08c379a000000000000000000000000000000000000000000000000000000000815260040180806020018281038252602e815260200180611041602e913960400191505060405180910390fd5b60008060019054906101000a900460ff1615905080156108fa576001600060016101000a81548160ff02191690831515021790555060016000806101000a81548160ff0219169083151502179055505b610902610c43565b81609960006101000a81548173ffffffffffffffffffffffffffffffffffffffff021916908373ffffffffffffffffffffffffffffffffffffffff16021790555080156109645760008060016101000a81548160ff0219169083151502179055505b5050565b609960009054906101000a900473ffffffffffffffffffffffffffffffffffffffff1681565b610996610b9e565b73ffffffffffffffffffffffffffffffffffffffff16606560009054906101000a900473ffffffffffffffffffffffffffffffffffffffff1673ffffffffffffffffffffffffffffffffffffffff1614610a58576040517f08c379a00000000000000000000000000000000000000000000000000000000081526004018080602001828103825260208152602001807f4f776e61626c653a2063616c6c6572206973206e6f7420746865206f776e657281525060200191505060405180910390fd5b600073ffffffffffffffffffffffffffffffffffffffff168173ffffffffffffffffffffffffffffffffffffffff161415610ade576040517f08c379a0000000000000000000000000000000000000000000000000000000008152600401808060200182810382526026815260200180610ffa6026913960400191505060405180910390fd5b8073ffffffffffffffffffffffffffffffffffffffff16606560009054906101000a900473ffffffffffffffffffffffffffffffffffffffff1673ffffffffffffffffffffffffffffffffffffffff167f8be0079c531659141344cd1fd0a4f28419497f9722a3daafe3b4186f6b6457e060405160405180910390a380606560006101000a81548173ffffffffffffffffffffffffffffffffffffffff021916908373ffffffffffffffffffffffffffffffffffffffff16021790555050565b600033905090565b600080831415610bb95760009050610c26565b6000828402905082848281610bca57fe5b0414610c21576040517f08c379a00000000000000000000000000000000000000000000000000000000081526004018080602001828103825260218152602001806110206021913960400191505060405180910390fd5b809150505b92915050565b6000803090506000813b9050600081149250505090565b600060019054906101000a900460ff1680610c625750610c61610c2c565b5b80610c7957506000809054906101000a900460ff16155b610cce576040517f08c379a000000000000000000000000000000000000000000000000000000000815260040180806020018281038252602e815260200180611041602e913960400191505060405180910390fd5b60008060019054906101000a900460ff161590508015610d1e576001600060016101000a81548160ff02191690831515021790555060016000806101000a81548160ff0219169083151502179055505b610d26610d52565b610d2e610e51565b8015610d4f5760008060016101000a81548160ff0219169083151502179055505b50565b600060019054906101000a900460ff1680610d715750610d70610c2c565b5b80610d8857506000809054906101000a900460ff16155b610ddd576040517f08c379a000000000000000000000000000000000000000000000000000000000815260040180806020018281038252602e815260200180611041602e913960400191505060405180910390fd5b60008060019054906101000a900460ff161590508015610e2d576001600060016101000a81548160ff02191690831515021790555060016000806101000a81548160ff0219169083151502179055505b8015610e4e5760008060016101000a81548160ff0219169083151502179055505b50565b600060019054906101000a900460ff1680610e705750610e6f610c2c565b5b80610e8757506000809054906101000a900460ff16155b610edc576040517f08c379a000000000000000000000000000000000000000000000000000000000815260040180806020018281038252602e815260200180611041602e913960400191505060405180910390fd5b60008060019054906101000a900460ff161590508015610f2c576001600060016101000a81548160ff02191690831515021790555060016000806101000a81548160ff0219169083151502179055505b6000610f36610b9e565b905080606560006101000a81548173ffffffffffffffffffffffffffffffffffffffff021916908373ffffffffffffffffffffffffffffffffffffffff1602179055508073ffffffffffffffffffffffffffffffffffffffff16600073ffffffffffffffffffffffffffffffffffffffff167f8be0079c531659141344cd1fd0a4f28419497f9722a3daafe3b4186f6b6457e060405160405180910390a3508015610ff65760008060016101000a81548160ff0219169083151502179055505b5056fe4f776e61626c653a206e6577206f776e657220697320746865207a65726f2061646472657373536166654d6174683a206d756c7469706c69636174696f6e206f766572666c6f77436f6e747261637420696e7374616e63652068617320616c7265616479206265656e20696e697469616c697a6564a2646970667358221220d699bed3b8858e9ed3eeadbd4d15289f6e5d3634b7fa221ce43498289f6667b064736f6c63430006080033",
  "immutableReferences": {},
  "source": "//SPDX-License-Identifier: UNLICENSED\npragma solidity ^0.6.8;\n\nimport \"@openzeppelin/contracts-ethereum-package/contracts/math/SafeMath.sol\";\nimport \"@openzeppelin/contracts-ethereum-package/contracts/access/Ownable.sol\";\nimport \"@openzeppelin/contracts-ethereum-package/contracts/token/ERC20/IERC20.sol\";\nimport \"./lib/interfaces/IAETH.sol\";\n\ncontract MarketPlace is OwnableUpgradeSafe {\n    using SafeMath for uint256;\n\n    // ETH-USD\n    // ANKR-ETH\n    uint256 private _ethUsd;\n    uint256 private _ankrEth;\n\n//    mapping (address => uint256) public _funders;\n\n    IAETH public AETHContract;\n\n    function initialize(address aethContract) public initializer {\n        OwnableUpgradeSafe.__Ownable_init();\n        AETHContract = IAETH(aethContract);\n    }\n\n    function updateEthUsdRate(uint256 ethUsd) public onlyOwner {\n        _ethUsd = ethUsd;\n    }\n\n    function updateAnkrEthRate(uint256 ankrEth) public onlyOwner {\n        _ankrEth = ankrEth;\n    }\n\n    function ethUsdRate() external returns (uint256 ethUsd) {\n        ethUsd = _ethUsd;\n    }\n\n    function ankrEthRate() external returns (uint256 ankrEth) {\n        ankrEth = _ankrEth;\n    }\n\n    function updateAETHContract(address aethContract) public onlyOwner {\n        AETHContract = IAETH(aethContract);\n    }\n\n    function swapAndBurn(uint256 etherAmount) external returns(uint256) {\n        uint256 ankrAmount = etherAmount.mul(etherAmount);\n\n        AETHContract.burn(ankrAmount);\n\n        return ankrAmount;\n    }\n}\n",
  "sourcePath": "/Users/anilkucukrecep/Code/Personal/st/contracts/contracts/MarketPlace.sol",
  "compiler": {
    "name": "solc",
    "version": "0.6.8+commit.0bbfe453.Emscripten.clang"
  },
  "schemaVersion": "3.3.0",
  "updatedAt": "2020-10-16T22:36:58.099Z",
  "networkType": "ethereum",
  "devdoc": {
    "methods": {
      "owner()": {
        "details": "Returns the address of the current owner."
      },
      "renounceOwnership()": {
        "details": "Leaves the contract without owner. It will not be possible to call `onlyOwner` functions anymore. Can only be called by the current owner.     * NOTE: Renouncing ownership will leave the contract without an owner, thereby removing any functionality that is only available to the owner."
      },
      "transferOwnership(address)": {
        "details": "Transfers ownership of the contract to a new account (`newOwner`). Can only be called by the current owner."
      }
    }
  },
  "userdoc": {
    "methods": {}
  }
}