{
  "contractName": "MarketPlace",
  "abi": [
    {
      "anonymous": false,
      "inputs": [
        {
          "indexed": true,
          "internalType": "address",
          "name": "previousOwner",
          "type": "address"
        },
        {
          "indexed": true,
          "internalType": "address",
          "name": "newOwner",
          "type": "address"
        }
      ],
      "name": "OwnershipTransferred",
      "type": "event"
    },
    {
      "inputs": [],
      "name": "AETHContract",
      "outputs": [
        {
          "internalType": "contract IAETH",
          "name": "",
          "type": "address"
        }
      ],
      "stateMutability": "view",
      "type": "function"
    },
    {
      "inputs": [],
      "name": "owner",
      "outputs": [
        {
          "internalType": "address",
          "name": "",
          "type": "address"
        }
      ],
      "stateMutability": "view",
      "type": "function"
    },
    {
      "inputs": [],
      "name": "renounceOwnership",
      "outputs": [],
      "stateMutability": "nonpayable",
      "type": "function"
    },
    {
      "inputs": [
        {
          "internalType": "address",
          "name": "newOwner",
          "type": "address"
        }
      ],
      "name": "transferOwnership",
      "outputs": [],
      "stateMutability": "nonpayable",
      "type": "function"
    },
    {
      "inputs": [
        {
          "internalType": "address",
          "name": "aethContract",
          "type": "address"
        }
      ],
      "name": "initialize",
      "outputs": [],
      "stateMutability": "nonpayable",
      "type": "function"
    },
    {
      "inputs": [
        {
          "internalType": "uint256",
          "name": "ethUsd",
          "type": "uint256"
        }
      ],
      "name": "updateEthUsdRate",
      "outputs": [],
      "stateMutability": "nonpayable",
      "type": "function"
    },
    {
      "inputs": [
        {
          "internalType": "uint256",
          "name": "ankrEth",
          "type": "uint256"
        }
      ],
      "name": "updateAnkrEthRate",
      "outputs": [],
      "stateMutability": "nonpayable",
      "type": "function"
    },
    {
      "inputs": [],
      "name": "ethUsdRate",
      "outputs": [
        {
          "internalType": "uint256",
          "name": "ethUsd",
          "type": "uint256"
        }
      ],
      "stateMutability": "nonpayable",
      "type": "function"
    },
    {
      "inputs": [],
      "name": "ankrEthRate",
      "outputs": [
        {
          "internalType": "uint256",
          "name": "ankrEth",
          "type": "uint256"
        }
      ],
      "stateMutability": "nonpayable",
      "type": "function"
    },
    {
      "inputs": [
        {
          "internalType": "address",
          "name": "aethContract",
          "type": "address"
        }
      ],
      "name": "updateAETHContract",
      "outputs": [],
      "stateMutability": "nonpayable",
      "type": "function"
    },
    {
      "inputs": [
        {
          "internalType": "uint256",
          "name": "etherAmount",
          "type": "uint256"
        }
      ],
      "name": "burnAeth",
      "outputs": [
        {
          "internalType": "uint256",
          "name": "",
          "type": "uint256"
        }
      ],
      "stateMutability": "nonpayable",
      "type": "function"
    }
  ],
  "bytecode": "0x608060405234801561001057600080fd5b50610fe6806100206000396000f3fe608060405234801561001057600080fd5b50600436106100a95760003560e01c806373c4abcb1161007157806373c4abcb146101665780638da5cb5b14610194578063c4d66de8146101de578063dba257d514610222578063f2fde38b1461026c578063fa3fbe08146102b0576100a9565b80631031e6da146100ae5780632edabb71146100dc5780633b478fc51461012057806353b651531461013e578063715018a61461015c575b600080fd5b6100da600480360360208110156100c457600080fd5b81019080803590602001909291905050506102f2565b005b61011e600480360360208110156100f257600080fd5b81019080803573ffffffffffffffffffffffffffffffffffffffff1690602001909291905050506103c6565b005b6101286104d4565b6040518082815260200191505060405180910390f35b6101466104de565b6040518082815260200191505060405180910390f35b6101646104e8565b005b6101926004803603602081101561017c57600080fd5b8101908080359060200190929190505050610673565b005b61019c610747565b604051808273ffffffffffffffffffffffffffffffffffffffff1673ffffffffffffffffffffffffffffffffffffffff16815260200191505060405180910390f35b610220600480360360208110156101f457600080fd5b81019080803573ffffffffffffffffffffffffffffffffffffffff169060200190929190505050610771565b005b61022a6108ba565b604051808273ffffffffffffffffffffffffffffffffffffffff1673ffffffffffffffffffffffffffffffffffffffff16815260200191505060405180910390f35b6102ae6004803603602081101561028257600080fd5b81019080803573ffffffffffffffffffffffffffffffffffffffff1690602001909291905050506108e0565b005b6102dc600480360360208110156102c657600080fd5b8101908080359060200190929190505050610af0565b6040518082815260200191505060405180910390f35b6102fa610b87565b73ffffffffffffffffffffffffffffffffffffffff16606560009054906101000a900473ffffffffffffffffffffffffffffffffffffffff1673ffffffffffffffffffffffffffffffffffffffff16146103bc576040517f08c379a00000000000000000000000000000000000000000000000000000000081526004018080602001828103825260208152602001807f4f776e61626c653a2063616c6c6572206973206e6f7420746865206f776e657281525060200191505060405180910390fd5b8060978190555050565b6103ce610b87565b73ffffffffffffffffffffffffffffffffffffffff16606560009054906101000a900473ffffffffffffffffffffffffffffffffffffffff1673ffffffffffffffffffffffffffffffffffffffff1614610490576040517f08c379a00000000000000000000000000000000000000000000000000000000081526004018080602001828103825260208152602001807f4f776e61626c653a2063616c6c6572206973206e6f7420746865206f776e657281525060200191505060405180910390fd5b80609960006101000a81548173ffffffffffffffffffffffffffffffffffffffff021916908373ffffffffffffffffffffffffffffffffffffffff16021790555050565b6000609754905090565b6000609854905090565b6104f0610b87565b73ffffffffffffffffffffffffffffffffffffffff16606560009054906101000a900473ffffffffffffffffffffffffffffffffffffffff1673ffffffffffffffffffffffffffffffffffffffff16146105b2576040517f08c379a00000000000000000000000000000000000000000000000000000000081526004018080602001828103825260208152602001807f4f776e61626c653a2063616c6c6572206973206e6f7420746865206f776e657281525060200191505060405180910390fd5b600073ffffffffffffffffffffffffffffffffffffffff16606560009054906101000a900473ffffffffffffffffffffffffffffffffffffffff1673ffffffffffffffffffffffffffffffffffffffff167f8be0079c531659141344cd1fd0a4f28419497f9722a3daafe3b4186f6b6457e060405160405180910390a36000606560006101000a81548173ffffffffffffffffffffffffffffffffffffffff021916908373ffffffffffffffffffffffffffffffffffffffff160217905550565b61067b610b87565b73ffffffffffffffffffffffffffffffffffffffff16606560009054906101000a900473ffffffffffffffffffffffffffffffffffffffff1673ffffffffffffffffffffffffffffffffffffffff161461073d576040517f08c379a00000000000000000000000000000000000000000000000000000000081526004018080602001828103825260208152602001807f4f776e61626c653a2063616c6c6572206973206e6f7420746865206f776e657281525060200191505060405180910390fd5b8060988190555050565b6000606560009054906101000a900473ffffffffffffffffffffffffffffffffffffffff16905090565b600060019054906101000a900460ff1680610790575061078f610b8f565b5b806107a757506000809054906101000a900460ff16155b6107fc576040517f08c379a000000000000000000000000000000000000000000000000000000000815260040180806020018281038252602e815260200180610f83602e913960400191505060405180910390fd5b60008060019054906101000a900460ff16159050801561084c576001600060016101000a81548160ff02191690831515021790555060016000806101000a81548160ff0219169083151502179055505b610854610ba6565b81609960006101000a81548173ffffffffffffffffffffffffffffffffffffffff021916908373ffffffffffffffffffffffffffffffffffffffff16021790555080156108b65760008060016101000a81548160ff0219169083151502179055505b5050565b609960009054906101000a900473ffffffffffffffffffffffffffffffffffffffff1681565b6108e8610b87565b73ffffffffffffffffffffffffffffffffffffffff16606560009054906101000a900473ffffffffffffffffffffffffffffffffffffffff1673ffffffffffffffffffffffffffffffffffffffff16146109aa576040517f08c379a00000000000000000000000000000000000000000000000000000000081526004018080602001828103825260208152602001807f4f776e61626c653a2063616c6c6572206973206e6f7420746865206f776e657281525060200191505060405180910390fd5b600073ffffffffffffffffffffffffffffffffffffffff168173ffffffffffffffffffffffffffffffffffffffff161415610a30576040517f08c379a0000000000000000000000000000000000000000000000000000000008152600401808060200182810382526026815260200180610f5d6026913960400191505060405180910390fd5b8073ffffffffffffffffffffffffffffffffffffffff16606560009054906101000a900473ffffffffffffffffffffffffffffffffffffffff1673ffffffffffffffffffffffffffffffffffffffff167f8be0079c531659141344cd1fd0a4f28419497f9722a3daafe3b4186f6b6457e060405160405180910390a380606560006101000a81548173ffffffffffffffffffffffffffffffffffffffff021916908373ffffffffffffffffffffffffffffffffffffffff16021790555050565b6000609960009054906101000a900473ffffffffffffffffffffffffffffffffffffffff1673ffffffffffffffffffffffffffffffffffffffff166342966c68836040518263ffffffff1660e01b815260040180828152602001915050600060405180830381600087803b158015610b6757600080fd5b505af1158015610b7b573d6000803e3d6000fd5b50505050819050919050565b600033905090565b6000803090506000813b9050600081149250505090565b600060019054906101000a900460ff1680610bc55750610bc4610b8f565b5b80610bdc57506000809054906101000a900460ff16155b610c31576040517f08c379a000000000000000000000000000000000000000000000000000000000815260040180806020018281038252602e815260200180610f83602e913960400191505060405180910390fd5b60008060019054906101000a900460ff161590508015610c81576001600060016101000a81548160ff02191690831515021790555060016000806101000a81548160ff0219169083151502179055505b610c89610cb5565b610c91610db4565b8015610cb25760008060016101000a81548160ff0219169083151502179055505b50565b600060019054906101000a900460ff1680610cd45750610cd3610b8f565b5b80610ceb57506000809054906101000a900460ff16155b610d40576040517f08c379a000000000000000000000000000000000000000000000000000000000815260040180806020018281038252602e815260200180610f83602e913960400191505060405180910390fd5b60008060019054906101000a900460ff161590508015610d90576001600060016101000a81548160ff02191690831515021790555060016000806101000a81548160ff0219169083151502179055505b8015610db15760008060016101000a81548160ff0219169083151502179055505b50565b600060019054906101000a900460ff1680610dd35750610dd2610b8f565b5b80610dea57506000809054906101000a900460ff16155b610e3f576040517f08c379a000000000000000000000000000000000000000000000000000000000815260040180806020018281038252602e815260200180610f83602e913960400191505060405180910390fd5b60008060019054906101000a900460ff161590508015610e8f576001600060016101000a81548160ff02191690831515021790555060016000806101000a81548160ff0219169083151502179055505b6000610e99610b87565b905080606560006101000a81548173ffffffffffffffffffffffffffffffffffffffff021916908373ffffffffffffffffffffffffffffffffffffffff1602179055508073ffffffffffffffffffffffffffffffffffffffff16600073ffffffffffffffffffffffffffffffffffffffff167f8be0079c531659141344cd1fd0a4f28419497f9722a3daafe3b4186f6b6457e060405160405180910390a3508015610f595760008060016101000a81548160ff0219169083151502179055505b5056fe4f776e61626c653a206e6577206f776e657220697320746865207a65726f2061646472657373436f6e747261637420696e7374616e63652068617320616c7265616479206265656e20696e697469616c697a6564a2646970667358221220ae3dfa93fdea0177b99e099c2a00a8e6c78124161250972a1caacc013f3fce7264736f6c63430006080033",
  "immutableReferences": {},
  "source": "//SPDX-License-Identifier: UNLICENSED\npragma solidity ^0.6.8;\n\nimport \"@openzeppelin/contracts-ethereum-package/contracts/math/SafeMath.sol\";\nimport \"@openzeppelin/contracts-ethereum-package/contracts/access/Ownable.sol\";\nimport \"@openzeppelin/contracts-ethereum-package/contracts/token/ERC20/IERC20.sol\";\nimport \"./lib/interfaces/IAETH.sol\";\n\ncontract MarketPlace is OwnableUpgradeSafe {\n    using SafeMath for uint256;\n\n    // ETH-USD\n    // ANKR-ETH\n    uint256 private _ethUsd;\n    uint256 private _ankrEth;\n\n    // TODO: Funders\n    // mapping (address => uint256) public _funders;\n\n    IAETH public AETHContract;\n\n    function initialize(address aethContract) public initializer {\n        OwnableUpgradeSafe.__Ownable_init();\n        AETHContract = IAETH(aethContract);\n    }\n\n    function updateEthUsdRate(uint256 ethUsd) public onlyOwner {\n        _ethUsd = ethUsd;\n    }\n\n    function updateAnkrEthRate(uint256 ankrEth) public onlyOwner {\n        _ankrEth = ankrEth;\n    }\n\n    function ethUsdRate() external returns (uint256 ethUsd) {\n        ethUsd = _ethUsd;\n    }\n\n    function ankrEthRate() external returns (uint256 ankrEth) {\n        ankrEth = _ankrEth;\n    }\n\n    function updateAETHContract(address aethContract) public onlyOwner {\n        AETHContract = IAETH(aethContract);\n    }\n\n    // TODO: Only staking contract\n    function burnAeth(uint256 etherAmount) external returns (uint256) {\n        AETHContract.burn(etherAmount);\n\n        return etherAmount;\n    }\n}\n",
  "sourcePath": "/Users/anilkucukrecep/Code/Personal/st/contracts/contracts/MarketPlace.sol",
  "compiler": {
    "name": "solc",
    "version": "0.6.8+commit.0bbfe453.Emscripten.clang"
  },
  "schemaVersion": "3.3.0",
  "updatedAt": "2020-10-21T16:29:32.306Z",
  "devdoc": {
    "methods": {
      "owner()": {
        "details": "Returns the address of the current owner."
      },
      "renounceOwnership()": {
        "details": "Leaves the contract without owner. It will not be possible to call `onlyOwner` functions anymore. Can only be called by the current owner.     * NOTE: Renouncing ownership will leave the contract without an owner, thereby removing any functionality that is only available to the owner."
      },
      "transferOwnership(address)": {
        "details": "Transfers ownership of the contract to a new account (`newOwner`). Can only be called by the current owner."
      }
    }
  },
  "userdoc": {
    "methods": {}
  }
}