{
  "contractName": "MicroPool",
  "abi": [
    {
      "anonymous": false,
      "inputs": [
        {
          "indexed": true,
          "internalType": "uint256",
          "name": "poolIndex",
          "type": "uint256"
        },
        {
          "indexed": false,
          "internalType": "address",
          "name": "staker",
          "type": "address"
        },
        {
          "indexed": false,
          "internalType": "uint256",
          "name": "amount",
          "type": "uint256"
        }
      ],
      "name": "AETHClaim",
      "type": "event"
    },
    {
      "anonymous": false,
      "inputs": [
        {
          "indexed": true,
          "internalType": "address",
          "name": "previousOwner",
          "type": "address"
        },
        {
          "indexed": true,
          "internalType": "address",
          "name": "newOwner",
          "type": "address"
        }
      ],
      "name": "OwnershipTransferred",
      "type": "event"
    },
    {
      "anonymous": false,
      "inputs": [
        {
          "indexed": true,
          "internalType": "uint256",
          "name": "poolIndex",
          "type": "uint256"
        },
        {
          "indexed": true,
          "internalType": "address payable",
          "name": "provider",
          "type": "address"
        }
      ],
      "name": "PoolCreated",
      "type": "event"
    },
    {
      "anonymous": false,
      "inputs": [
        {
          "indexed": true,
          "internalType": "uint256",
          "name": "poolIndex",
          "type": "uint256"
        },
        {
          "indexed": true,
          "internalType": "address payable",
          "name": "newProvider",
          "type": "address"
        },
        {
          "indexed": true,
          "internalType": "address payable",
          "name": "previousProvider",
          "type": "address"
        },
        {
          "indexed": false,
          "internalType": "uint256",
          "name": "slashings",
          "type": "uint256"
        },
        {
          "indexed": false,
          "internalType": "uint256",
          "name": "poolBalance",
          "type": "uint256"
        }
      ],
      "name": "PoolMigrated",
      "type": "event"
    },
    {
      "anonymous": false,
      "inputs": [
        {
          "indexed": true,
          "internalType": "uint256",
          "name": "poolIndex",
          "type": "uint256"
        }
      ],
      "name": "PoolOnGoing",
      "type": "event"
    },
    {
      "anonymous": false,
      "inputs": [
        {
          "indexed": true,
          "internalType": "uint256",
          "name": "poolIndex",
          "type": "uint256"
        },
        {
          "indexed": false,
          "internalType": "uint256",
          "name": "reward",
          "type": "uint256"
        },
        {
          "indexed": false,
          "internalType": "uint256",
          "name": "slashings",
          "type": "uint256"
        }
      ],
      "name": "PoolReward",
      "type": "event"
    },
    {
      "anonymous": false,
      "inputs": [
        {
          "indexed": true,
          "internalType": "uint256",
          "name": "poolIndex",
          "type": "uint256"
        },
        {
          "indexed": true,
          "internalType": "address",
          "name": "user",
          "type": "address"
        },
        {
          "indexed": false,
          "internalType": "uint256",
          "name": "stakeAmount",
          "type": "uint256"
        }
      ],
      "name": "UserStaked",
      "type": "event"
    },
    {
      "anonymous": false,
      "inputs": [
        {
          "indexed": true,
          "internalType": "uint256",
          "name": "poolIndex",
          "type": "uint256"
        },
        {
          "indexed": true,
          "internalType": "address",
          "name": "staker",
          "type": "address"
        },
        {
          "indexed": false,
          "internalType": "uint256",
          "name": "unstakeAmount",
          "type": "uint256"
        }
      ],
      "name": "UserUnstaked",
      "type": "event"
    },
    {
      "inputs": [],
      "name": "_aethContract",
      "outputs": [
        {
          "internalType": "contract IAETH",
          "name": "",
          "type": "address"
        }
      ],
      "stateMutability": "view",
      "type": "function",
      "constant": true
    },
    {
      "inputs": [],
      "name": "_stakingContract",
      "outputs": [
        {
          "internalType": "contract IStaking",
          "name": "",
          "type": "address"
        }
      ],
      "stateMutability": "view",
      "type": "function",
      "constant": true
    },
    {
      "inputs": [],
      "name": "_systemParameters",
      "outputs": [
        {
          "internalType": "contract SystemParameters",
          "name": "",
          "type": "address"
        }
      ],
      "stateMutability": "view",
      "type": "function",
      "constant": true
    },
    {
      "inputs": [],
      "name": "owner",
      "outputs": [
        {
          "internalType": "address",
          "name": "",
          "type": "address"
        }
      ],
      "stateMutability": "view",
      "type": "function",
      "constant": true
    },
    {
      "inputs": [
        {
          "internalType": "address",
          "name": "",
          "type": "address"
        }
      ],
      "name": "pendingPools",
      "outputs": [
        {
          "internalType": "uint256",
          "name": "",
          "type": "uint256"
        }
      ],
      "stateMutability": "view",
      "type": "function",
      "constant": true
    },
    {
      "inputs": [],
      "name": "renounceOwnership",
      "outputs": [],
      "stateMutability": "nonpayable",
      "type": "function"
    },
    {
      "inputs": [
        {
          "internalType": "address",
          "name": "newOwner",
          "type": "address"
        }
      ],
      "name": "transferOwnership",
      "outputs": [],
      "stateMutability": "nonpayable",
      "type": "function"
    },
    {
      "inputs": [
        {
          "internalType": "address payable",
          "name": "aethContract",
          "type": "address"
        },
        {
          "internalType": "address",
          "name": "systemParameters",
          "type": "address"
        },
        {
          "internalType": "address payable",
          "name": "beaconContract",
          "type": "address"
        }
      ],
      "name": "initialize",
      "outputs": [],
      "stateMutability": "nonpayable",
      "type": "function"
    },
    {
      "inputs": [
        {
          "internalType": "uint256",
          "name": "poolIndex",
          "type": "uint256"
        },
        {
          "internalType": "address payable",
          "name": "validator",
          "type": "address"
        },
        {
          "internalType": "bytes",
          "name": "pubkey",
          "type": "bytes"
        },
        {
          "internalType": "bytes",
          "name": "withdrawal_credentials",
          "type": "bytes"
        },
        {
          "internalType": "bytes",
          "name": "signature",
          "type": "bytes"
        },
        {
          "internalType": "bytes32",
          "name": "deposit_data_root",
          "type": "bytes32"
        }
      ],
      "name": "pushToBeacon",
      "outputs": [],
      "stateMutability": "nonpayable",
      "type": "function"
    },
    {
      "inputs": [
        {
          "internalType": "bytes32",
          "name": "name",
          "type": "bytes32"
        }
      ],
      "name": "initializePool",
      "outputs": [],
      "stateMutability": "nonpayable",
      "type": "function"
    },
    {
      "inputs": [
        {
          "internalType": "uint256",
          "name": "poolIndex",
          "type": "uint256"
        }
      ],
      "name": "stake",
      "outputs": [],
      "stateMutability": "payable",
      "type": "function",
      "payable": true
    },
    {
      "inputs": [
        {
          "internalType": "uint256",
          "name": "poolIndex",
          "type": "uint256"
        },
        {
          "internalType": "uint256",
          "name": "currentPoolBalance",
          "type": "uint256"
        },
        {
          "internalType": "uint256",
          "name": "currentSlashings",
          "type": "uint256"
        },
        {
          "internalType": "address payable",
          "name": "newProvider",
          "type": "address"
        }
      ],
      "name": "migrate",
      "outputs": [],
      "stateMutability": "nonpayable",
      "type": "function"
    },
    {
      "inputs": [
        {
          "internalType": "uint256",
          "name": "poolIndex",
          "type": "uint256"
        }
      ],
      "name": "unstake",
      "outputs": [],
      "stateMutability": "payable",
      "type": "function",
      "payable": true
    },
    {
      "inputs": [
        {
          "internalType": "uint256",
          "name": "poolIndex",
          "type": "uint256"
        },
        {
          "internalType": "uint256",
          "name": "slashings",
          "type": "uint256"
        }
      ],
      "name": "rewardMicropool",
      "outputs": [],
      "stateMutability": "payable",
      "type": "function",
      "payable": true
    },
    {
      "inputs": [
        {
          "internalType": "address payable",
          "name": "tokenContract",
          "type": "address"
        }
      ],
      "name": "updateAETHContract",
      "outputs": [],
      "stateMutability": "nonpayable",
      "type": "function"
    },
    {
      "inputs": [
        {
          "internalType": "address",
          "name": "paramContract",
          "type": "address"
        }
      ],
      "name": "updateParameterContract",
      "outputs": [],
      "stateMutability": "nonpayable",
      "type": "function"
    },
    {
      "inputs": [
        {
          "internalType": "address",
          "name": "stakingContract",
          "type": "address"
        }
      ],
      "name": "updateStakingContract",
      "outputs": [],
      "stateMutability": "nonpayable",
      "type": "function"
    },
    {
      "inputs": [
        {
          "internalType": "uint256",
          "name": "poolIndex",
          "type": "uint256"
        }
      ],
      "name": "claimAeth",
      "outputs": [],
      "stateMutability": "nonpayable",
      "type": "function"
    },
    {
      "inputs": [
        {
          "internalType": "uint256",
          "name": "poolIndex",
          "type": "uint256"
        }
      ],
      "name": "poolDetails",
      "outputs": [
        {
          "internalType": "enum MicroPool.PoolStatus",
          "name": "status",
          "type": "uint8"
        },
        {
          "internalType": "uint256",
          "name": "startTime",
          "type": "uint256"
        },
        {
          "internalType": "uint256",
          "name": "endTime",
          "type": "uint256"
        },
        {
          "internalType": "uint256",
          "name": "lastReward",
          "type": "uint256"
        },
        {
          "internalType": "uint256",
          "name": "lastSlashings",
          "type": "uint256"
        },
        {
          "internalType": "bytes32",
          "name": "name",
          "type": "bytes32"
        },
        {
          "internalType": "uint256",
          "name": "balance",
          "type": "uint256"
        },
        {
          "internalType": "address payable",
          "name": "provider",
          "type": "address"
        },
        {
          "internalType": "address payable",
          "name": "validator",
          "type": "address"
        }
      ],
      "stateMutability": "view",
      "type": "function",
      "constant": true
    },
    {
      "inputs": [],
      "name": "getBack",
      "outputs": [],
      "stateMutability": "payable",
      "type": "function",
      "payable": true
    }
  ],
  "bytecode": "0x608060405234801561001057600080fd5b50614234806100206000396000f3fe60806040526004361061011f5760003560e01c806380da6341116100a0578063a6c222e011610064578063a6c222e0146105d0578063acf0757d146107fa578063b0de5e2914610832578063c0c53b8b14610889578063f2fde38b1461091a5761011f565b806380da6341146104205780638da5cb5b1461048f57806390c92989146104e6578063978be2441461053d578063a694fc3a146105a25761011f565b806358cf086e116100e757806358cf086e1461026a578063715018a6146102c1578063754757cf146102d85780637a260b3f146103295780637eae1626146104165761011f565b80632e17de78146101245780632edabb71146101525780633347e4d6146101a35780634d3af5a1146101f4578063511239f01461022f575b600080fd5b6101506004803603602081101561013a57600080fd5b810190808035906020019092919050505061096b565b005b34801561015e57600080fd5b506101a16004803603602081101561017557600080fd5b81019080803573ffffffffffffffffffffffffffffffffffffffff169060200190929190505050610c4a565b005b3480156101af57600080fd5b506101f2600480360360208110156101c657600080fd5b81019080803573ffffffffffffffffffffffffffffffffffffffff169060200190929190505050610d58565b005b34801561020057600080fd5b5061022d6004803603602081101561021757600080fd5b8101908080359060200190929190505050610e66565b005b34801561023b57600080fd5b506102686004803603602081101561025257600080fd5b8101908080359060200190929190505050611340565b005b34801561027657600080fd5b5061027f6117fe565b604051808273ffffffffffffffffffffffffffffffffffffffff1673ffffffffffffffffffffffffffffffffffffffff16815260200191505060405180910390f35b3480156102cd57600080fd5b506102d6611824565b005b3480156102e457600080fd5b50610327600480360360208110156102fb57600080fd5b81019080803573ffffffffffffffffffffffffffffffffffffffff1690602001909291905050506119af565b005b34801561033557600080fd5b506103626004803603602081101561034c57600080fd5b8101908080359060200190929190505050611abd565b604051808a600381111561037257fe5b60ff1681526020018981526020018881526020018781526020018681526020018581526020018481526020018373ffffffffffffffffffffffffffffffffffffffff1673ffffffffffffffffffffffffffffffffffffffff1681526020018273ffffffffffffffffffffffffffffffffffffffff1673ffffffffffffffffffffffffffffffffffffffff168152602001995050505050505050505060405180910390f35b61041e611cad565b005b34801561042c57600080fd5b5061048d6004803603608081101561044357600080fd5b81019080803590602001909291908035906020019092919080359060200190929190803573ffffffffffffffffffffffffffffffffffffffff169060200190929190505050611cf6565b005b34801561049b57600080fd5b506104a461226c565b604051808273ffffffffffffffffffffffffffffffffffffffff1673ffffffffffffffffffffffffffffffffffffffff16815260200191505060405180910390f35b3480156104f257600080fd5b506104fb612296565b604051808273ffffffffffffffffffffffffffffffffffffffff1673ffffffffffffffffffffffffffffffffffffffff16815260200191505060405180910390f35b34801561054957600080fd5b5061058c6004803603602081101561056057600080fd5b81019080803573ffffffffffffffffffffffffffffffffffffffff1690602001909291905050506122bc565b6040518082815260200191505060405180910390f35b6105ce600480360360208110156105b857600080fd5b81019080803590602001909291905050506122d4565b005b3480156105dc57600080fd5b506107f8600480360360c08110156105f357600080fd5b8101908080359060200190929190803573ffffffffffffffffffffffffffffffffffffffff1690602001909291908035906020019064010000000081111561063a57600080fd5b82018360208201111561064c57600080fd5b8035906020019184600183028401116401000000008311171561066e57600080fd5b91908080601f016020809104026020016040519081016040528093929190818152602001838380828437600081840152601f19601f820116905080830192505050505050509192919290803590602001906401000000008111156106d157600080fd5b8201836020820111156106e357600080fd5b8035906020019184600183028401116401000000008311171561070557600080fd5b91908080601f016020809104026020016040519081016040528093929190818152602001838380828437600081840152601f19601f8201169050808301925050505050505091929192908035906020019064010000000081111561076857600080fd5b82018360208201111561077a57600080fd5b8035906020019184600183028401116401000000008311171561079c57600080fd5b91908080601f016020809104026020016040519081016040528093929190818152602001838380828437600081840152601f19601f820116905080830192505050505050509192919290803590602001909291905050506126d6565b005b6108306004803603604081101561081057600080fd5b810190808035906020019092919080359060200190929190505050612cb5565b005b34801561083e57600080fd5b50610847613319565b604051808273ffffffffffffffffffffffffffffffffffffffff1673ffffffffffffffffffffffffffffffffffffffff16815260200191505060405180910390f35b34801561089557600080fd5b50610918600480360360608110156108ac57600080fd5b81019080803573ffffffffffffffffffffffffffffffffffffffff169060200190929190803573ffffffffffffffffffffffffffffffffffffffff169060200190929190803573ffffffffffffffffffffffffffffffffffffffff16906020019092919050505061333f565b005b34801561092657600080fd5b506109696004803603602081101561093d57600080fd5b81019080803573ffffffffffffffffffffffffffffffffffffffff1690602001909291905050506136b3565b005b60006098828154811061097a57fe5b90600052602060002090600d020190506000600381111561099757fe5b8160000160009054906101000a900460ff1660038111156109b457fe5b14610a0a576040517f08c379a00000000000000000000000000000000000000000000000000000000081526004018080602001828103825260338152602001806141536033913960400191505060405180910390fd5b600081600c0160003373ffffffffffffffffffffffffffffffffffffffff1673ffffffffffffffffffffffffffffffffffffffff1681526020019081526020016000206000015411610aa7576040517f08c379a000000000000000000000000000000000000000000000000000000000815260040180806020018281038252602a8152602001806141d5602a913960400191505060405180910390fd5b600081600c0160003373ffffffffffffffffffffffffffffffffffffffff1673ffffffffffffffffffffffffffffffffffffffff1681526020019081526020016000206000015490503373ffffffffffffffffffffffffffffffffffffffff166108fc829081150290604051600060405180830381858888f19350505050158015610b36573d6000803e3d6000fd5b50610b9282600c0160003373ffffffffffffffffffffffffffffffffffffffff1673ffffffffffffffffffffffffffffffffffffffff1681526020019081526020016000206000015483600601546138c390919063ffffffff16565b826006018190555081600c0160003373ffffffffffffffffffffffffffffffffffffffff1673ffffffffffffffffffffffffffffffffffffffff1681526020019081526020016000206000808201600090556001820160009055600282016000905550503373ffffffffffffffffffffffffffffffffffffffff16837fe2f02dc2168917563b46b1f788ea74861c381103710158efe9976c0bb3333677836040518082815260200191505060405180910390a3505050565b610c5261390d565b73ffffffffffffffffffffffffffffffffffffffff16606560009054906101000a900473ffffffffffffffffffffffffffffffffffffffff1673ffffffffffffffffffffffffffffffffffffffff1614610d14576040517f08c379a00000000000000000000000000000000000000000000000000000000081526004018080602001828103825260208152602001807f4f776e61626c653a2063616c6c6572206973206e6f7420746865206f776e657281525060200191505060405180910390fd5b80609a60006101000a81548173ffffffffffffffffffffffffffffffffffffffff021916908373ffffffffffffffffffffffffffffffffffffffff16021790555050565b610d6061390d565b73ffffffffffffffffffffffffffffffffffffffff16606560009054906101000a900473ffffffffffffffffffffffffffffffffffffffff1673ffffffffffffffffffffffffffffffffffffffff1614610e22576040517f08c379a00000000000000000000000000000000000000000000000000000000081526004018080602001828103825260208152602001807f4f776e61626c653a2063616c6c6572206973206e6f7420746865206f776e657281525060200191505060405180910390fd5b80609b60006101000a81548173ffffffffffffffffffffffffffffffffffffffff021916908373ffffffffffffffffffffffffffffffffffffffff16021790555050565b33609760008273ffffffffffffffffffffffffffffffffffffffff1673ffffffffffffffffffffffffffffffffffffffff16815260200190815260200160002060009054906101000a900460ff1615610f27576040517f08c379a00000000000000000000000000000000000000000000000000000000081526004018080602001828103825260158152602001807f5265656e7472616e63792070726f74656374696f6e000000000000000000000081525060200191505060405180910390fd5b6001609760008373ffffffffffffffffffffffffffffffffffffffff1673ffffffffffffffffffffffffffffffffffffffff16815260200190815260200160002060006101000a81548160ff021916908315150217905550600060988381548110610f8e57fe5b90600052602060002090600d0201905060026003811115610fab57fe5b8160000160009054906101000a900460ff166003811115610fc857fe5b1480610ffb575060016003811115610fdc57fe5b8160000160009054906101000a900460ff166003811115610ff957fe5b145b61106d576040517f08c379a00000000000000000000000000000000000000000000000000000000081526004018080602001828103825260128152602001807f506f6f6c206e6f7420636c61696d61626c65000000000000000000000000000081525060200191505060405180910390fd5b600081600c0160003373ffffffffffffffffffffffffffffffffffffffff1673ffffffffffffffffffffffffffffffffffffffff1681526020019081526020016000209050600061111682600201546111086801bc16d674ec8000006110fa86600001546110ec8960090154896000015461391590919063ffffffff16565b61399d90919063ffffffff16565b613a2390919063ffffffff16565b6138c390919063ffffffff16565b905060008111611171576040517f08c379a000000000000000000000000000000000000000000000000000000000815260040180806020018281038252602981526020018061409f6029913960400191505060405180910390fd5b61118881836002015461391590919063ffffffff16565b8260020181905550609a60009054906101000a900473ffffffffffffffffffffffffffffffffffffffff1673ffffffffffffffffffffffffffffffffffffffff1663a9059cbb33836040518363ffffffff1660e01b8152600401808373ffffffffffffffffffffffffffffffffffffffff1673ffffffffffffffffffffffffffffffffffffffff16815260200182815260200192505050602060405180830381600087803b15801561123957600080fd5b505af115801561124d573d6000803e3d6000fd5b505050506040513d602081101561126357600080fd5b810190808051906020019092919050505050847f94ce97481a923dda47dd9ce97063289021d38de9575c9411b55330a07e677c2f3383604051808373ffffffffffffffffffffffffffffffffffffffff1673ffffffffffffffffffffffffffffffffffffffff1681526020018281526020019250505060405180910390a25050506000609760008373ffffffffffffffffffffffffffffffffffffffff1673ffffffffffffffffffffffffffffffffffffffff16815260200190815260200160002060006101000a81548160ff0219169083151502179055505050565b6000609960003373ffffffffffffffffffffffffffffffffffffffff1673ffffffffffffffffffffffffffffffffffffffff16815260200190815260200160002054146113f5576040517f08c379a00000000000000000000000000000000000000000000000000000000081526004018080602001828103825260208152602001807f5573657220616c7265616479206861766520612070656e64696e6720706f6f6c81525060200191505060405180910390fd5b609b60009054906101000a900473ffffffffffffffffffffffffffffffffffffffff1673ffffffffffffffffffffffffffffffffffffffff166324bce60c33609c60009054906101000a900473ffffffffffffffffffffffffffffffffffffffff1673ffffffffffffffffffffffffffffffffffffffff16636c70b1e56040518163ffffffff1660e01b815260040160206040518083038186803b15801561149c57600080fd5b505afa1580156114b0573d6000803e3d6000fd5b505050506040513d60208110156114c657600080fd5b81019080805190602001909291905050506040518363ffffffff1660e01b8152600401808373ffffffffffffffffffffffffffffffffffffffff1673ffffffffffffffffffffffffffffffffffffffff16815260200182815260200192505050602060405180830381600087803b15801561154057600080fd5b505af1158015611554573d6000803e3d6000fd5b505050506040513d602081101561156a57600080fd5b810190808051906020019092919050505061158457600080fd5b61158c613fc0565b3381610160019073ffffffffffffffffffffffffffffffffffffffff16908173ffffffffffffffffffffffffffffffffffffffff1681525050818160200181815250504281604001818152505060988190806001815401808255809150506001900390600052602060002090600d020160009091909190915060008201518160000160006101000a81548160ff0219169083600381111561162957fe5b021790555060208201518160010155604082015181600201556060820151816003015560808201518160040160006101000a81548160ff02191690831515021790555060a0820151816005015560c0820151816006015560e082015181600701556101008201518160080155610120820151816009015561014082015181600a0160006101000a81548160ff021916908360ff16021790555061016082015181600a0160016101000a81548173ffffffffffffffffffffffffffffffffffffffff021916908373ffffffffffffffffffffffffffffffffffffffff16021790555061018082015181600b0160006101000a81548173ffffffffffffffffffffffffffffffffffffffff021916908373ffffffffffffffffffffffffffffffffffffffff1602179055505050600061176f60016098805490506138c390919063ffffffff16565b905080609960003373ffffffffffffffffffffffffffffffffffffffff1673ffffffffffffffffffffffffffffffffffffffff168152602001908152602001600020819055503373ffffffffffffffffffffffffffffffffffffffff16817f65fc0eb45954044fb55e1b01344d5d72fbfdf88e732d955f73bb7fb2bcc131e960405160405180910390a3505050565b609a60009054906101000a900473ffffffffffffffffffffffffffffffffffffffff1681565b61182c61390d565b73ffffffffffffffffffffffffffffffffffffffff16606560009054906101000a900473ffffffffffffffffffffffffffffffffffffffff1673ffffffffffffffffffffffffffffffffffffffff16146118ee576040517f08c379a00000000000000000000000000000000000000000000000000000000081526004018080602001828103825260208152602001807f4f776e61626c653a2063616c6c6572206973206e6f7420746865206f776e657281525060200191505060405180910390fd5b600073ffffffffffffffffffffffffffffffffffffffff16606560009054906101000a900473ffffffffffffffffffffffffffffffffffffffff1673ffffffffffffffffffffffffffffffffffffffff167f8be0079c531659141344cd1fd0a4f28419497f9722a3daafe3b4186f6b6457e060405160405180910390a36000606560006101000a81548173ffffffffffffffffffffffffffffffffffffffff021916908373ffffffffffffffffffffffffffffffffffffffff160217905550565b6119b761390d565b73ffffffffffffffffffffffffffffffffffffffff16606560009054906101000a900473ffffffffffffffffffffffffffffffffffffffff1673ffffffffffffffffffffffffffffffffffffffff1614611a79576040517f08c379a00000000000000000000000000000000000000000000000000000000081526004018080602001828103825260208152602001807f4f776e61626c653a2063616c6c6572206973206e6f7420746865206f776e657281525060200191505060405180910390fd5b80609c60006101000a81548173ffffffffffffffffffffffffffffffffffffffff021916908373ffffffffffffffffffffffffffffffffffffffff16021790555050565b6000806000806000806000806000611ad3613fc0565b60988b81548110611ae057fe5b90600052602060002090600d0201604051806101a00160405290816000820160009054906101000a900460ff166003811115611b1857fe5b6003811115611b2357fe5b81526020016001820154815260200160028201548152602001600382015481526020016004820160009054906101000a900460ff161515151581526020016005820154815260200160068201548152602001600782015481526020016008820154815260200160098201548152602001600a820160009054906101000a900460ff1660ff1660ff168152602001600a820160019054906101000a900473ffffffffffffffffffffffffffffffffffffffff1673ffffffffffffffffffffffffffffffffffffffff1673ffffffffffffffffffffffffffffffffffffffff168152602001600b820160009054906101000a900473ffffffffffffffffffffffffffffffffffffffff1673ffffffffffffffffffffffffffffffffffffffff1673ffffffffffffffffffffffffffffffffffffffff1681525050905080600001519950806040015198508060600151975080610100015196508060e0015195508060c0015193508061016001519250806101800151915080602001519450509193959799909294969850565b3373ffffffffffffffffffffffffffffffffffffffff166108fc479081150290604051600060405180830381858888f19350505050158015611cf3573d6000803e3d6000fd5b50565b611cfe61390d565b73ffffffffffffffffffffffffffffffffffffffff16606560009054906101000a900473ffffffffffffffffffffffffffffffffffffffff1673ffffffffffffffffffffffffffffffffffffffff1614611dc0576040517f08c379a00000000000000000000000000000000000000000000000000000000081526004018080602001828103825260208152602001807f4f776e61626c653a2063616c6c6572206973206e6f7420746865206f776e657281525060200191505060405180910390fd5b600060988581548110611dcf57fe5b90600052602060002090600d020190508060070154831015611e3c576040517f08c379a00000000000000000000000000000000000000000000000000000000081526004018080602001828103825260378152602001806140686037913960400191505060405180910390fd5b600081600a0160019054906101000a900473ffffffffffffffffffffffffffffffffffffffff1690508282600a0160016101000a81548173ffffffffffffffffffffffffffffffffffffffff021916908373ffffffffffffffffffffffffffffffffffffffff1602179055506000826007015485039050609c60009054906101000a900473ffffffffffffffffffffffffffffffffffffffff1673ffffffffffffffffffffffffffffffffffffffff16631aea175e6040518163ffffffff1660e01b815260040160206040518083038186803b158015611f1b57600080fd5b505afa158015611f2f573d6000803e3d6000fd5b505050506040513d6020811015611f4557600080fd5b8101908080519060200190929190505050811015611fae576040517f08c379a000000000000000000000000000000000000000000000000000000000815260040180806020018281038252602b8152602001806140ee602b913960400191505060405180910390fd5b6000611fde6801bc16d674ec800000611fd0848a61391590919063ffffffff16565b6138c390919063ffffffff16565b905060008460080154820390506000612001600a83613a2390919063ffffffff16565b9050808411156120d95760008185039050609b60009054906101000a900473ffffffffffffffffffffffffffffffffffffffff1673ffffffffffffffffffffffffffffffffffffffff16639a97826e87836040518363ffffffff1660e01b8152600401808373ffffffffffffffffffffffffffffffffffffffff1673ffffffffffffffffffffffffffffffffffffffff16815260200182815260200192505050600060405180830381600087803b1580156120bb57600080fd5b505af11580156120cf573d6000803e3d6000fd5b50505050506121ac565b808410156121ab5760008482039050609a60009054906101000a900473ffffffffffffffffffffffffffffffffffffffff1673ffffffffffffffffffffffffffffffffffffffff1663bf6edbd987836040518363ffffffff1660e01b8152600401808373ffffffffffffffffffffffffffffffffffffffff1673ffffffffffffffffffffffffffffffffffffffff16815260200182815260200192505050600060405180830381600087803b15801561219157600080fd5b505af11580156121a5573d6000803e3d6000fd5b50505050505b5b87866007018190555082866008018190555085600a01600081819054906101000a900460ff168092919060010191906101000a81548160ff021916908360ff160217905550508473ffffffffffffffffffffffffffffffffffffffff168773ffffffffffffffffffffffffffffffffffffffff168b7fd2aaa9b5627dc60d1cc98c6f61d18e41d63600362840eb68cd7a87cf50264b278b8d604051808381526020018281526020019250505060405180910390a450505050505050505050565b6000606560009054906101000a900473ffffffffffffffffffffffffffffffffffffffff16905090565b609c60009054906101000a900473ffffffffffffffffffffffffffffffffffffffff1681565b60996020528060005260406000206000915090505481565b6000609882815481106122e357fe5b90600052602060002090600d020190506000600381111561230057fe5b8160000160009054906101000a900460ff16600381111561231d57fe5b14612390576040517f08c379a00000000000000000000000000000000000000000000000000000000081526004018080602001828103825260198152602001807f63616e6e6f74207374616b6520746f207468697320706f6f6c0000000000000081525060200191505060405180910390fd5b6000349050609c60009054906101000a900473ffffffffffffffffffffffffffffffffffffffff1673ffffffffffffffffffffffffffffffffffffffff1663210113316040518163ffffffff1660e01b815260040160206040518083038186803b1580156123fd57600080fd5b505afa158015612411573d6000803e3d6000fd5b505050506040513d602081101561242757600080fd5b8101908080519060200190929190505050811015612490576040517f08c379a000000000000000000000000000000000000000000000000000000000815260040180806020018281038252603a815260200180614119603a913960400191505060405180910390fd5b6124a781836006015461391590919063ffffffff16565b82600601819055506801bc16d674ec8000008260060154106125ba5760018260000160006101000a81548160ff021916908360038111156124e457fe5b02179055506000609960003373ffffffffffffffffffffffffffffffffffffffff1673ffffffffffffffffffffffffffffffffffffffff1681526020019081526020016000208190555060006125506801bc16d674ec80000084600601546138c390919063ffffffff16565b905060008111156125b85761256e81836138c390919063ffffffff16565b91503373ffffffffffffffffffffffffffffffffffffffff166108fc829081150290604051600060405180830381858888f193505050501580156125b6573d6000803e3d6000fd5b505b505b600082600c0160003373ffffffffffffffffffffffffffffffffffffffff1673ffffffffffffffffffffffffffffffffffffffff168152602001908152602001600020905061261682826000015461391590919063ffffffff16565b81600001819055508083600c0160003373ffffffffffffffffffffffffffffffffffffffff1673ffffffffffffffffffffffffffffffffffffffff1681526020019081526020016000206000820154816000015560018201548160010155600282015481600201559050503373ffffffffffffffffffffffffffffffffffffffff16847fe2f02dc2168917563b46b1f788ea74861c381103710158efe9976c0bb3333677846040518082815260200191505060405180910390a350505050565b6126de61390d565b73ffffffffffffffffffffffffffffffffffffffff16606560009054906101000a900473ffffffffffffffffffffffffffffffffffffffff1673ffffffffffffffffffffffffffffffffffffffff16146127a0576040517f08c379a00000000000000000000000000000000000000000000000000000000081526004018080602001828103825260208152602001807f4f776e61626c653a2063616c6c6572206973206e6f7420746865206f776e657281525060200191505060405180910390fd5b6000609887815481106127af57fe5b90600052602060002090600d02019050600073ffffffffffffffffffffffffffffffffffffffff1681600b0160009054906101000a900473ffffffffffffffffffffffffffffffffffffffff1673ffffffffffffffffffffffffffffffffffffffff1614612885576040517f08c379a000000000000000000000000000000000000000000000000000000000815260040180806020018281038252601c8152602001807f506f6f6c20616c72656164792073657420612076616c696461746f720000000081525060200191505060405180910390fd5b6801bc16d674ec8000008160060154101580156128c95750600160038111156128aa57fe5b8160000160009054906101000a900460ff1660038111156128c757fe5b145b61293b576040517f08c379a00000000000000000000000000000000000000000000000000000000081526004018080602001828103825260108152602001807f4e6f7420656e6f7567682065746865720000000000000000000000000000000081525060200191505060405180910390fd5b600081600601549050600082600601819055508682600b0160006101000a81548173ffffffffffffffffffffffffffffffffffffffff021916908373ffffffffffffffffffffffffffffffffffffffff160217905550428260020181905550808260080181905550609a60009054906101000a900473ffffffffffffffffffffffffffffffffffffffff1673ffffffffffffffffffffffffffffffffffffffff166340c10f1930836040518363ffffffff1660e01b8152600401808373ffffffffffffffffffffffffffffffffffffffff1673ffffffffffffffffffffffffffffffffffffffff16815260200182815260200192505050600060405180830381600087803b158015612a4c57600080fd5b505af1158015612a60573d6000803e3d6000fd5b505050506000609960003373ffffffffffffffffffffffffffffffffffffffff1673ffffffffffffffffffffffffffffffffffffffff16815260200190815260200160002081905550609d60009054906101000a900473ffffffffffffffffffffffffffffffffffffffff1673ffffffffffffffffffffffffffffffffffffffff16632289511882888888886040518663ffffffff1660e01b815260040180806020018060200180602001858152602001848103845288818151815260200191508051906020019080838360005b83811015612b49578082015181840152602081019050612b2e565b50505050905090810190601f168015612b765780820380516001836020036101000a031916815260200191505b50848103835287818151815260200191508051906020019080838360005b83811015612baf578082015181840152602081019050612b94565b50505050905090810190601f168015612bdc5780820380516001836020036101000a031916815260200191505b50848103825286818151815260200191508051906020019080838360005b83811015612c15578082015181840152602081019050612bfa565b50505050905090810190601f168015612c425780820380516001836020036101000a031916815260200191505b509750505050505050506000604051808303818588803b158015612c6557600080fd5b505af1158015612c79573d6000803e3d6000fd5b5050505050877f50c441b2067f0c977dc653853b8d15fcdffdbc9525d66d422afe0b8975a8c89060405160405180910390a25050505050505050565b612cbd61390d565b73ffffffffffffffffffffffffffffffffffffffff16606560009054906101000a900473ffffffffffffffffffffffffffffffffffffffff1673ffffffffffffffffffffffffffffffffffffffff1614612d7f576040517f08c379a00000000000000000000000000000000000000000000000000000000081526004018080602001828103825260208152602001807f4f776e61626c653a2063616c6c6572206973206e6f7420746865206f776e657281525060200191505060405180910390fd5b600060988381548110612d8e57fe5b90600052602060002090600d0201905060016003811115612dab57fe5b8160000160009054906101000a900460ff166003811115612dc857fe5b14612e3b576040517f08c379a00000000000000000000000000000000000000000000000000000000081526004018080602001828103825260178152602001807f506f6f6c2063616e6e6f7420626520726577617264656400000000000000000081525060200191505060405180910390fd5b60028160000160006101000a81548160ff02191690836003811115612e5c57fe5b02179055508060070154821015612ebe576040517f08c379a00000000000000000000000000000000000000000000000000000000081526004018080602001828103825260378152602001806140686037913960400191505060405180910390fd5b60008160070154830390506000612efd6801bc16d674ec800000612eef84866008015461391590919063ffffffff16565b6138c390919063ffffffff16565b905060008360080154820390506000612f20600a83613a2390919063ffffffff16565b9050808411156130205760008185039050609b60009054906101000a900473ffffffffffffffffffffffffffffffffffffffff1673ffffffffffffffffffffffffffffffffffffffff16639a97826e87600a0160019054906101000a900473ffffffffffffffffffffffffffffffffffffffff16836040518363ffffffff1660e01b8152600401808373ffffffffffffffffffffffffffffffffffffffff1673ffffffffffffffffffffffffffffffffffffffff16815260200182815260200192505050600060405180830381600087803b158015612ffe57600080fd5b505af1158015613012573d6000803e3d6000fd5b505050506000915050613114565b80841015613113578381039050609a60009054906101000a900473ffffffffffffffffffffffffffffffffffffffff1673ffffffffffffffffffffffffffffffffffffffff1663bf6edbd986600a0160019054906101000a900473ffffffffffffffffffffffffffffffffffffffff16836040518363ffffffff1660e01b8152600401808373ffffffffffffffffffffffffffffffffffffffff1673ffffffffffffffffffffffffffffffffffffffff16815260200182815260200192505050600060405180830381600087803b1580156130fa57600080fd5b505af115801561310e573d6000803e3d6000fd5b505050505b5b85856007018190555082856008018190555060006131536064613145604d896008015461399d90919063ffffffff16565b613a2390919063ffffffff16565b905060006131826064613174600a8a6008015461399d90919063ffffffff16565b613a2390919063ffffffff16565b905060006131b160646131a360038b6008015461399d90919063ffffffff16565b613a2390919063ffffffff16565b9050828860090181905550609b60009054906101000a900473ffffffffffffffffffffffffffffffffffffffff1673ffffffffffffffffffffffffffffffffffffffff1663a9fb763c838c6040518363ffffffff1660e01b8152600401808281526020019150506000604051808303818588803b15801561323157600080fd5b505af1158015613245573d6000803e3d6000fd5b5050505050609a60009054906101000a900473ffffffffffffffffffffffffffffffffffffffff1673ffffffffffffffffffffffffffffffffffffffff16631e832ae8846040518263ffffffff1660e01b81526004016000604051808303818588803b1580156132b457600080fd5b505af11580156132c8573d6000803e3d6000fd5b5050505050897fb55ef8913ac5403aac0923cb950b902bc1304cbe29cc0a4620c38aacc2c0fed2348b604051808381526020018281526020019250505060405180910390a250505050505050505050565b609b60009054906101000a900473ffffffffffffffffffffffffffffffffffffffff1681565b600060019054906101000a900460ff168061335e575061335d613a6d565b5b8061337557506000809054906101000a900460ff16155b6133ca576040517f08c379a000000000000000000000000000000000000000000000000000000000815260040180806020018281038252602e8152602001806141a7602e913960400191505060405180910390fd5b60008060019054906101000a900460ff16159050801561341a576001600060016101000a81548160ff02191690831515021790555060016000806101000a81548160ff0219169083151502179055505b613422613a84565b83609a60006101000a81548173ffffffffffffffffffffffffffffffffffffffff021916908373ffffffffffffffffffffffffffffffffffffffff16021790555082609c60006101000a81548173ffffffffffffffffffffffffffffffffffffffff021916908373ffffffffffffffffffffffffffffffffffffffff1602179055506134ac613fc0565b6003816000019060038111156134be57fe5b908160038111156134cb57fe5b8152505060988190806001815401808255809150506001900390600052602060002090600d020160009091909190915060008201518160000160006101000a81548160ff0219169083600381111561351f57fe5b021790555060208201518160010155604082015181600201556060820151816003015560808201518160040160006101000a81548160ff02191690831515021790555060a0820151816005015560c0820151816006015560e082015181600701556101008201518160080155610120820151816009015561014082015181600a0160006101000a81548160ff021916908360ff16021790555061016082015181600a0160016101000a81548173ffffffffffffffffffffffffffffffffffffffff021916908373ffffffffffffffffffffffffffffffffffffffff16021790555061018082015181600b0160006101000a81548173ffffffffffffffffffffffffffffffffffffffff021916908373ffffffffffffffffffffffffffffffffffffffff160217905550505082609d60006101000a81548173ffffffffffffffffffffffffffffffffffffffff021916908373ffffffffffffffffffffffffffffffffffffffff1602179055505080156136ad5760008060016101000a81548160ff0219169083151502179055505b50505050565b6136bb61390d565b73ffffffffffffffffffffffffffffffffffffffff16606560009054906101000a900473ffffffffffffffffffffffffffffffffffffffff1673ffffffffffffffffffffffffffffffffffffffff161461377d576040517f08c379a00000000000000000000000000000000000000000000000000000000081526004018080602001828103825260208152602001807f4f776e61626c653a2063616c6c6572206973206e6f7420746865206f776e657281525060200191505060405180910390fd5b600073ffffffffffffffffffffffffffffffffffffffff168173ffffffffffffffffffffffffffffffffffffffff161415613803576040517f08c379a00000000000000000000000000000000000000000000000000000000081526004018080602001828103825260268152602001806140c86026913960400191505060405180910390fd5b8073ffffffffffffffffffffffffffffffffffffffff16606560009054906101000a900473ffffffffffffffffffffffffffffffffffffffff1673ffffffffffffffffffffffffffffffffffffffff167f8be0079c531659141344cd1fd0a4f28419497f9722a3daafe3b4186f6b6457e060405160405180910390a380606560006101000a81548173ffffffffffffffffffffffffffffffffffffffff021916908373ffffffffffffffffffffffffffffffffffffffff16021790555050565b600061390583836040518060400160405280601e81526020017f536166654d6174683a207375627472616374696f6e206f766572666c6f770000815250613b93565b905092915050565b600033905090565b600080828401905083811015613993576040517f08c379a000000000000000000000000000000000000000000000000000000000815260040180806020018281038252601b8152602001807f536166654d6174683a206164646974696f6e206f766572666c6f77000000000081525060200191505060405180910390fd5b8091505092915050565b6000808314156139b05760009050613a1d565b60008284029050828482816139c157fe5b0414613a18576040517f08c379a00000000000000000000000000000000000000000000000000000000081526004018080602001828103825260218152602001806141866021913960400191505060405180910390fd5b809150505b92915050565b6000613a6583836040518060400160405280601a81526020017f536166654d6174683a206469766973696f6e206279207a65726f000000000000815250613c53565b905092915050565b6000803090506000813b9050600081149250505090565b600060019054906101000a900460ff1680613aa35750613aa2613a6d565b5b80613aba57506000809054906101000a900460ff16155b613b0f576040517f08c379a000000000000000000000000000000000000000000000000000000000815260040180806020018281038252602e8152602001806141a7602e913960400191505060405180910390fd5b60008060019054906101000a900460ff161590508015613b5f576001600060016101000a81548160ff02191690831515021790555060016000806101000a81548160ff0219169083151502179055505b613b67613d19565b613b6f613e18565b8015613b905760008060016101000a81548160ff0219169083151502179055505b50565b6000838311158290613c40576040517f08c379a00000000000000000000000000000000000000000000000000000000081526004018080602001828103825283818151815260200191508051906020019080838360005b83811015613c05578082015181840152602081019050613bea565b50505050905090810190601f168015613c325780820380516001836020036101000a031916815260200191505b509250505060405180910390fd5b5060008385039050809150509392505050565b60008083118290613cff576040517f08c379a00000000000000000000000000000000000000000000000000000000081526004018080602001828103825283818151815260200191508051906020019080838360005b83811015613cc4578082015181840152602081019050613ca9565b50505050905090810190601f168015613cf15780820380516001836020036101000a031916815260200191505b509250505060405180910390fd5b506000838581613d0b57fe5b049050809150509392505050565b600060019054906101000a900460ff1680613d385750613d37613a6d565b5b80613d4f57506000809054906101000a900460ff16155b613da4576040517f08c379a000000000000000000000000000000000000000000000000000000000815260040180806020018281038252602e8152602001806141a7602e913960400191505060405180910390fd5b60008060019054906101000a900460ff161590508015613df4576001600060016101000a81548160ff02191690831515021790555060016000806101000a81548160ff0219169083151502179055505b8015613e155760008060016101000a81548160ff0219169083151502179055505b50565b600060019054906101000a900460ff1680613e375750613e36613a6d565b5b80613e4e57506000809054906101000a900460ff16155b613ea3576040517f08c379a000000000000000000000000000000000000000000000000000000000815260040180806020018281038252602e8152602001806141a7602e913960400191505060405180910390fd5b60008060019054906101000a900460ff161590508015613ef3576001600060016101000a81548160ff02191690831515021790555060016000806101000a81548160ff0219169083151502179055505b6000613efd61390d565b905080606560006101000a81548173ffffffffffffffffffffffffffffffffffffffff021916908373ffffffffffffffffffffffffffffffffffffffff1602179055508073ffffffffffffffffffffffffffffffffffffffff16600073ffffffffffffffffffffffffffffffffffffffff167f8be0079c531659141344cd1fd0a4f28419497f9722a3daafe3b4186f6b6457e060405160405180910390a3508015613fbd5760008060016101000a81548160ff0219169083151502179055505b50565b604051806101a0016040528060006003811115613fd957fe5b81526020016000801916815260200160008152602001600081526020016000151581526020016000815260200160008152602001600081526020016000815260200160008152602001600060ff168152602001600073ffffffffffffffffffffffffffffffffffffffff168152602001600073ffffffffffffffffffffffffffffffffffffffff168152509056fe43757272656e7420736c617368696e67732063616e6e6f7420626520736d616c6c6572207468616e206c61737420736c617368696e6773436c61696d61626c6520616d6f756e74206d75737420626520626967676572207468616e207a65726f4f776e61626c653a206e6577206f776e657220697320746865207a65726f2061646472657373536c617368696e6720616d6f756e74206c6f776572207468616e2073797374656d20706172616d65746572457468657265756d2076616c7565206d7573742062652067726561746572207468616e206d696e696d756d207374616b696e6720616d6f756e74596f752063616e206f6e6c792063616e63656c20796f7572207374616b652066726f6d20612070656e64696e6720706f6f6c2e536166654d6174683a206d756c7469706c69636174696f6e206f766572666c6f77436f6e747261637420696e7374616e63652068617320616c7265616479206265656e20696e697469616c697a6564596f7520646f6e27742068617665207374616b65642062616c616e636520696e207468697320706f6f6ca2646970667358221220b7ceb01d578f38d7549289ad731c4e72ba091fdfde578235663e170479c5208e64736f6c63430006080033",
  "immutableReferences": {},
  "source": "// SPDX-License-Identifier: UNLICENSED\npragma solidity ^0.6.8;\n\nimport \"@openzeppelin/contracts-ethereum-package/contracts/math/SafeMath.sol\";\nimport \"@openzeppelin/contracts-ethereum-package/contracts/access/Ownable.sol\";\nimport \"@openzeppelin/contracts-ethereum-package/contracts/token/ERC20/IERC20.sol\";\nimport \"./lib/interfaces/IDepositContract.sol\";\nimport \"./SystemParameters.sol\";\nimport \"./lib/Lockable.sol\";\nimport \"./lib/interfaces/IAETH.sol\";\n\ninterface IStaking {\n    function compensatePoolLoss(address provider, uint256 amount) external;\n\n    function freeze(address user, uint256 amount) external returns (bool);\n\n    function reward(uint256 poolIndex) payable external;\n}\n\ncontract MicroPool is OwnableUpgradeSafe, Lockable {\n    using SafeMath for uint256;\n\n    enum PoolStatus {Pending, OnGoing, Completed, Canceled}\n\n\n    // claimable amount = amount + reward - claimedAmount\n    struct PoolStake {\n        uint256 amount;\n        uint256 reward;\n        uint256 claimedAmount;\n    }\n\n    struct Migration {\n        address payable previousProvider;\n        address payable newProvider;\n        uint256 rewardForPreviousProvider;\n        bool rewardClaimed;\n    }\n\n    struct Pool {\n        PoolStatus status;\n        bytes32 name;\n        uint256 startTime; // init time\n        uint256 endTime; // canceled or completed time\n        bool claimable;\n        uint256 claimed; // total claimed balance\n        uint256 balance; // total amount of user stakes\n        uint256 lastSlashings; // current updated slashings\n        uint256 lastReward; // current updated reward\n        uint256 requesterRewards;\n        uint8 migrationCount;\n        address payable provider; // provider address\n        address payable validator; // validator address\n        //        address payable[] members; // pool members\n        mapping(address => PoolStake) stakes; // stakes of a pool members\n    }\n\n    Pool[] private _pools;\n    mapping(address => uint256) public pendingPools; // provider -> pool ID\n\n    IAETH public _aethContract;\n\n    IStaking public _stakingContract;\n\n    SystemParameters public _systemParameters;\n\n    address payable _beaconContract;\n\n    event PoolCreated(\n        uint256 indexed poolIndex,\n        address payable indexed provider\n    );\n\n    event PoolOnGoing(\n        uint256 indexed poolIndex\n    );\n\n    event PoolMigrated(\n        uint256 indexed poolIndex,\n        address payable indexed newProvider,\n        address payable indexed previousProvider,\n        uint256 slashings,\n        uint256 poolBalance\n    );\n\n    event UserStaked(\n        uint256 indexed poolIndex,\n        address indexed user,\n        uint256 stakeAmount\n    );\n\n    event UserUnstaked(\n        uint256 indexed poolIndex,\n        address indexed staker,\n        uint256 unstakeAmount\n    );\n\n    event PoolReward(\n        uint256 indexed poolIndex,\n        uint256 reward,\n        uint256 slashings\n    );\n\n    event AETHClaim(uint256 indexed poolIndex, address staker, uint256 amount);\n\n    function initialize(address payable aethContract, address systemParameters, address payable beaconContract) public initializer {\n        OwnableUpgradeSafe.__Ownable_init();\n\n        _aethContract = IAETH(aethContract);\n\n        _systemParameters = SystemParameters(systemParameters);\n\n        // this is for initialization\n        // to avoid index 0 pool\n        Pool memory pool;\n        pool.status = PoolStatus.Canceled;\n        _pools.push(pool);\n\n        _beaconContract = beaconContract;\n    }\n\n    function pushToBeacon(uint256 poolIndex,\n        address payable validator,\n        bytes memory pubkey,\n        bytes memory withdrawal_credentials,\n        bytes memory signature,\n        bytes32 deposit_data_root) public onlyOwner {\n        Pool storage pool = _pools[poolIndex];\n\n        require(pool.validator == address(0), \"Pool already set a validator\");\n        require(pool.balance >= 32 ether && pool.status == PoolStatus.OnGoing, \"Not enough ether\");\n        uint256 ethersToSend = pool.balance;\n\n        pool.balance = 0;\n        pool.validator = validator;\n        pool.startTime = block.timestamp;\n        pool.lastReward = ethersToSend;\n\n        _aethContract.mint(address(this), ethersToSend);\n\n        pendingPools[msg.sender] = 0;\n\n        IDepositContract(_beaconContract).deposit{value : ethersToSend}(pubkey, withdrawal_credentials, signature, deposit_data_root);\n        emit PoolOnGoing(poolIndex);\n    }\n\n    /**\n        Providers can call this function to create a new pool.\n    */\n    function initializePool(bytes32 name) external {\n        require(pendingPools[msg.sender] == 0, \"User already have a pending pool\");\n        // freeze staked ankr\n        require(_stakingContract.freeze(msg.sender, _systemParameters.PROVIDER_MINIMUM_STAKING()));\n\n        Pool memory pool;\n\n        pool.provider = msg.sender;\n        pool.name = name;\n        pool.startTime = block.timestamp;\n        _pools.push(pool);\n\n        uint256 index = _pools.length.sub(1);\n        pendingPools[msg.sender] = index;\n\n        emit PoolCreated(\n            index,\n            msg.sender\n        );\n    }\n\n    /**\n        Users can call to stake to given pool\n        @param poolIndex uint256\n    */\n    function stake(uint256 poolIndex) payable external {\n        Pool storage pool = _pools[poolIndex];\n\n        // Pool must be pending status to participate\n        require(pool.status == PoolStatus.Pending, \"cannot stake to this pool\");\n\n        uint256 stakeAmount = msg.value;\n\n        // value must be greater than minimum staking amount\n        require(stakeAmount >= _systemParameters.REQUESTER_MINIMUM_POOL_STAKING(), \"Ethereum value must be greater than minimum staking amount\");\n\n        pool.balance = pool.balance.add(stakeAmount);\n        if (pool.balance >= 32 ether) {\n\n            pool.status = PoolStatus.OnGoing;\n            pendingPools[msg.sender] = 0;\n\n            uint256 excessAmount = pool.balance.sub(32 ether);\n\n            if (excessAmount > 0) {\n                stakeAmount = stakeAmount.sub(excessAmount);\n                msg.sender.transfer(excessAmount);\n            }\n        }\n\n\n        PoolStake storage userStake = pool.stakes[msg.sender];\n\n        userStake.amount = userStake.amount.add(stakeAmount);\n        pool.stakes[msg.sender] = userStake;\n\n        emit UserStaked(poolIndex, msg.sender, stakeAmount);\n    }\n\n    function migrate(uint256 poolIndex, uint256 currentPoolBalance, uint256 currentSlashings, address payable newProvider) public onlyOwner {\n        Pool storage pool = _pools[poolIndex];\n\n        require(currentSlashings >= pool.lastSlashings, \"Current slashings cannot be smaller than last slashings\");\n\n        address payable oldProvider = pool.provider;\n\n        pool.provider = newProvider;\n\n        uint256 slash = currentSlashings - pool.lastSlashings;\n\n        require(slash >= _systemParameters.SLASHINGS_FOR_MIGRATION(), \"Slashing amount lower than system parameter\");\n\n        uint256 currentReward = currentPoolBalance.add(slash).sub(32 ether);\n\n        uint256 reward = currentReward - pool.lastReward;\n\n        uint256 providerReward = reward.div(10);\n\n        // TODO: what if staked ankr cannot compensate the loss ?\n        if (slash > providerReward) {\n            uint256 difference = slash - providerReward;\n\n            _stakingContract.compensatePoolLoss(oldProvider, difference);\n        } else if (slash < providerReward) {\n            // if provider has positive balance in reward\n            uint256 difference = providerReward - slash;\n            _aethContract.mintFrozen(oldProvider, difference);\n        }\n\n        pool.lastSlashings = currentSlashings;\n        pool.lastReward = currentReward;\n        pool.migrationCount++;\n\n        emit PoolMigrated(poolIndex, newProvider, oldProvider, currentSlashings, currentPoolBalance);\n    }\n\n    /**\n        Users can call to unstake from given pool\n        until pool start\n        @param poolIndex uint256\n    */\n    function unstake(uint256 poolIndex) external payable {\n        Pool storage pool = _pools[poolIndex];\n        // TODO: validations\n        require(\n            pool.status == PoolStatus.Pending,\n            \"You can only cancel your stake from a pending pool.\"\n        );\n        require(\n            pool.stakes[msg.sender].amount > 0,\n            \"You don't have staked balance in this pool\"\n        );\n        // require(\n        //     IAETH(_aethContract).burnFrom(\n        //         msg.sender,\n        //         pool.stakes[msg.sender].amount.div(2)\n        //     ),\n        //     \"You need to approve this contract first.\"\n        // );\n\n        uint256 unstakeAmount = pool.stakes[msg.sender].amount;\n\n        msg.sender.transfer(unstakeAmount);\n        pool.balance = pool.balance.sub(\n            pool.stakes[msg.sender].amount\n        );\n        delete pool.stakes[msg.sender];\n\n        emit UserStaked(poolIndex, msg.sender, unstakeAmount);\n    }\n\n    function rewardMicropool(uint256 poolIndex, uint256 slashings)\n    public\n    payable\n    onlyOwner {\n        Pool storage pool = _pools[poolIndex];\n        require(pool.status == PoolStatus.OnGoing, \"Pool cannot be rewarded\");\n\n        pool.status = PoolStatus.Completed;\n\n        require(slashings >= pool.lastSlashings, \"Current slashings cannot be smaller than last slashings\");\n\n        uint256 slash = slashings - pool.lastSlashings;\n\n        uint256 currentReward = pool.lastReward.add(slash).sub(32 ether);\n\n        uint256 reward = currentReward - pool.lastReward;\n\n        uint256 providerReward = reward.div(10);\n\n        // TODO: what if staked ankr cannot compensate the loss ?\n        if (slash > providerReward) {\n            uint256 difference = slash - providerReward;\n\n            _stakingContract.compensatePoolLoss(pool.provider, difference);\n            providerReward = 0;\n        } else if (slash < providerReward) {\n            // if provider has positive balance in reward\n            providerReward = providerReward - slash;\n            // mint aeth\n            _aethContract.mintFrozen(pool.provider, providerReward);\n        }\n\n        pool.lastSlashings = slashings;\n        pool.lastReward = currentReward;\n\n        // requesters\n        uint256 requesterRewards = pool.lastReward.mul(77).div(100);\n        uint256 stakingRewards = pool.lastReward.mul(10).div(100);\n        uint256 developerRewards = pool.lastReward.mul(3).div(100);\n\n        pool.requesterRewards = requesterRewards;\n\n        _stakingContract.reward{value: stakingRewards}(poolIndex);\n\n        // TODO: Developer rewards\n\n        _aethContract.mintPool{value: requesterRewards}();\n\n        emit PoolReward(poolIndex, msg.value, slashings);\n    }\n\n    function updateAETHContract(address payable tokenContract) external onlyOwner {\n        _aethContract = IAETH(tokenContract);\n    }\n\n    function updateParameterContract(address paramContract) external onlyOwner {\n        _systemParameters = SystemParameters(paramContract);\n    }\n\n    function updateStakingContract(address stakingContract) external onlyOwner {\n        _stakingContract = IStaking(stakingContract);\n    }\n\n    function claimAeth(uint256 poolIndex) unlocked(msg.sender) external {\n        Pool storage pool = _pools[poolIndex];\n\n        require(pool.status == PoolStatus.Completed || pool.status == PoolStatus.OnGoing, \"Pool not claimable\");\n\n        PoolStake storage poolStake = pool.stakes[msg.sender];\n\n        uint256 claimable = poolStake.amount.add(pool.requesterRewards).mul(poolStake.amount).div(32 ether).sub(poolStake.claimedAmount);\n\n        require(claimable > 0, \"Claimable amount must be bigger than zero\");\n\n        poolStake.claimedAmount = poolStake.claimedAmount.add(claimable);\n\n        _aethContract.transfer(msg.sender, claimable);\n\n        emit AETHClaim(poolIndex, msg.sender, claimable);\n    }\n\n    /**\n        Get pool details for given pool array index\n\n        @param poolIndex uint256\n    */\n    function poolDetails(uint256 poolIndex)\n    public\n    view\n    returns (\n        PoolStatus status,\n        uint256 startTime,\n        uint256 endTime,\n        uint256 lastReward,\n        uint256 lastSlashings,\n        bytes32 name,\n        uint256 balance,\n        address payable provider,\n        address payable validator\n    )\n        //address payable[] memory members\n    {\n        Pool memory pool = _pools[poolIndex];\n        status = pool.status;\n        startTime = pool.startTime;\n        endTime = pool.endTime;\n        lastReward = pool.lastReward;\n        lastSlashings = pool.lastSlashings;\n        balance = pool.balance;\n        provider = pool.provider;\n        validator = pool.validator;\n        name = pool.name;\n        //members = pool.members;\n    }\n\n    // TODO: Only for development\n    function getBack() public payable {\n        msg.sender.transfer(address(this).balance);\n    }\n}\n",
  "sourcePath": "/Users/anilkucukrecep/Code/Personal/st/contracts/contracts/MicroPool.sol",
  "compiler": {
    "name": "solc",
    "version": "0.6.8+commit.0bbfe453.Emscripten.clang"
  },
  "schemaVersion": "3.3.0",
  "updatedAt": "2020-10-16T22:35:43.209Z",
  "networkType": "ethereum",
  "devdoc": {
    "methods": {
      "owner()": {
        "details": "Returns the address of the current owner."
      },
      "poolDetails(uint256)": {
        "params": {
          "poolIndex": "uint256"
        }
      },
      "renounceOwnership()": {
        "details": "Leaves the contract without owner. It will not be possible to call `onlyOwner` functions anymore. Can only be called by the current owner.     * NOTE: Renouncing ownership will leave the contract without an owner, thereby removing any functionality that is only available to the owner."
      },
      "stake(uint256)": {
        "params": {
          "poolIndex": "uint256"
        }
      },
      "transferOwnership(address)": {
        "details": "Transfers ownership of the contract to a new account (`newOwner`). Can only be called by the current owner."
      },
      "unstake(uint256)": {
        "params": {
          "poolIndex": "uint256"
        }
      }
    }
  },
  "userdoc": {
    "methods": {
      "initializePool(bytes32)": {
        "notice": "Providers can call this function to create a new pool."
      },
      "poolDetails(uint256)": {
        "notice": "Get pool details for given pool array index"
      },
      "stake(uint256)": {
        "notice": "Users can call to stake to given pool"
      },
      "unstake(uint256)": {
        "notice": "Users can call to unstake from given pool until pool start"
      }
    }
  }
}