{
  "contractName": "MicroPool",
  "abi": [
    {
      "anonymous": false,
      "inputs": [
        {
          "indexed": true,
          "internalType": "uint256",
          "name": "poolIndex",
          "type": "uint256"
        },
        {
          "indexed": false,
          "internalType": "address",
          "name": "staker",
          "type": "address"
        },
        {
          "indexed": false,
          "internalType": "uint256",
          "name": "amount",
          "type": "uint256"
        }
      ],
      "name": "AETHClaim",
      "type": "event"
    },
    {
      "anonymous": false,
      "inputs": [
        {
          "indexed": true,
          "internalType": "address",
          "name": "previousOwner",
          "type": "address"
        },
        {
          "indexed": true,
          "internalType": "address",
          "name": "newOwner",
          "type": "address"
        }
      ],
      "name": "OwnershipTransferred",
      "type": "event"
    },
    {
      "anonymous": false,
      "inputs": [
        {
          "indexed": true,
          "internalType": "uint256",
          "name": "poolIndex",
          "type": "uint256"
        },
        {
          "indexed": true,
          "internalType": "address payable",
          "name": "provider",
          "type": "address"
        }
      ],
      "name": "PoolCreated",
      "type": "event"
    },
    {
      "anonymous": false,
      "inputs": [
        {
          "indexed": true,
          "internalType": "uint256",
          "name": "poolIndex",
          "type": "uint256"
        },
        {
          "indexed": true,
          "internalType": "address payable",
          "name": "newProvider",
          "type": "address"
        },
        {
          "indexed": true,
          "internalType": "address payable",
          "name": "previousProvider",
          "type": "address"
        },
        {
          "indexed": false,
          "internalType": "uint256",
          "name": "slashings",
          "type": "uint256"
        },
        {
          "indexed": false,
          "internalType": "uint256",
          "name": "poolBalance",
          "type": "uint256"
        }
      ],
      "name": "PoolMigrated",
      "type": "event"
    },
    {
      "anonymous": false,
      "inputs": [
        {
          "indexed": true,
          "internalType": "uint256",
          "name": "poolIndex",
          "type": "uint256"
        }
      ],
      "name": "PoolOnGoing",
      "type": "event"
    },
    {
      "anonymous": false,
      "inputs": [
        {
          "indexed": true,
          "internalType": "uint256",
          "name": "poolIndex",
          "type": "uint256"
        },
        {
          "indexed": false,
          "internalType": "uint256",
          "name": "reward",
          "type": "uint256"
        },
        {
          "indexed": false,
          "internalType": "uint256",
          "name": "slashings",
          "type": "uint256"
        }
      ],
      "name": "PoolReward",
      "type": "event"
    },
    {
      "anonymous": false,
      "inputs": [
        {
          "indexed": true,
          "internalType": "uint256",
          "name": "poolIndex",
          "type": "uint256"
        },
        {
          "indexed": true,
          "internalType": "address",
          "name": "user",
          "type": "address"
        },
        {
          "indexed": false,
          "internalType": "uint256",
          "name": "stakeAmount",
          "type": "uint256"
        }
      ],
      "name": "UserStaked",
      "type": "event"
    },
    {
      "anonymous": false,
      "inputs": [
        {
          "indexed": true,
          "internalType": "uint256",
          "name": "poolIndex",
          "type": "uint256"
        },
        {
          "indexed": true,
          "internalType": "address",
          "name": "staker",
          "type": "address"
        },
        {
          "indexed": false,
          "internalType": "uint256",
          "name": "unstakeAmount",
          "type": "uint256"
        }
      ],
      "name": "UserUnstaked",
      "type": "event"
    },
    {
      "inputs": [],
      "name": "_aethContract",
      "outputs": [
        {
          "internalType": "contract IAETH",
          "name": "",
          "type": "address"
        }
      ],
      "stateMutability": "view",
      "type": "function",
      "constant": true
    },
    {
      "inputs": [],
      "name": "_stakingContract",
      "outputs": [
        {
          "internalType": "contract IStaking",
          "name": "",
          "type": "address"
        }
      ],
      "stateMutability": "view",
      "type": "function",
      "constant": true
    },
    {
      "inputs": [],
      "name": "_systemParameters",
      "outputs": [
        {
          "internalType": "contract SystemParameters",
          "name": "",
          "type": "address"
        }
      ],
      "stateMutability": "view",
      "type": "function",
      "constant": true
    },
    {
      "inputs": [],
      "name": "owner",
      "outputs": [
        {
          "internalType": "address",
          "name": "",
          "type": "address"
        }
      ],
      "stateMutability": "view",
      "type": "function",
      "constant": true
    },
    {
      "inputs": [
        {
          "internalType": "address",
          "name": "",
          "type": "address"
        }
      ],
      "name": "pendingPools",
      "outputs": [
        {
          "internalType": "uint256",
          "name": "",
          "type": "uint256"
        }
      ],
      "stateMutability": "view",
      "type": "function",
      "constant": true
    },
    {
      "inputs": [],
      "name": "renounceOwnership",
      "outputs": [],
      "stateMutability": "nonpayable",
      "type": "function"
    },
    {
      "inputs": [
        {
          "internalType": "address",
          "name": "newOwner",
          "type": "address"
        }
      ],
      "name": "transferOwnership",
      "outputs": [],
      "stateMutability": "nonpayable",
      "type": "function"
    },
    {
      "inputs": [
        {
          "internalType": "address payable",
          "name": "aethContract",
          "type": "address"
        },
        {
          "internalType": "address",
          "name": "systemParameters",
          "type": "address"
        },
        {
          "internalType": "address payable",
          "name": "beaconContract",
          "type": "address"
        }
      ],
      "name": "initialize",
      "outputs": [],
      "stateMutability": "nonpayable",
      "type": "function"
    },
    {
      "inputs": [
        {
          "internalType": "uint256",
          "name": "poolIndex",
          "type": "uint256"
        },
        {
          "internalType": "bytes",
          "name": "pubkey",
          "type": "bytes"
        },
        {
          "internalType": "bytes",
          "name": "withdrawal_credentials",
          "type": "bytes"
        },
        {
          "internalType": "bytes",
          "name": "signature",
          "type": "bytes"
        },
        {
          "internalType": "bytes32",
          "name": "deposit_data_root",
          "type": "bytes32"
        }
      ],
      "name": "pushToBeacon",
      "outputs": [],
      "stateMutability": "nonpayable",
      "type": "function"
    },
    {
      "inputs": [
        {
          "internalType": "bytes32",
          "name": "name",
          "type": "bytes32"
        }
      ],
      "name": "initializePool",
      "outputs": [],
      "stateMutability": "nonpayable",
      "type": "function"
    },
    {
      "inputs": [
        {
          "internalType": "uint256",
          "name": "poolIndex",
          "type": "uint256"
        }
      ],
      "name": "stake",
      "outputs": [],
      "stateMutability": "payable",
      "type": "function",
      "payable": true
    },
    {
      "inputs": [
        {
          "internalType": "uint256",
          "name": "poolIndex",
          "type": "uint256"
        },
        {
          "internalType": "uint256",
          "name": "currentPoolBalance",
          "type": "uint256"
        },
        {
          "internalType": "uint256",
          "name": "currentSlashings",
          "type": "uint256"
        },
        {
          "internalType": "address payable",
          "name": "newProvider",
          "type": "address"
        }
      ],
      "name": "migrate",
      "outputs": [],
      "stateMutability": "nonpayable",
      "type": "function"
    },
    {
      "inputs": [
        {
          "internalType": "uint256",
          "name": "poolIndex",
          "type": "uint256"
        }
      ],
      "name": "unstake",
      "outputs": [],
      "stateMutability": "payable",
      "type": "function",
      "payable": true
    },
    {
      "inputs": [
        {
          "internalType": "uint256",
          "name": "poolIndex",
          "type": "uint256"
        },
        {
          "internalType": "uint256",
          "name": "slashings",
          "type": "uint256"
        }
      ],
      "name": "rewardMicropool",
      "outputs": [],
      "stateMutability": "payable",
      "type": "function",
      "payable": true
    },
    {
      "inputs": [
        {
          "internalType": "address payable",
          "name": "tokenContract",
          "type": "address"
        }
      ],
      "name": "updateAETHContract",
      "outputs": [],
      "stateMutability": "nonpayable",
      "type": "function"
    },
    {
      "inputs": [
        {
          "internalType": "address",
          "name": "paramContract",
          "type": "address"
        }
      ],
      "name": "updateParameterContract",
      "outputs": [],
      "stateMutability": "nonpayable",
      "type": "function"
    },
    {
      "inputs": [
        {
          "internalType": "address",
          "name": "stakingContract",
          "type": "address"
        }
      ],
      "name": "updateStakingContract",
      "outputs": [],
      "stateMutability": "nonpayable",
      "type": "function"
    },
    {
      "inputs": [
        {
          "internalType": "uint256",
          "name": "poolIndex",
          "type": "uint256"
        }
      ],
      "name": "claimAeth",
      "outputs": [],
      "stateMutability": "nonpayable",
      "type": "function"
    },
    {
      "inputs": [
        {
          "internalType": "uint256",
          "name": "poolIndex",
          "type": "uint256"
        }
      ],
      "name": "poolDetails",
      "outputs": [
        {
          "internalType": "enum MicroPool.PoolStatus",
          "name": "status",
          "type": "uint8"
        },
        {
          "internalType": "uint256",
          "name": "startTime",
          "type": "uint256"
        },
        {
          "internalType": "uint256",
          "name": "endTime",
          "type": "uint256"
        },
        {
          "internalType": "uint256",
          "name": "lastReward",
          "type": "uint256"
        },
        {
          "internalType": "uint256",
          "name": "lastSlashings",
          "type": "uint256"
        },
        {
          "internalType": "bytes32",
          "name": "name",
          "type": "bytes32"
        },
        {
          "internalType": "uint256",
          "name": "balance",
          "type": "uint256"
        },
        {
          "internalType": "address",
          "name": "validator",
          "type": "address"
        },
        {
          "internalType": "address payable",
          "name": "provider",
          "type": "address"
        }
      ],
      "stateMutability": "view",
      "type": "function",
      "constant": true
    },
    {
      "inputs": [],
      "name": "poolCount",
      "outputs": [
        {
          "internalType": "uint256",
          "name": "",
          "type": "uint256"
        }
      ],
      "stateMutability": "view",
      "type": "function",
      "constant": true
    },
    {
      "inputs": [
        {
          "internalType": "uint256",
          "name": "poolIndex",
          "type": "uint256"
        },
        {
          "internalType": "address",
          "name": "addr",
          "type": "address"
        }
      ],
      "name": "userStakeAmount",
      "outputs": [
        {
          "internalType": "uint256",
          "name": "",
          "type": "uint256"
        }
      ],
      "stateMutability": "view",
      "type": "function",
      "constant": true
    },
    {
      "inputs": [
        {
          "internalType": "address payable",
          "name": "depositContract",
          "type": "address"
        }
      ],
      "name": "changeDepositContract",
      "outputs": [],
      "stateMutability": "nonpayable",
      "type": "function"
    },
    {
      "inputs": [],
      "name": "getBack",
      "outputs": [],
      "stateMutability": "payable",
      "type": "function",
      "payable": true
    }
  ],
  "bytecode": "0x608060405234801561001057600080fd5b5061449c806100206000396000f3fe6080604052600436106101405760003560e01c80637eae1626116100b6578063acf0757d1161006f578063acf0757d146106b1578063b0de5e29146106e9578063b81e907814610740578063c0c53b8b1461094a578063f2fde38b146109db578063f525cb6814610a2c57610140565b80637eae1626146104f757806380da6341146105015780638da5cb5b1461057057806390c92989146105c7578063978be2441461061e578063a694fc3a1461068357610140565b8063511239f011610108578063511239f0146102a157806358cf086e146102dc578063668e5c6514610333578063715018a6146103a2578063754757cf146103b95780637a260b3f1461040a57610140565b80632e17de78146101455780632edabb71146101735780633347e4d6146101c45780634919ebda146102155780634d3af5a114610266575b600080fd5b6101716004803603602081101561015b57600080fd5b8101908080359060200190929190505050610a57565b005b34801561017f57600080fd5b506101c26004803603602081101561019657600080fd5b81019080803573ffffffffffffffffffffffffffffffffffffffff169060200190929190505050610d36565b005b3480156101d057600080fd5b50610213600480360360208110156101e757600080fd5b81019080803573ffffffffffffffffffffffffffffffffffffffff169060200190929190505050610e44565b005b34801561022157600080fd5b506102646004803603602081101561023857600080fd5b81019080803573ffffffffffffffffffffffffffffffffffffffff169060200190929190505050610f52565b005b34801561027257600080fd5b5061029f6004803603602081101561028957600080fd5b8101908080359060200190929190505050611060565b005b3480156102ad57600080fd5b506102da600480360360208110156102c457600080fd5b810190808035906020019092919050505061153a565b005b3480156102e857600080fd5b506102f16119f8565b604051808273ffffffffffffffffffffffffffffffffffffffff1673ffffffffffffffffffffffffffffffffffffffff16815260200191505060405180910390f35b34801561033f57600080fd5b5061038c6004803603604081101561035657600080fd5b8101908080359060200190929190803573ffffffffffffffffffffffffffffffffffffffff169060200190929190505050611a1e565b6040518082815260200191505060405180910390f35b3480156103ae57600080fd5b506103b7611a87565b005b3480156103c557600080fd5b50610408600480360360208110156103dc57600080fd5b81019080803573ffffffffffffffffffffffffffffffffffffffff169060200190929190505050611c12565b005b34801561041657600080fd5b506104436004803603602081101561042d57600080fd5b8101908080359060200190929190505050611d20565b604051808a600481111561045357fe5b60ff1681526020018981526020018881526020018781526020018681526020018581526020018481526020018373ffffffffffffffffffffffffffffffffffffffff1673ffffffffffffffffffffffffffffffffffffffff1681526020018273ffffffffffffffffffffffffffffffffffffffff1673ffffffffffffffffffffffffffffffffffffffff168152602001995050505050505050505060405180910390f35b6104ff611f10565b005b34801561050d57600080fd5b5061056e6004803603608081101561052457600080fd5b81019080803590602001909291908035906020019092919080359060200190929190803573ffffffffffffffffffffffffffffffffffffffff169060200190929190505050611f59565b005b34801561057c57600080fd5b506105856124cf565b604051808273ffffffffffffffffffffffffffffffffffffffff1673ffffffffffffffffffffffffffffffffffffffff16815260200191505060405180910390f35b3480156105d357600080fd5b506105dc6124f9565b604051808273ffffffffffffffffffffffffffffffffffffffff1673ffffffffffffffffffffffffffffffffffffffff16815260200191505060405180910390f35b34801561062a57600080fd5b5061066d6004803603602081101561064157600080fd5b81019080803573ffffffffffffffffffffffffffffffffffffffff16906020019092919050505061251f565b6040518082815260200191505060405180910390f35b6106af6004803603602081101561069957600080fd5b8101908080359060200190929190505050612537565b005b6106e7600480360360408110156106c757600080fd5b810190808035906020019092919080359060200190929190505050612958565b005b3480156106f557600080fd5b506106fe612fbc565b604051808273ffffffffffffffffffffffffffffffffffffffff1673ffffffffffffffffffffffffffffffffffffffff16815260200191505060405180910390f35b34801561074c57600080fd5b50610948600480360360a081101561076357600080fd5b81019080803590602001909291908035906020019064010000000081111561078a57600080fd5b82018360208201111561079c57600080fd5b803590602001918460018302840111640100000000831117156107be57600080fd5b91908080601f016020809104026020016040519081016040528093929190818152602001838380828437600081840152601f19601f8201169050808301925050505050505091929192908035906020019064010000000081111561082157600080fd5b82018360208201111561083357600080fd5b8035906020019184600183028401116401000000008311171561085557600080fd5b91908080601f016020809104026020016040519081016040528093929190818152602001838380828437600081840152601f19601f820116905080830192505050505050509192919290803590602001906401000000008111156108b857600080fd5b8201836020820111156108ca57600080fd5b803590602001918460018302840111640100000000831117156108ec57600080fd5b91908080601f016020809104026020016040519081016040528093929190818152602001838380828437600081840152601f19601f82011690508083019250505050505050919291929080359060200190929190505050612fe2565b005b34801561095657600080fd5b506109d96004803603606081101561096d57600080fd5b81019080803573ffffffffffffffffffffffffffffffffffffffff169060200190929190803573ffffffffffffffffffffffffffffffffffffffff169060200190929190803573ffffffffffffffffffffffffffffffffffffffff16906020019092919050505061359a565b005b3480156109e757600080fd5b50610a2a600480360360208110156109fe57600080fd5b81019080803573ffffffffffffffffffffffffffffffffffffffff16906020019092919050505061390e565b005b348015610a3857600080fd5b50610a41613b1e565b6040518082815260200191505060405180910390f35b600060988281548110610a6657fe5b90600052602060002090600d0201905060006004811115610a8357fe5b8160000160009054906101000a900460ff166004811115610aa057fe5b14610af6576040517f08c379a00000000000000000000000000000000000000000000000000000000081526004018080602001828103825260338152602001806143bb6033913960400191505060405180910390fd5b600081600c0160003373ffffffffffffffffffffffffffffffffffffffff1673ffffffffffffffffffffffffffffffffffffffff1681526020019081526020016000206000015411610b93576040517f08c379a000000000000000000000000000000000000000000000000000000000815260040180806020018281038252602a81526020018061443d602a913960400191505060405180910390fd5b600081600c0160003373ffffffffffffffffffffffffffffffffffffffff1673ffffffffffffffffffffffffffffffffffffffff1681526020019081526020016000206000015490503373ffffffffffffffffffffffffffffffffffffffff166108fc829081150290604051600060405180830381858888f19350505050158015610c22573d6000803e3d6000fd5b50610c7e82600c0160003373ffffffffffffffffffffffffffffffffffffffff1673ffffffffffffffffffffffffffffffffffffffff168152602001908152602001600020600001548360060154613b2b90919063ffffffff16565b826006018190555081600c0160003373ffffffffffffffffffffffffffffffffffffffff1673ffffffffffffffffffffffffffffffffffffffff1681526020019081526020016000206000808201600090556001820160009055600282016000905550503373ffffffffffffffffffffffffffffffffffffffff16837fe2f02dc2168917563b46b1f788ea74861c381103710158efe9976c0bb3333677836040518082815260200191505060405180910390a3505050565b610d3e613b75565b73ffffffffffffffffffffffffffffffffffffffff16606560009054906101000a900473ffffffffffffffffffffffffffffffffffffffff1673ffffffffffffffffffffffffffffffffffffffff1614610e00576040517f08c379a00000000000000000000000000000000000000000000000000000000081526004018080602001828103825260208152602001807f4f776e61626c653a2063616c6c6572206973206e6f7420746865206f776e657281525060200191505060405180910390fd5b80609a60006101000a81548173ffffffffffffffffffffffffffffffffffffffff021916908373ffffffffffffffffffffffffffffffffffffffff16021790555050565b610e4c613b75565b73ffffffffffffffffffffffffffffffffffffffff16606560009054906101000a900473ffffffffffffffffffffffffffffffffffffffff1673ffffffffffffffffffffffffffffffffffffffff1614610f0e576040517f08c379a00000000000000000000000000000000000000000000000000000000081526004018080602001828103825260208152602001807f4f776e61626c653a2063616c6c6572206973206e6f7420746865206f776e657281525060200191505060405180910390fd5b80609b60006101000a81548173ffffffffffffffffffffffffffffffffffffffff021916908373ffffffffffffffffffffffffffffffffffffffff16021790555050565b610f5a613b75565b73ffffffffffffffffffffffffffffffffffffffff16606560009054906101000a900473ffffffffffffffffffffffffffffffffffffffff1673ffffffffffffffffffffffffffffffffffffffff161461101c576040517f08c379a00000000000000000000000000000000000000000000000000000000081526004018080602001828103825260208152602001807f4f776e61626c653a2063616c6c6572206973206e6f7420746865206f776e657281525060200191505060405180910390fd5b80609d60006101000a81548173ffffffffffffffffffffffffffffffffffffffff021916908373ffffffffffffffffffffffffffffffffffffffff16021790555050565b33609760008273ffffffffffffffffffffffffffffffffffffffff1673ffffffffffffffffffffffffffffffffffffffff16815260200190815260200160002060009054906101000a900460ff1615611121576040517f08c379a00000000000000000000000000000000000000000000000000000000081526004018080602001828103825260158152602001807f5265656e7472616e63792070726f74656374696f6e000000000000000000000081525060200191505060405180910390fd5b6001609760008373ffffffffffffffffffffffffffffffffffffffff1673ffffffffffffffffffffffffffffffffffffffff16815260200190815260200160002060006101000a81548160ff02191690831515021790555060006098838154811061118857fe5b90600052602060002090600d02019050600360048111156111a557fe5b8160000160009054906101000a900460ff1660048111156111c257fe5b14806111f55750600260048111156111d657fe5b8160000160009054906101000a900460ff1660048111156111f357fe5b145b611267576040517f08c379a00000000000000000000000000000000000000000000000000000000081526004018080602001828103825260128152602001807f506f6f6c206e6f7420636c61696d61626c65000000000000000000000000000081525060200191505060405180910390fd5b600081600c0160003373ffffffffffffffffffffffffffffffffffffffff1673ffffffffffffffffffffffffffffffffffffffff1681526020019081526020016000209050600061131082600201546113026801bc16d674ec8000006112f486600001546112e689600901548960000154613b7d90919063ffffffff16565b613c0590919063ffffffff16565b613c8b90919063ffffffff16565b613b2b90919063ffffffff16565b90506000811161136b576040517f08c379a00000000000000000000000000000000000000000000000000000000081526004018080602001828103825260298152602001806143076029913960400191505060405180910390fd5b611382818360020154613b7d90919063ffffffff16565b8260020181905550609a60009054906101000a900473ffffffffffffffffffffffffffffffffffffffff1673ffffffffffffffffffffffffffffffffffffffff1663a9059cbb33836040518363ffffffff1660e01b8152600401808373ffffffffffffffffffffffffffffffffffffffff1673ffffffffffffffffffffffffffffffffffffffff16815260200182815260200192505050602060405180830381600087803b15801561143357600080fd5b505af1158015611447573d6000803e3d6000fd5b505050506040513d602081101561145d57600080fd5b810190808051906020019092919050505050847f94ce97481a923dda47dd9ce97063289021d38de9575c9411b55330a07e677c2f3383604051808373ffffffffffffffffffffffffffffffffffffffff1673ffffffffffffffffffffffffffffffffffffffff1681526020018281526020019250505060405180910390a25050506000609760008373ffffffffffffffffffffffffffffffffffffffff1673ffffffffffffffffffffffffffffffffffffffff16815260200190815260200160002060006101000a81548160ff0219169083151502179055505050565b6000609960003373ffffffffffffffffffffffffffffffffffffffff1673ffffffffffffffffffffffffffffffffffffffff16815260200190815260200160002054146115ef576040517f08c379a00000000000000000000000000000000000000000000000000000000081526004018080602001828103825260208152602001807f5573657220616c7265616479206861766520612070656e64696e6720706f6f6c81525060200191505060405180910390fd5b609b60009054906101000a900473ffffffffffffffffffffffffffffffffffffffff1673ffffffffffffffffffffffffffffffffffffffff166324bce60c33609c60009054906101000a900473ffffffffffffffffffffffffffffffffffffffff1673ffffffffffffffffffffffffffffffffffffffff16636c70b1e56040518163ffffffff1660e01b815260040160206040518083038186803b15801561169657600080fd5b505afa1580156116aa573d6000803e3d6000fd5b505050506040513d60208110156116c057600080fd5b81019080805190602001909291905050506040518363ffffffff1660e01b8152600401808373ffffffffffffffffffffffffffffffffffffffff1673ffffffffffffffffffffffffffffffffffffffff16815260200182815260200192505050602060405180830381600087803b15801561173a57600080fd5b505af115801561174e573d6000803e3d6000fd5b505050506040513d602081101561176457600080fd5b810190808051906020019092919050505061177e57600080fd5b611786614228565b3381610180019073ffffffffffffffffffffffffffffffffffffffff16908173ffffffffffffffffffffffffffffffffffffffff1681525050818160200181815250504281604001818152505060988190806001815401808255809150506001900390600052602060002090600d020160009091909190915060008201518160000160006101000a81548160ff0219169083600481111561182357fe5b021790555060208201518160010155604082015181600201556060820151816003015560808201518160040160006101000a81548160ff02191690831515021790555060a0820151816005015560c0820151816006015560e082015181600701556101008201518160080155610120820151816009015561014082015181600a0160006101000a81548160ff021916908360ff16021790555061016082015181600a0160016101000a81548173ffffffffffffffffffffffffffffffffffffffff021916908373ffffffffffffffffffffffffffffffffffffffff16021790555061018082015181600b0160006101000a81548173ffffffffffffffffffffffffffffffffffffffff021916908373ffffffffffffffffffffffffffffffffffffffff160217905550505060006119696001609880549050613b2b90919063ffffffff16565b905080609960003373ffffffffffffffffffffffffffffffffffffffff1673ffffffffffffffffffffffffffffffffffffffff168152602001908152602001600020819055503373ffffffffffffffffffffffffffffffffffffffff16817f65fc0eb45954044fb55e1b01344d5d72fbfdf88e732d955f73bb7fb2bcc131e960405160405180910390a3505050565b609a60009054906101000a900473ffffffffffffffffffffffffffffffffffffffff1681565b600060988381548110611a2d57fe5b90600052602060002090600d0201600c0160008373ffffffffffffffffffffffffffffffffffffffff1673ffffffffffffffffffffffffffffffffffffffff16815260200190815260200160002060000154905092915050565b611a8f613b75565b73ffffffffffffffffffffffffffffffffffffffff16606560009054906101000a900473ffffffffffffffffffffffffffffffffffffffff1673ffffffffffffffffffffffffffffffffffffffff1614611b51576040517f08c379a00000000000000000000000000000000000000000000000000000000081526004018080602001828103825260208152602001807f4f776e61626c653a2063616c6c6572206973206e6f7420746865206f776e657281525060200191505060405180910390fd5b600073ffffffffffffffffffffffffffffffffffffffff16606560009054906101000a900473ffffffffffffffffffffffffffffffffffffffff1673ffffffffffffffffffffffffffffffffffffffff167f8be0079c531659141344cd1fd0a4f28419497f9722a3daafe3b4186f6b6457e060405160405180910390a36000606560006101000a81548173ffffffffffffffffffffffffffffffffffffffff021916908373ffffffffffffffffffffffffffffffffffffffff160217905550565b611c1a613b75565b73ffffffffffffffffffffffffffffffffffffffff16606560009054906101000a900473ffffffffffffffffffffffffffffffffffffffff1673ffffffffffffffffffffffffffffffffffffffff1614611cdc576040517f08c379a00000000000000000000000000000000000000000000000000000000081526004018080602001828103825260208152602001807f4f776e61626c653a2063616c6c6572206973206e6f7420746865206f776e657281525060200191505060405180910390fd5b80609c60006101000a81548173ffffffffffffffffffffffffffffffffffffffff021916908373ffffffffffffffffffffffffffffffffffffffff16021790555050565b6000806000806000806000806000611d36614228565b60988b81548110611d4357fe5b90600052602060002090600d0201604051806101a00160405290816000820160009054906101000a900460ff166004811115611d7b57fe5b6004811115611d8657fe5b81526020016001820154815260200160028201548152602001600382015481526020016004820160009054906101000a900460ff161515151581526020016005820154815260200160068201548152602001600782015481526020016008820154815260200160098201548152602001600a820160009054906101000a900460ff1660ff1660ff168152602001600a820160019054906101000a900473ffffffffffffffffffffffffffffffffffffffff1673ffffffffffffffffffffffffffffffffffffffff1673ffffffffffffffffffffffffffffffffffffffff168152602001600b820160009054906101000a900473ffffffffffffffffffffffffffffffffffffffff1673ffffffffffffffffffffffffffffffffffffffff1673ffffffffffffffffffffffffffffffffffffffff1681525050905080600001519950806040015198508060600151975080610100015196508060e0015195508060c0015193508061018001519150806101600151925080602001519450509193959799909294969850565b3373ffffffffffffffffffffffffffffffffffffffff166108fc479081150290604051600060405180830381858888f19350505050158015611f56573d6000803e3d6000fd5b50565b611f61613b75565b73ffffffffffffffffffffffffffffffffffffffff16606560009054906101000a900473ffffffffffffffffffffffffffffffffffffffff1673ffffffffffffffffffffffffffffffffffffffff1614612023576040517f08c379a00000000000000000000000000000000000000000000000000000000081526004018080602001828103825260208152602001807f4f776e61626c653a2063616c6c6572206973206e6f7420746865206f776e657281525060200191505060405180910390fd5b60006098858154811061203257fe5b90600052602060002090600d02019050806007015483101561209f576040517f08c379a00000000000000000000000000000000000000000000000000000000081526004018080602001828103825260378152602001806142d06037913960400191505060405180910390fd5b600081600b0160009054906101000a900473ffffffffffffffffffffffffffffffffffffffff1690508282600b0160006101000a81548173ffffffffffffffffffffffffffffffffffffffff021916908373ffffffffffffffffffffffffffffffffffffffff1602179055506000826007015485039050609c60009054906101000a900473ffffffffffffffffffffffffffffffffffffffff1673ffffffffffffffffffffffffffffffffffffffff16631aea175e6040518163ffffffff1660e01b815260040160206040518083038186803b15801561217e57600080fd5b505afa158015612192573d6000803e3d6000fd5b505050506040513d60208110156121a857600080fd5b8101908080519060200190929190505050811015612211576040517f08c379a000000000000000000000000000000000000000000000000000000000815260040180806020018281038252602b815260200180614356602b913960400191505060405180910390fd5b60006122416801bc16d674ec800000612233848a613b7d90919063ffffffff16565b613b2b90919063ffffffff16565b905060008460080154820390506000612264600a83613c8b90919063ffffffff16565b90508084111561233c5760008185039050609b60009054906101000a900473ffffffffffffffffffffffffffffffffffffffff1673ffffffffffffffffffffffffffffffffffffffff16639a97826e87836040518363ffffffff1660e01b8152600401808373ffffffffffffffffffffffffffffffffffffffff1673ffffffffffffffffffffffffffffffffffffffff16815260200182815260200192505050600060405180830381600087803b15801561231e57600080fd5b505af1158015612332573d6000803e3d6000fd5b505050505061240f565b8084101561240e5760008482039050609a60009054906101000a900473ffffffffffffffffffffffffffffffffffffffff1673ffffffffffffffffffffffffffffffffffffffff1663bf6edbd987836040518363ffffffff1660e01b8152600401808373ffffffffffffffffffffffffffffffffffffffff1673ffffffffffffffffffffffffffffffffffffffff16815260200182815260200192505050600060405180830381600087803b1580156123f457600080fd5b505af1158015612408573d6000803e3d6000fd5b50505050505b5b87866007018190555082866008018190555085600a01600081819054906101000a900460ff168092919060010191906101000a81548160ff021916908360ff160217905550508473ffffffffffffffffffffffffffffffffffffffff168773ffffffffffffffffffffffffffffffffffffffff168b7fd2aaa9b5627dc60d1cc98c6f61d18e41d63600362840eb68cd7a87cf50264b278b8d604051808381526020018281526020019250505060405180910390a450505050505050505050565b6000606560009054906101000a900473ffffffffffffffffffffffffffffffffffffffff16905090565b609c60009054906101000a900473ffffffffffffffffffffffffffffffffffffffff1681565b60996020528060005260406000206000915090505481565b60006098828154811061254657fe5b90600052602060002090600d020190506000600481111561256357fe5b8160000160009054906101000a900460ff16600481111561258057fe5b146125f3576040517f08c379a00000000000000000000000000000000000000000000000000000000081526004018080602001828103825260198152602001807f43616e6e6f74207374616b6520746f207468697320706f6f6c0000000000000081525060200191505060405180910390fd5b6000349050609c60009054906101000a900473ffffffffffffffffffffffffffffffffffffffff1673ffffffffffffffffffffffffffffffffffffffff1663210113316040518163ffffffff1660e01b815260040160206040518083038186803b15801561266057600080fd5b505afa158015612674573d6000803e3d6000fd5b505050506040513d602081101561268a57600080fd5b81019080805190602001909291905050508110156126f3576040517f08c379a000000000000000000000000000000000000000000000000000000000815260040180806020018281038252603a815260200180614381603a913960400191505060405180910390fd5b61270a818360060154613b7d90919063ffffffff16565b82600601819055506801bc16d674ec80000082600601541061283c5760018260000160006101000a81548160ff0219169083600481111561274757fe5b02179055506000609960003373ffffffffffffffffffffffffffffffffffffffff1673ffffffffffffffffffffffffffffffffffffffff1681526020019081526020016000208190555060006127b36801bc16d674ec8000008460060154613b2b90919063ffffffff16565b9050600081111561283a576127d18183613b2b90919063ffffffff16565b91506127ea818460060154613b2b90919063ffffffff16565b83600601819055503373ffffffffffffffffffffffffffffffffffffffff166108fc829081150290604051600060405180830381858888f19350505050158015612838573d6000803e3d6000fd5b505b505b600082600c0160003373ffffffffffffffffffffffffffffffffffffffff1673ffffffffffffffffffffffffffffffffffffffff1681526020019081526020016000209050612898828260000154613b7d90919063ffffffff16565b81600001819055508083600c0160003373ffffffffffffffffffffffffffffffffffffffff1673ffffffffffffffffffffffffffffffffffffffff1681526020019081526020016000206000820154816000015560018201548160010155600282015481600201559050503373ffffffffffffffffffffffffffffffffffffffff16847fe2f02dc2168917563b46b1f788ea74861c381103710158efe9976c0bb3333677846040518082815260200191505060405180910390a350505050565b612960613b75565b73ffffffffffffffffffffffffffffffffffffffff16606560009054906101000a900473ffffffffffffffffffffffffffffffffffffffff1673ffffffffffffffffffffffffffffffffffffffff1614612a22576040517f08c379a00000000000000000000000000000000000000000000000000000000081526004018080602001828103825260208152602001807f4f776e61626c653a2063616c6c6572206973206e6f7420746865206f776e657281525060200191505060405180910390fd5b600060988381548110612a3157fe5b90600052602060002090600d0201905060026004811115612a4e57fe5b8160000160009054906101000a900460ff166004811115612a6b57fe5b14612ade576040517f08c379a00000000000000000000000000000000000000000000000000000000081526004018080602001828103825260178152602001807f506f6f6c2063616e6e6f7420626520726577617264656400000000000000000081525060200191505060405180910390fd5b60038160000160006101000a81548160ff02191690836004811115612aff57fe5b02179055508060070154821015612b61576040517f08c379a00000000000000000000000000000000000000000000000000000000081526004018080602001828103825260378152602001806142d06037913960400191505060405180910390fd5b60008160070154830390506000612ba06801bc16d674ec800000612b92848660080154613b7d90919063ffffffff16565b613b2b90919063ffffffff16565b905060008360080154820390506000612bc3600a83613c8b90919063ffffffff16565b905080841115612cc35760008185039050609b60009054906101000a900473ffffffffffffffffffffffffffffffffffffffff1673ffffffffffffffffffffffffffffffffffffffff16639a97826e87600b0160009054906101000a900473ffffffffffffffffffffffffffffffffffffffff16836040518363ffffffff1660e01b8152600401808373ffffffffffffffffffffffffffffffffffffffff1673ffffffffffffffffffffffffffffffffffffffff16815260200182815260200192505050600060405180830381600087803b158015612ca157600080fd5b505af1158015612cb5573d6000803e3d6000fd5b505050506000915050612db7565b80841015612db6578381039050609a60009054906101000a900473ffffffffffffffffffffffffffffffffffffffff1673ffffffffffffffffffffffffffffffffffffffff1663bf6edbd986600b0160009054906101000a900473ffffffffffffffffffffffffffffffffffffffff16836040518363ffffffff1660e01b8152600401808373ffffffffffffffffffffffffffffffffffffffff1673ffffffffffffffffffffffffffffffffffffffff16815260200182815260200192505050600060405180830381600087803b158015612d9d57600080fd5b505af1158015612db1573d6000803e3d6000fd5b505050505b5b8585600701819055508285600801819055506000612df66064612de8604d8960080154613c0590919063ffffffff16565b613c8b90919063ffffffff16565b90506000612e256064612e17600a8a60080154613c0590919063ffffffff16565b613c8b90919063ffffffff16565b90506000612e546064612e4660038b60080154613c0590919063ffffffff16565b613c8b90919063ffffffff16565b9050828860090181905550609b60009054906101000a900473ffffffffffffffffffffffffffffffffffffffff1673ffffffffffffffffffffffffffffffffffffffff1663a9fb763c838c6040518363ffffffff1660e01b8152600401808281526020019150506000604051808303818588803b158015612ed457600080fd5b505af1158015612ee8573d6000803e3d6000fd5b5050505050609a60009054906101000a900473ffffffffffffffffffffffffffffffffffffffff1673ffffffffffffffffffffffffffffffffffffffff16631e832ae8846040518263ffffffff1660e01b81526004016000604051808303818588803b158015612f5757600080fd5b505af1158015612f6b573d6000803e3d6000fd5b5050505050897fb55ef8913ac5403aac0923cb950b902bc1304cbe29cc0a4620c38aacc2c0fed2348b604051808381526020018281526020019250505060405180910390a250505050505050505050565b609b60009054906101000a900473ffffffffffffffffffffffffffffffffffffffff1681565b612fea613b75565b73ffffffffffffffffffffffffffffffffffffffff16606560009054906101000a900473ffffffffffffffffffffffffffffffffffffffff1673ffffffffffffffffffffffffffffffffffffffff16146130ac576040517f08c379a00000000000000000000000000000000000000000000000000000000081526004018080602001828103825260208152602001807f4f776e61626c653a2063616c6c6572206973206e6f7420746865206f776e657281525060200191505060405180910390fd5b6000609886815481106130bb57fe5b90600052602060002090600d02019050600160048111156130d857fe5b8160000160009054906101000a900460ff1660048111156130f557fe5b14613168576040517f08c379a000000000000000000000000000000000000000000000000000000000815260040180806020018281038252601d8152602001807f506f6f6c20737461747573206e6f7420616c6c6f7720746f207075736800000081525060200191505060405180910390fd5b6801bc16d674ec800000816006015410156131eb576040517f08c379a00000000000000000000000000000000000000000000000000000000081526004018080602001828103825260108152602001807f4e6f7420656e6f7567682065746865720000000000000000000000000000000081525060200191505060405180910390fd5b60028160000160006101000a81548160ff0219169083600481111561320c57fe5b02179055506000858051906020012060601c9050600082600601549050600083600601819055508183600a0160016101000a81548173ffffffffffffffffffffffffffffffffffffffff021916908373ffffffffffffffffffffffffffffffffffffffff160217905550428360020181905550808360080181905550609a60009054906101000a900473ffffffffffffffffffffffffffffffffffffffff1673ffffffffffffffffffffffffffffffffffffffff166340c10f1930836040518363ffffffff1660e01b8152600401808373ffffffffffffffffffffffffffffffffffffffff1673ffffffffffffffffffffffffffffffffffffffff16815260200182815260200192505050600060405180830381600087803b15801561333157600080fd5b505af1158015613345573d6000803e3d6000fd5b505050506000609960003373ffffffffffffffffffffffffffffffffffffffff1673ffffffffffffffffffffffffffffffffffffffff16815260200190815260200160002081905550609d60009054906101000a900473ffffffffffffffffffffffffffffffffffffffff1673ffffffffffffffffffffffffffffffffffffffff16632289511882898989896040518663ffffffff1660e01b815260040180806020018060200180602001858152602001848103845288818151815260200191508051906020019080838360005b8381101561342e578082015181840152602081019050613413565b50505050905090810190601f16801561345b5780820380516001836020036101000a031916815260200191505b50848103835287818151815260200191508051906020019080838360005b83811015613494578082015181840152602081019050613479565b50505050905090810190601f1680156134c15780820380516001836020036101000a031916815260200191505b50848103825286818151815260200191508051906020019080838360005b838110156134fa5780820151818401526020810190506134df565b50505050905090810190601f1680156135275780820380516001836020036101000a031916815260200191505b509750505050505050506000604051808303818588803b15801561354a57600080fd5b505af115801561355e573d6000803e3d6000fd5b5050505050877f50c441b2067f0c977dc653853b8d15fcdffdbc9525d66d422afe0b8975a8c89060405160405180910390a25050505050505050565b600060019054906101000a900460ff16806135b957506135b8613cd5565b5b806135d057506000809054906101000a900460ff16155b613625576040517f08c379a000000000000000000000000000000000000000000000000000000000815260040180806020018281038252602e81526020018061440f602e913960400191505060405180910390fd5b60008060019054906101000a900460ff161590508015613675576001600060016101000a81548160ff02191690831515021790555060016000806101000a81548160ff0219169083151502179055505b61367d613cec565b83609a60006101000a81548173ffffffffffffffffffffffffffffffffffffffff021916908373ffffffffffffffffffffffffffffffffffffffff16021790555082609c60006101000a81548173ffffffffffffffffffffffffffffffffffffffff021916908373ffffffffffffffffffffffffffffffffffffffff160217905550613707614228565b60048160000190600481111561371957fe5b9081600481111561372657fe5b8152505060988190806001815401808255809150506001900390600052602060002090600d020160009091909190915060008201518160000160006101000a81548160ff0219169083600481111561377a57fe5b021790555060208201518160010155604082015181600201556060820151816003015560808201518160040160006101000a81548160ff02191690831515021790555060a0820151816005015560c0820151816006015560e082015181600701556101008201518160080155610120820151816009015561014082015181600a0160006101000a81548160ff021916908360ff16021790555061016082015181600a0160016101000a81548173ffffffffffffffffffffffffffffffffffffffff021916908373ffffffffffffffffffffffffffffffffffffffff16021790555061018082015181600b0160006101000a81548173ffffffffffffffffffffffffffffffffffffffff021916908373ffffffffffffffffffffffffffffffffffffffff160217905550505082609d60006101000a81548173ffffffffffffffffffffffffffffffffffffffff021916908373ffffffffffffffffffffffffffffffffffffffff1602179055505080156139085760008060016101000a81548160ff0219169083151502179055505b50505050565b613916613b75565b73ffffffffffffffffffffffffffffffffffffffff16606560009054906101000a900473ffffffffffffffffffffffffffffffffffffffff1673ffffffffffffffffffffffffffffffffffffffff16146139d8576040517f08c379a00000000000000000000000000000000000000000000000000000000081526004018080602001828103825260208152602001807f4f776e61626c653a2063616c6c6572206973206e6f7420746865206f776e657281525060200191505060405180910390fd5b600073ffffffffffffffffffffffffffffffffffffffff168173ffffffffffffffffffffffffffffffffffffffff161415613a5e576040517f08c379a00000000000000000000000000000000000000000000000000000000081526004018080602001828103825260268152602001806143306026913960400191505060405180910390fd5b8073ffffffffffffffffffffffffffffffffffffffff16606560009054906101000a900473ffffffffffffffffffffffffffffffffffffffff1673ffffffffffffffffffffffffffffffffffffffff167f8be0079c531659141344cd1fd0a4f28419497f9722a3daafe3b4186f6b6457e060405160405180910390a380606560006101000a81548173ffffffffffffffffffffffffffffffffffffffff021916908373ffffffffffffffffffffffffffffffffffffffff16021790555050565b6000609880549050905090565b6000613b6d83836040518060400160405280601e81526020017f536166654d6174683a207375627472616374696f6e206f766572666c6f770000815250613dfb565b905092915050565b600033905090565b600080828401905083811015613bfb576040517f08c379a000000000000000000000000000000000000000000000000000000000815260040180806020018281038252601b8152602001807f536166654d6174683a206164646974696f6e206f766572666c6f77000000000081525060200191505060405180910390fd5b8091505092915050565b600080831415613c185760009050613c85565b6000828402905082848281613c2957fe5b0414613c80576040517f08c379a00000000000000000000000000000000000000000000000000000000081526004018080602001828103825260218152602001806143ee6021913960400191505060405180910390fd5b809150505b92915050565b6000613ccd83836040518060400160405280601a81526020017f536166654d6174683a206469766973696f6e206279207a65726f000000000000815250613ebb565b905092915050565b6000803090506000813b9050600081149250505090565b600060019054906101000a900460ff1680613d0b5750613d0a613cd5565b5b80613d2257506000809054906101000a900460ff16155b613d77576040517f08c379a000000000000000000000000000000000000000000000000000000000815260040180806020018281038252602e81526020018061440f602e913960400191505060405180910390fd5b60008060019054906101000a900460ff161590508015613dc7576001600060016101000a81548160ff02191690831515021790555060016000806101000a81548160ff0219169083151502179055505b613dcf613f81565b613dd7614080565b8015613df85760008060016101000a81548160ff0219169083151502179055505b50565b6000838311158290613ea8576040517f08c379a00000000000000000000000000000000000000000000000000000000081526004018080602001828103825283818151815260200191508051906020019080838360005b83811015613e6d578082015181840152602081019050613e52565b50505050905090810190601f168015613e9a5780820380516001836020036101000a031916815260200191505b509250505060405180910390fd5b5060008385039050809150509392505050565b60008083118290613f67576040517f08c379a00000000000000000000000000000000000000000000000000000000081526004018080602001828103825283818151815260200191508051906020019080838360005b83811015613f2c578082015181840152602081019050613f11565b50505050905090810190601f168015613f595780820380516001836020036101000a031916815260200191505b509250505060405180910390fd5b506000838581613f7357fe5b049050809150509392505050565b600060019054906101000a900460ff1680613fa05750613f9f613cd5565b5b80613fb757506000809054906101000a900460ff16155b61400c576040517f08c379a000000000000000000000000000000000000000000000000000000000815260040180806020018281038252602e81526020018061440f602e913960400191505060405180910390fd5b60008060019054906101000a900460ff16159050801561405c576001600060016101000a81548160ff02191690831515021790555060016000806101000a81548160ff0219169083151502179055505b801561407d5760008060016101000a81548160ff0219169083151502179055505b50565b600060019054906101000a900460ff168061409f575061409e613cd5565b5b806140b657506000809054906101000a900460ff16155b61410b576040517f08c379a000000000000000000000000000000000000000000000000000000000815260040180806020018281038252602e81526020018061440f602e913960400191505060405180910390fd5b60008060019054906101000a900460ff16159050801561415b576001600060016101000a81548160ff02191690831515021790555060016000806101000a81548160ff0219169083151502179055505b6000614165613b75565b905080606560006101000a81548173ffffffffffffffffffffffffffffffffffffffff021916908373ffffffffffffffffffffffffffffffffffffffff1602179055508073ffffffffffffffffffffffffffffffffffffffff16600073ffffffffffffffffffffffffffffffffffffffff167f8be0079c531659141344cd1fd0a4f28419497f9722a3daafe3b4186f6b6457e060405160405180910390a35080156142255760008060016101000a81548160ff0219169083151502179055505b50565b604051806101a001604052806000600481111561424157fe5b81526020016000801916815260200160008152602001600081526020016000151581526020016000815260200160008152602001600081526020016000815260200160008152602001600060ff168152602001600073ffffffffffffffffffffffffffffffffffffffff168152602001600073ffffffffffffffffffffffffffffffffffffffff168152509056fe43757272656e7420736c617368696e67732063616e6e6f7420626520736d616c6c6572207468616e206c61737420736c617368696e6773436c61696d61626c6520616d6f756e74206d75737420626520626967676572207468616e207a65726f4f776e61626c653a206e6577206f776e657220697320746865207a65726f2061646472657373536c617368696e6720616d6f756e74206c6f776572207468616e2073797374656d20706172616d65746572457468657265756d2076616c7565206d7573742062652067726561746572207468616e206d696e696d756d207374616b696e6720616d6f756e74596f752063616e206f6e6c792063616e63656c20796f7572207374616b652066726f6d20612070656e64696e6720706f6f6c2e536166654d6174683a206d756c7469706c69636174696f6e206f766572666c6f77436f6e747261637420696e7374616e63652068617320616c7265616479206265656e20696e697469616c697a6564596f7520646f6e27742068617665207374616b65642062616c616e636520696e207468697320706f6f6ca26469706673582212208e777cab8d449403bc4720d98310fcfabc0defe6d8f442104eb2502350a7846064736f6c63430006080033",
  "immutableReferences": {},
  "source": "// SPDX-License-Identifier: UNLICENSED\npragma solidity ^0.6.8;\n\nimport \"@openzeppelin/contracts-ethereum-package/contracts/math/SafeMath.sol\";\nimport \"@openzeppelin/contracts-ethereum-package/contracts/access/Ownable.sol\";\nimport \"@openzeppelin/contracts-ethereum-package/contracts/token/ERC20/IERC20.sol\";\nimport \"./lib/interfaces/IDepositContract.sol\";\nimport \"./SystemParameters.sol\";\nimport \"./lib/Lockable.sol\";\nimport \"./lib/interfaces/IAETH.sol\";\n\ninterface IStaking {\n    function compensatePoolLoss(address provider, uint256 amount) external;\n\n    function freeze(address user, uint256 amount) external returns (bool);\n\n    function reward(uint256 poolIndex) payable external;\n}\n\ncontract MicroPool is OwnableUpgradeSafe, Lockable {\n    using SafeMath for uint256;\n\n    enum PoolStatus {Pending, PushWaiting, OnGoing, Completed, Canceled}\n\n\n    // claimable amount = amount + reward - claimedAmount\n    struct PoolStake {\n        uint256 amount;\n        uint256 reward;\n        uint256 claimedAmount;\n    }\n\n    struct Migration {\n        address payable previousProvider;\n        address payable newProvider;\n        uint256 rewardForPreviousProvider;\n        bool rewardClaimed;\n    }\n\n    struct Pool {\n        PoolStatus status;\n        bytes32 name;\n        uint256 startTime; // init time\n        uint256 endTime; // canceled or completed time\n        bool claimable;\n        uint256 claimed; // total claimed balance\n        uint256 balance; // total amount of user stakes\n        uint256 lastSlashings; // current updated slashings\n        uint256 lastReward; // current updated reward\n        uint256 requesterRewards;\n        uint8 migrationCount;\n        address validator; // validator address\n        address payable provider; // provider address\n        //        address payable[] members; // pool members\n        mapping(address => PoolStake) stakes; // stakes of a pool members\n    }\n\n    Pool[] private _pools;\n    mapping(address => uint256) public pendingPools; // provider -> pool ID\n\n    IAETH public _aethContract;\n\n    IStaking public _stakingContract;\n\n    SystemParameters public _systemParameters;\n\n    address payable _depositContract;\n\n    event PoolCreated(\n        uint256 indexed poolIndex,\n        address payable indexed provider\n    );\n\n    event PoolOnGoing(\n        uint256 indexed poolIndex\n    );\n\n    event PoolMigrated(\n        uint256 indexed poolIndex,\n        address payable indexed newProvider,\n        address payable indexed previousProvider,\n        uint256 slashings,\n        uint256 poolBalance\n    );\n\n    event UserStaked(\n        uint256 indexed poolIndex,\n        address indexed user,\n        uint256 stakeAmount\n    );\n\n    event UserUnstaked(\n        uint256 indexed poolIndex,\n        address indexed staker,\n        uint256 unstakeAmount\n    );\n\n    event PoolReward(\n        uint256 indexed poolIndex,\n        uint256 reward,\n        uint256 slashings\n    );\n\n    event AETHClaim(uint256 indexed poolIndex, address staker, uint256 amount);\n\n    function initialize(address payable aethContract, address systemParameters, address payable beaconContract) public initializer {\n        OwnableUpgradeSafe.__Ownable_init();\n\n        _aethContract = IAETH(aethContract);\n\n        _systemParameters = SystemParameters(systemParameters);\n\n        // this is for initialization\n        // to avoid index 0 pool\n        Pool memory pool;\n        pool.status = PoolStatus.Canceled;\n        _pools.push(pool);\n\n        _depositContract = beaconContract;\n    }\n\n    function pushToBeacon(uint256 poolIndex,\n        bytes memory pubkey,\n        bytes memory withdrawal_credentials,\n        bytes memory signature,\n        bytes32 deposit_data_root) public onlyOwner {\n\n        Pool storage pool = _pools[poolIndex];\n\n        require(pool.status == PoolStatus.PushWaiting, \"Pool status not allow to push\");\n        require(pool.balance >= 32 ether, \"Not enough ether\");\n\n        pool.status = PoolStatus.OnGoing;\n\n        address validator = address(bytes20(keccak256(pubkey)));\n\n        uint256 ethersToSend = pool.balance;\n\n        pool.balance = 0;\n        pool.validator = validator;\n        pool.startTime = block.timestamp;\n        pool.lastReward = ethersToSend;\n\n        _aethContract.mint(address(this), ethersToSend);\n\n        pendingPools[msg.sender] = 0;\n\n        IDepositContract(_depositContract).deposit{value : ethersToSend}(pubkey, withdrawal_credentials, signature, deposit_data_root);\n        emit PoolOnGoing(poolIndex);\n    }\n\n    /**\n        Providers can call this function to create a new pool.\n    */\n    function initializePool(bytes32 name) external {\n        require(pendingPools[msg.sender] == 0, \"User already have a pending pool\");\n        // freeze staked ankr\n        require(_stakingContract.freeze(msg.sender, _systemParameters.PROVIDER_MINIMUM_STAKING()));\n\n        Pool memory pool;\n\n        pool.provider = msg.sender;\n        pool.name = name;\n        pool.startTime = block.timestamp;\n        _pools.push(pool);\n\n        uint256 index = _pools.length.sub(1);\n        pendingPools[msg.sender] = index;\n\n        emit PoolCreated(\n            index,\n            msg.sender\n        );\n    }\n\n    /**\n        Users can call to stake to given pool\n        @param poolIndex uint256\n    */\n    function stake(uint256 poolIndex) payable external {\n        Pool storage pool = _pools[poolIndex];\n\n        // Pool must be pending status to participate\n        require(pool.status == PoolStatus.Pending, \"Cannot stake to this pool\");\n\n        uint256 stakeAmount = msg.value;\n\n        // value must be greater than minimum staking amount\n        require(stakeAmount >= _systemParameters.REQUESTER_MINIMUM_POOL_STAKING(), \"Ethereum value must be greater than minimum staking amount\");\n\n        pool.balance = pool.balance.add(stakeAmount);\n        if (pool.balance >= 32 ether) {\n\n            pool.status = PoolStatus.PushWaiting;\n\n            pendingPools[msg.sender] = 0;\n\n            uint256 excessAmount = pool.balance.sub(32 ether);\n\n            if (excessAmount > 0) {\n                stakeAmount = stakeAmount.sub(excessAmount);\n                pool.balance = pool.balance.sub(excessAmount);\n                msg.sender.transfer(excessAmount);\n            }\n        }\n\n\n        PoolStake storage userStake = pool.stakes[msg.sender];\n\n        userStake.amount = userStake.amount.add(stakeAmount);\n        pool.stakes[msg.sender] = userStake;\n\n        emit UserStaked(poolIndex, msg.sender, stakeAmount);\n    }\n\n    function migrate(uint256 poolIndex, uint256 currentPoolBalance, uint256 currentSlashings, address payable newProvider) public onlyOwner {\n        Pool storage pool = _pools[poolIndex];\n\n        require(currentSlashings >= pool.lastSlashings, \"Current slashings cannot be smaller than last slashings\");\n\n        address payable oldProvider = pool.provider;\n\n        pool.provider = newProvider;\n\n        uint256 slash = currentSlashings - pool.lastSlashings;\n\n        require(slash >= _systemParameters.SLASHINGS_FOR_MIGRATION(), \"Slashing amount lower than system parameter\");\n\n        uint256 currentReward = currentPoolBalance.add(slash).sub(32 ether);\n\n        uint256 reward = currentReward - pool.lastReward;\n\n        uint256 providerReward = reward.div(10);\n\n        // TODO: what if staked ankr cannot compensate the loss ?\n        if (slash > providerReward) {\n            uint256 difference = slash - providerReward;\n\n            _stakingContract.compensatePoolLoss(oldProvider, difference);\n        } else if (slash < providerReward) {\n            // if provider has positive balance in reward\n            uint256 difference = providerReward - slash;\n            _aethContract.mintFrozen(oldProvider, difference);\n        }\n\n        pool.lastSlashings = currentSlashings;\n        pool.lastReward = currentReward;\n        pool.migrationCount++;\n\n        emit PoolMigrated(poolIndex, newProvider, oldProvider, currentSlashings, currentPoolBalance);\n    }\n\n    /**\n        Users can call to unstake from given pool\n        until pool start\n        @param poolIndex uint256\n    */\n    function unstake(uint256 poolIndex) external payable {\n        Pool storage pool = _pools[poolIndex];\n        // TODO: validations\n        require(\n            pool.status == PoolStatus.Pending,\n            \"You can only cancel your stake from a pending pool.\"\n        );\n        require(\n            pool.stakes[msg.sender].amount > 0,\n            \"You don't have staked balance in this pool\"\n        );\n        // require(\n        //     IAETH(_aethContract).burnFrom(\n        //         msg.sender,\n        //         pool.stakes[msg.sender].amount.div(2)\n        //     ),\n        //     \"You need to approve this contract first.\"\n        // );\n\n        uint256 unstakeAmount = pool.stakes[msg.sender].amount;\n\n        msg.sender.transfer(unstakeAmount);\n        pool.balance = pool.balance.sub(\n            pool.stakes[msg.sender].amount\n        );\n        delete pool.stakes[msg.sender];\n\n        emit UserStaked(poolIndex, msg.sender, unstakeAmount);\n    }\n\n    function rewardMicropool(uint256 poolIndex, uint256 slashings)\n    public\n    payable\n    onlyOwner {\n        Pool storage pool = _pools[poolIndex];\n        require(pool.status == PoolStatus.OnGoing, \"Pool cannot be rewarded\");\n\n        pool.status = PoolStatus.Completed;\n\n        require(slashings >= pool.lastSlashings, \"Current slashings cannot be smaller than last slashings\");\n\n        uint256 slash = slashings - pool.lastSlashings;\n\n        uint256 currentReward = pool.lastReward.add(slash).sub(32 ether);\n\n        uint256 reward = currentReward - pool.lastReward;\n\n        uint256 providerReward = reward.div(10);\n\n        // TODO: what if staked ankr cannot compensate the loss ?\n        if (slash > providerReward) {\n            uint256 difference = slash - providerReward;\n\n            _stakingContract.compensatePoolLoss(pool.provider, difference);\n            providerReward = 0;\n        } else if (slash < providerReward) {\n            // if provider has positive balance in reward\n            providerReward = providerReward - slash;\n            // mint aeth\n            _aethContract.mintFrozen(pool.provider, providerReward);\n        }\n\n        pool.lastSlashings = slashings;\n        pool.lastReward = currentReward;\n\n        // requesters\n        uint256 requesterRewards = pool.lastReward.mul(77).div(100);\n        uint256 stakingRewards = pool.lastReward.mul(10).div(100);\n        uint256 developerRewards = pool.lastReward.mul(3).div(100);\n\n        pool.requesterRewards = requesterRewards;\n\n        _stakingContract.reward{value: stakingRewards}(poolIndex);\n\n        // TODO: Developer rewards\n\n        _aethContract.mintPool{value: requesterRewards}();\n\n        emit PoolReward(poolIndex, msg.value, slashings);\n    }\n\n    function updateAETHContract(address payable tokenContract) external onlyOwner {\n        _aethContract = IAETH(tokenContract);\n    }\n\n    function updateParameterContract(address paramContract) external onlyOwner {\n        _systemParameters = SystemParameters(paramContract);\n    }\n\n    function updateStakingContract(address stakingContract) external onlyOwner {\n        _stakingContract = IStaking(stakingContract);\n    }\n\n    function claimAeth(uint256 poolIndex) unlocked(msg.sender) external {\n        Pool storage pool = _pools[poolIndex];\n\n        require(pool.status == PoolStatus.Completed || pool.status == PoolStatus.OnGoing, \"Pool not claimable\");\n\n        PoolStake storage poolStake = pool.stakes[msg.sender];\n\n        uint256 claimable = poolStake.amount.add(pool.requesterRewards).mul(poolStake.amount).div(32 ether).sub(poolStake.claimedAmount);\n\n        require(claimable > 0, \"Claimable amount must be bigger than zero\");\n\n        poolStake.claimedAmount = poolStake.claimedAmount.add(claimable);\n\n        _aethContract.transfer(msg.sender, claimable);\n\n        emit AETHClaim(poolIndex, msg.sender, claimable);\n    }\n\n    /**\n        Get pool details for given pool array index\n\n        @param poolIndex uint256\n    */\n    function poolDetails(uint256 poolIndex)\n    public\n    view\n    returns (\n        PoolStatus status,\n        uint256 startTime,\n        uint256 endTime,\n        uint256 lastReward,\n        uint256 lastSlashings,\n        bytes32 name,\n        uint256 balance,\n        address validator,\n        address payable provider\n    )\n        //address payable[] memory members\n    {\n        Pool memory pool = _pools[poolIndex];\n        status = pool.status;\n        startTime = pool.startTime;\n        endTime = pool.endTime;\n        lastReward = pool.lastReward;\n        lastSlashings = pool.lastSlashings;\n        balance = pool.balance;\n        provider = pool.provider;\n        validator = pool.validator;\n        name = pool.name;\n        //members = pool.members;\n    }\n\n    function poolCount() public view returns(uint256) {\n        return _pools.length;\n    }\n\n    function userStakeAmount(uint256 poolIndex, address addr) public view returns(uint256) {\n        return _pools[poolIndex].stakes[addr].amount;\n    }\n\n    function changeDepositContract(address payable depositContract) public onlyOwner {\n        _depositContract = depositContract;\n    }\n\n    // TODO: Only for development\n    function getBack() public payable {\n        msg.sender.transfer(address(this).balance);\n    }\n}\n",
  "sourcePath": "/Users/anilkucukrecep/Code/Personal/st/contracts/contracts/MicroPool.sol",
  "compiler": {
    "name": "solc",
    "version": "0.6.8+commit.0bbfe453.Emscripten.clang"
  },
  "schemaVersion": "3.3.0",
  "updatedAt": "2020-10-18T01:43:43.386Z",
  "networkType": "ethereum",
  "devdoc": {
    "methods": {
      "owner()": {
        "details": "Returns the address of the current owner."
      },
      "poolDetails(uint256)": {
        "params": {
          "poolIndex": "uint256"
        }
      },
      "renounceOwnership()": {
        "details": "Leaves the contract without owner. It will not be possible to call `onlyOwner` functions anymore. Can only be called by the current owner.     * NOTE: Renouncing ownership will leave the contract without an owner, thereby removing any functionality that is only available to the owner."
      },
      "stake(uint256)": {
        "params": {
          "poolIndex": "uint256"
        }
      },
      "transferOwnership(address)": {
        "details": "Transfers ownership of the contract to a new account (`newOwner`). Can only be called by the current owner."
      },
      "unstake(uint256)": {
        "params": {
          "poolIndex": "uint256"
        }
      }
    }
  },
  "userdoc": {
    "methods": {
      "initializePool(bytes32)": {
        "notice": "Providers can call this function to create a new pool."
      },
      "poolDetails(uint256)": {
        "notice": "Get pool details for given pool array index"
      },
      "stake(uint256)": {
        "notice": "Users can call to stake to given pool"
      },
      "unstake(uint256)": {
        "notice": "Users can call to unstake from given pool until pool start"
      }
    }
  }
}