{
  "contractName": "Staking",
  "abi": [
    {
      "anonymous": false,
      "inputs": [
        {
          "indexed": false,
          "internalType": "address",
          "name": "provider",
          "type": "address"
        },
        {
          "indexed": false,
          "internalType": "uint256",
          "name": "amount",
          "type": "uint256"
        }
      ],
      "name": "Compensate",
      "type": "event"
    },
    {
      "anonymous": false,
      "inputs": [
        {
          "indexed": true,
          "internalType": "address",
          "name": "staker",
          "type": "address"
        },
        {
          "indexed": false,
          "internalType": "uint256",
          "name": "value",
          "type": "uint256"
        }
      ],
      "name": "Freeze",
      "type": "event"
    },
    {
      "anonymous": false,
      "inputs": [
        {
          "indexed": true,
          "internalType": "address",
          "name": "previousOwner",
          "type": "address"
        },
        {
          "indexed": true,
          "internalType": "address",
          "name": "newOwner",
          "type": "address"
        }
      ],
      "name": "OwnershipTransferred",
      "type": "event"
    },
    {
      "anonymous": false,
      "inputs": [
        {
          "indexed": false,
          "internalType": "address payable",
          "name": "staker",
          "type": "address"
        },
        {
          "indexed": false,
          "internalType": "uint256",
          "name": "amount",
          "type": "uint256"
        }
      ],
      "name": "RewardClaim",
      "type": "event"
    },
    {
      "anonymous": false,
      "inputs": [
        {
          "indexed": false,
          "internalType": "uint256",
          "name": "poolIndex",
          "type": "uint256"
        },
        {
          "indexed": false,
          "internalType": "uint256",
          "name": "amount",
          "type": "uint256"
        }
      ],
      "name": "RewardIncome",
      "type": "event"
    },
    {
      "anonymous": false,
      "inputs": [
        {
          "indexed": true,
          "internalType": "address",
          "name": "staker",
          "type": "address"
        },
        {
          "indexed": false,
          "internalType": "uint256",
          "name": "blockNumber",
          "type": "uint256"
        },
        {
          "indexed": false,
          "internalType": "uint256",
          "name": "value",
          "type": "uint256"
        }
      ],
      "name": "Stake",
      "type": "event"
    },
    {
      "anonymous": false,
      "inputs": [
        {
          "indexed": true,
          "internalType": "address",
          "name": "staker",
          "type": "address"
        },
        {
          "indexed": false,
          "internalType": "uint256",
          "name": "value",
          "type": "uint256"
        }
      ],
      "name": "Unfreeze",
      "type": "event"
    },
    {
      "anonymous": false,
      "inputs": [
        {
          "indexed": true,
          "internalType": "address",
          "name": "staker",
          "type": "address"
        },
        {
          "indexed": false,
          "internalType": "uint256",
          "name": "value",
          "type": "uint256"
        }
      ],
      "name": "Unstake",
      "type": "event"
    },
    {
      "inputs": [],
      "name": "AETHContract",
      "outputs": [
        {
          "internalType": "contract IAETH",
          "name": "",
          "type": "address"
        }
      ],
      "stateMutability": "view",
      "type": "function",
      "constant": true
    },
    {
      "inputs": [],
      "name": "_ankrContract",
      "outputs": [
        {
          "internalType": "contract IERC20",
          "name": "",
          "type": "address"
        }
      ],
      "stateMutability": "view",
      "type": "function",
      "constant": true
    },
    {
      "inputs": [],
      "name": "_microPoolContract",
      "outputs": [
        {
          "internalType": "address",
          "name": "",
          "type": "address"
        }
      ],
      "stateMutability": "view",
      "type": "function",
      "constant": true
    },
    {
      "inputs": [
        {
          "internalType": "address",
          "name": "",
          "type": "address"
        }
      ],
      "name": "_stakes",
      "outputs": [
        {
          "internalType": "uint256",
          "name": "available",
          "type": "uint256"
        },
        {
          "internalType": "uint256",
          "name": "frozen",
          "type": "uint256"
        },
        {
          "internalType": "uint256",
          "name": "lastBlock",
          "type": "uint256"
        },
        {
          "internalType": "uint256",
          "name": "weight",
          "type": "uint256"
        },
        {
          "internalType": "uint256",
          "name": "claimedRewardAmount",
          "type": "uint256"
        }
      ],
      "stateMutability": "view",
      "type": "function",
      "constant": true
    },
    {
      "inputs": [],
      "name": "claimableAfter",
      "outputs": [
        {
          "internalType": "uint256",
          "name": "",
          "type": "uint256"
        }
      ],
      "stateMutability": "view",
      "type": "function",
      "constant": true
    },
    {
      "inputs": [],
      "name": "owner",
      "outputs": [
        {
          "internalType": "address",
          "name": "",
          "type": "address"
        }
      ],
      "stateMutability": "view",
      "type": "function",
      "constant": true
    },
    {
      "inputs": [],
      "name": "renounceOwnership",
      "outputs": [],
      "stateMutability": "nonpayable",
      "type": "function"
    },
    {
      "inputs": [],
      "name": "startBlock",
      "outputs": [
        {
          "internalType": "uint256",
          "name": "",
          "type": "uint256"
        }
      ],
      "stateMutability": "view",
      "type": "function",
      "constant": true
    },
    {
      "inputs": [],
      "name": "totalRewards",
      "outputs": [
        {
          "internalType": "uint256",
          "name": "",
          "type": "uint256"
        }
      ],
      "stateMutability": "view",
      "type": "function",
      "constant": true
    },
    {
      "inputs": [],
      "name": "totalStakes",
      "outputs": [
        {
          "internalType": "uint256",
          "name": "",
          "type": "uint256"
        }
      ],
      "stateMutability": "view",
      "type": "function",
      "constant": true
    },
    {
      "inputs": [
        {
          "internalType": "address",
          "name": "newOwner",
          "type": "address"
        }
      ],
      "name": "transferOwnership",
      "outputs": [],
      "stateMutability": "nonpayable",
      "type": "function"
    },
    {
      "inputs": [
        {
          "internalType": "address",
          "name": "ankrContract",
          "type": "address"
        },
        {
          "internalType": "address",
          "name": "microPoolContract",
          "type": "address"
        },
        {
          "internalType": "address",
          "name": "aethContract",
          "type": "address"
        }
      ],
      "name": "initialize",
      "outputs": [],
      "stateMutability": "nonpayable",
      "type": "function"
    },
    {
      "inputs": [
        {
          "internalType": "address",
          "name": "user",
          "type": "address"
        }
      ],
      "name": "claimAnkrAndStake",
      "outputs": [
        {
          "internalType": "uint256",
          "name": "",
          "type": "uint256"
        }
      ],
      "stateMutability": "nonpayable",
      "type": "function"
    },
    {
      "inputs": [
        {
          "internalType": "address",
          "name": "user",
          "type": "address"
        },
        {
          "internalType": "uint256",
          "name": "amount",
          "type": "uint256"
        }
      ],
      "name": "freeze",
      "outputs": [
        {
          "internalType": "bool",
          "name": "",
          "type": "bool"
        }
      ],
      "stateMutability": "nonpayable",
      "type": "function"
    },
    {
      "inputs": [
        {
          "internalType": "address",
          "name": "ankrContract",
          "type": "address"
        }
      ],
      "name": "updateAnkrContract",
      "outputs": [],
      "stateMutability": "nonpayable",
      "type": "function"
    },
    {
      "inputs": [
        {
          "internalType": "address",
          "name": "microPoolContract",
          "type": "address"
        }
      ],
      "name": "updateMicroPoolContract",
      "outputs": [],
      "stateMutability": "nonpayable",
      "type": "function"
    },
    {
      "inputs": [],
      "name": "unstake",
      "outputs": [
        {
          "internalType": "bool",
          "name": "",
          "type": "bool"
        }
      ],
      "stateMutability": "nonpayable",
      "type": "function"
    },
    {
      "inputs": [
        {
          "internalType": "address",
          "name": "addr",
          "type": "address"
        },
        {
          "internalType": "uint256",
          "name": "amount",
          "type": "uint256"
        }
      ],
      "name": "unfreeze",
      "outputs": [
        {
          "internalType": "bool",
          "name": "",
          "type": "bool"
        }
      ],
      "stateMutability": "nonpayable",
      "type": "function"
    },
    {
      "inputs": [
        {
          "internalType": "uint256",
          "name": "poolIndex",
          "type": "uint256"
        }
      ],
      "name": "reward",
      "outputs": [],
      "stateMutability": "payable",
      "type": "function",
      "payable": true
    },
    {
      "inputs": [
        {
          "internalType": "address",
          "name": "provider",
          "type": "address"
        },
        {
          "internalType": "uint256",
          "name": "amount",
          "type": "uint256"
        }
      ],
      "name": "compensatePoolLoss",
      "outputs": [],
      "stateMutability": "nonpayable",
      "type": "function"
    },
    {
      "inputs": [
        {
          "internalType": "address",
          "name": "staker",
          "type": "address"
        }
      ],
      "name": "totalStakesOf",
      "outputs": [
        {
          "internalType": "uint256",
          "name": "",
          "type": "uint256"
        }
      ],
      "stateMutability": "view",
      "type": "function",
      "constant": true
    },
    {
      "inputs": [
        {
          "internalType": "address",
          "name": "_staker",
          "type": "address"
        }
      ],
      "name": "claimableStakerReward",
      "outputs": [
        {
          "internalType": "uint256",
          "name": "",
          "type": "uint256"
        }
      ],
      "stateMutability": "view",
      "type": "function",
      "constant": true
    },
    {
      "inputs": [
        {
          "internalType": "address",
          "name": "marketPlaceContract",
          "type": "address"
        }
      ],
      "name": "updateMarketPlaceContract",
      "outputs": [],
      "stateMutability": "nonpayable",
      "type": "function"
    },
    {
      "inputs": [
        {
          "internalType": "address",
          "name": "aethContract",
          "type": "address"
        }
      ],
      "name": "updateAETHContract",
      "outputs": [],
      "stateMutability": "nonpayable",
      "type": "function"
    },
    {
      "inputs": [
        {
          "internalType": "uint256",
          "name": "blockNumber",
          "type": "uint256"
        }
      ],
      "name": "setClaimableBlock",
      "outputs": [],
      "stateMutability": "nonpayable",
      "type": "function"
    },
    {
      "inputs": [],
      "name": "claimRewards",
      "outputs": [],
      "stateMutability": "payable",
      "type": "function",
      "payable": true
    }
  ],
  "bytecode": "0x608060405234801561001057600080fd5b506137da806100206000396000f3fe6080604052600436106101815760003560e01c80637b46b80b116100d1578063c91ceccc1161008a578063f2fde38b11610064578063f2fde38b146107f2578063f5963a0214610843578063f6e0bfe4146108a8578063fc1c50521461090d57610181565b8063c91ceccc146106b5578063cb92314414610736578063dba257d51461079b57610181565b80637b46b80b146104a65780638da5cb5b146105195780639a97826e14610570578063a9fb763c146105cb578063bf9befb1146105f9578063c0c53b8b1461062457610181565b8063372500ab1161013e5780634a8d7f75116101185780634a8d7f75146103ac5780635830fe32146103e7578063715018a61461043e57806373e35b901461045557610181565b8063372500ab1461034c5780633b1197401461035657806348cd4cb11461038157610181565b80630bb168bb146101865780630e15561a146101d757806324bce60c1461020257806328444aec146102755780632def6620146102cc5780632edabb71146102fb575b600080fd5b34801561019257600080fd5b506101d5600480360360208110156101a957600080fd5b81019080803573ffffffffffffffffffffffffffffffffffffffff16906020019092919050505061095e565b005b3480156101e357600080fd5b506101ec610a6c565b6040518082815260200191505060405180910390f35b34801561020e57600080fd5b5061025b6004803603604081101561022557600080fd5b81019080803573ffffffffffffffffffffffffffffffffffffffff16906020019092919080359060200190929190505050610a72565b604051808215151515815260200191505060405180910390f35b34801561028157600080fd5b5061028a610da9565b604051808273ffffffffffffffffffffffffffffffffffffffff1673ffffffffffffffffffffffffffffffffffffffff16815260200191505060405180910390f35b3480156102d857600080fd5b506102e1610dcf565b604051808215151515815260200191505060405180910390f35b34801561030757600080fd5b5061034a6004803603602081101561031e57600080fd5b81019080803573ffffffffffffffffffffffffffffffffffffffff169060200190929190505050611117565b005b610354611225565b005b34801561036257600080fd5b5061036b61160a565b6040518082815260200191505060405180910390f35b34801561038d57600080fd5b50610396611610565b6040518082815260200191505060405180910390f35b3480156103b857600080fd5b506103e5600480360360208110156103cf57600080fd5b8101908080359060200190929190505050611616565b005b3480156103f357600080fd5b506103fc6116ea565b604051808273ffffffffffffffffffffffffffffffffffffffff1673ffffffffffffffffffffffffffffffffffffffff16815260200191505060405180910390f35b34801561044a57600080fd5b50610453611710565b005b34801561046157600080fd5b506104a46004803603602081101561047857600080fd5b81019080803573ffffffffffffffffffffffffffffffffffffffff16906020019092919050505061189b565b005b3480156104b257600080fd5b506104ff600480360360408110156104c957600080fd5b81019080803573ffffffffffffffffffffffffffffffffffffffff169060200190929190803590602001909291905050506119a9565b604051808215151515815260200191505060405180910390f35b34801561052557600080fd5b5061052e611cd6565b604051808273ffffffffffffffffffffffffffffffffffffffff1673ffffffffffffffffffffffffffffffffffffffff16815260200191505060405180910390f35b34801561057c57600080fd5b506105c96004803603604081101561059357600080fd5b81019080803573ffffffffffffffffffffffffffffffffffffffff16906020019092919080359060200190929190505050611d00565b005b6105f7600480360360208110156105e157600080fd5b8101908080359060200190929190505050612147565b005b34801561060557600080fd5b5061060e612251565b6040518082815260200191505060405180910390f35b34801561063057600080fd5b506106b36004803603606081101561064757600080fd5b81019080803573ffffffffffffffffffffffffffffffffffffffff169060200190929190803573ffffffffffffffffffffffffffffffffffffffff169060200190929190803573ffffffffffffffffffffffffffffffffffffffff169060200190929190505050612257565b005b3480156106c157600080fd5b50610704600480360360208110156106d857600080fd5b81019080803573ffffffffffffffffffffffffffffffffffffffff16906020019092919050505061242b565b604051808681526020018581526020018481526020018381526020018281526020019550505050505060405180910390f35b34801561074257600080fd5b506107856004803603602081101561075957600080fd5b81019080803573ffffffffffffffffffffffffffffffffffffffff169060200190929190505050612461565b6040518082815260200191505060405180910390f35b3480156107a757600080fd5b506107b061252e565b604051808273ffffffffffffffffffffffffffffffffffffffff1673ffffffffffffffffffffffffffffffffffffffff16815260200191505060405180910390f35b3480156107fe57600080fd5b506108416004803603602081101561081557600080fd5b81019080803573ffffffffffffffffffffffffffffffffffffffff169060200190929190505050612554565b005b34801561084f57600080fd5b506108926004803603602081101561086657600080fd5b81019080803573ffffffffffffffffffffffffffffffffffffffff169060200190929190505050612764565b6040518082815260200191505060405180910390f35b3480156108b457600080fd5b506108f7600480360360208110156108cb57600080fd5b81019080803573ffffffffffffffffffffffffffffffffffffffff169060200190929190505050612c70565b6040518082815260200191505060405180910390f35b34801561091957600080fd5b5061095c6004803603602081101561093057600080fd5b81019080803573ffffffffffffffffffffffffffffffffffffffff169060200190929190505050612d00565b005b610966612e0e565b73ffffffffffffffffffffffffffffffffffffffff16606560009054906101000a900473ffffffffffffffffffffffffffffffffffffffff1673ffffffffffffffffffffffffffffffffffffffff1614610a28576040517f08c379a00000000000000000000000000000000000000000000000000000000081526004018080602001828103825260208152602001807f4f776e61626c653a2063616c6c6572206973206e6f7420746865206f776e657281525060200191505060405180910390fd5b80609b60006101000a81548173ffffffffffffffffffffffffffffffffffffffff021916908373ffffffffffffffffffffffffffffffffffffffff16021790555050565b609f5481565b6000609d60009054906101000a900473ffffffffffffffffffffffffffffffffffffffff168073ffffffffffffffffffffffffffffffffffffffff163373ffffffffffffffffffffffffffffffffffffffff1614610b1b576040517f08c379a000000000000000000000000000000000000000000000000000000000815260040180806020018281038252602881526020018061377d6028913960400191505060405180910390fd5b33609760008273ffffffffffffffffffffffffffffffffffffffff1673ffffffffffffffffffffffffffffffffffffffff16815260200190815260200160002060009054906101000a900460ff1615610bdc576040517f08c379a00000000000000000000000000000000000000000000000000000000081526004018080602001828103825260158152602001807f5265656e7472616e63792070726f74656374696f6e000000000000000000000081525060200191505060405180910390fd5b6001609760008373ffffffffffffffffffffffffffffffffffffffff1673ffffffffffffffffffffffffffffffffffffffff16815260200190815260200160002060006101000a81548160ff021916908315150217905550610c3d85612764565b506000609e60008773ffffffffffffffffffffffffffffffffffffffff1673ffffffffffffffffffffffffffffffffffffffff1681526020019081526020016000209050610ccf856040518060400160405280601281526020017f496e73756666696369656e742066756e647300000000000000000000000000008152508360000154612e169092919063ffffffff16565b8160000181905550610cee858260010154612ed690919063ffffffff16565b81600101819055508573ffffffffffffffffffffffffffffffffffffffff167ff97a274face0b5517365ad396b1fdba6f68bd3135ef603e44272adba3af5a1e0866040518082815260200191505060405180910390a260019350506000609760008373ffffffffffffffffffffffffffffffffffffffff1673ffffffffffffffffffffffffffffffffffffffff16815260200190815260200160002060006101000a81548160ff021916908315150217905550505092915050565b609c60009054906101000a900473ffffffffffffffffffffffffffffffffffffffff1681565b600033609760008273ffffffffffffffffffffffffffffffffffffffff1673ffffffffffffffffffffffffffffffffffffffff16815260200190815260200160002060009054906101000a900460ff1615610e92576040517f08c379a00000000000000000000000000000000000000000000000000000000081526004018080602001828103825260158152602001807f5265656e7472616e63792070726f74656374696f6e000000000000000000000081525060200191505060405180910390fd5b6001609760008373ffffffffffffffffffffffffffffffffffffffff1673ffffffffffffffffffffffffffffffffffffffff16815260200190815260200160002060006101000a81548160ff0219169083151502179055506000609e60003373ffffffffffffffffffffffffffffffffffffffff1673ffffffffffffffffffffffffffffffffffffffff16815260200190815260200160002090506000816000015411610fa7576040517f08c379a000000000000000000000000000000000000000000000000000000000815260040180806020018281038252601b8152602001807f596f7520646f6e742068617665207374616b652062616c616e6365000000000081525060200191505060405180910390fd5b6000610fc482600101548360000154612ed690919063ffffffff16565b90506000826000018190555060008260010154111561102d5761102061100d610ffa846001015484612ed690919063ffffffff16565b8460000154612f5e90919063ffffffff16565b8360030154612fa890919063ffffffff16565b8260030181905550611042565b60008260030181905550600082600201819055505b6110578160a05461302e90919063ffffffff16565b60a0819055506110673382613078565b3373ffffffffffffffffffffffffffffffffffffffff167f2cfce4af01bcb9d6cf6c84ee1b7c491100b8695368264146a94d71e10a63083f826040518082815260200191505060405180910390a26001935050506000609760008373ffffffffffffffffffffffffffffffffffffffff1673ffffffffffffffffffffffffffffffffffffffff16815260200190815260200160002060006101000a81548160ff0219169083151502179055505090565b61111f612e0e565b73ffffffffffffffffffffffffffffffffffffffff16606560009054906101000a900473ffffffffffffffffffffffffffffffffffffffff1673ffffffffffffffffffffffffffffffffffffffff16146111e1576040517f08c379a00000000000000000000000000000000000000000000000000000000081526004018080602001828103825260208152602001807f4f776e61626c653a2063616c6c6572206973206e6f7420746865206f776e657281525060200191505060405180910390fd5b80609a60006101000a81548173ffffffffffffffffffffffffffffffffffffffff021916908373ffffffffffffffffffffffffffffffffffffffff16021790555050565b33609760008273ffffffffffffffffffffffffffffffffffffffff1673ffffffffffffffffffffffffffffffffffffffff16815260200190815260200160002060009054906101000a900460ff16156112e6576040517f08c379a00000000000000000000000000000000000000000000000000000000081526004018080602001828103825260158152602001807f5265656e7472616e63792070726f74656374696f6e000000000000000000000081525060200191505060405180910390fd5b6001609760008373ffffffffffffffffffffffffffffffffffffffff1673ffffffffffffffffffffffffffffffffffffffff16815260200190815260200160002060006101000a81548160ff0219169083151502179055506000609854116113b6576040517f08c379a000000000000000000000000000000000000000000000000000000000815260040180806020018281038252601a8152602001807f436f6e7472616374206e6f7420636c61696d61626c652079657400000000000081525060200191505060405180910390fd5b60006113c133612461565b905060008111611439576040517f08c379a000000000000000000000000000000000000000000000000000000000815260040180806020018281038252601c8152602001807f5468657265206973206e6f207265776172647320746f20636c61696d0000000081525060200191505060405180910390fd5b6000609e60003373ffffffffffffffffffffffffffffffffffffffff1673ffffffffffffffffffffffffffffffffffffffff1681526020019081526020016000209050611493828260040154612ed690919063ffffffff16565b81600401819055503373ffffffffffffffffffffffffffffffffffffffff166108fc839081150290604051600060405180830381858888f19350505050611542576040517f08c379a00000000000000000000000000000000000000000000000000000000081526004018080602001828103825260168152602001807f5265776172647320636f756c64206e6f742073656e740000000000000000000081525060200191505060405180910390fd5b7f75690555e75b04e280e646889defdcbefd8401507e5394d1173fd84290944c293383604051808373ffffffffffffffffffffffffffffffffffffffff1673ffffffffffffffffffffffffffffffffffffffff1681526020018281526020019250505060405180910390a150506000609760008373ffffffffffffffffffffffffffffffffffffffff1673ffffffffffffffffffffffffffffffffffffffff16815260200190815260200160002060006101000a81548160ff02191690831515021790555050565b60985481565b60995481565b61161e612e0e565b73ffffffffffffffffffffffffffffffffffffffff16606560009054906101000a900473ffffffffffffffffffffffffffffffffffffffff1673ffffffffffffffffffffffffffffffffffffffff16146116e0576040517f08c379a00000000000000000000000000000000000000000000000000000000081526004018080602001828103825260208152602001807f4f776e61626c653a2063616c6c6572206973206e6f7420746865206f776e657281525060200191505060405180910390fd5b8060988190555050565b609d60009054906101000a900473ffffffffffffffffffffffffffffffffffffffff1681565b611718612e0e565b73ffffffffffffffffffffffffffffffffffffffff16606560009054906101000a900473ffffffffffffffffffffffffffffffffffffffff1673ffffffffffffffffffffffffffffffffffffffff16146117da576040517f08c379a00000000000000000000000000000000000000000000000000000000081526004018080602001828103825260208152602001807f4f776e61626c653a2063616c6c6572206973206e6f7420746865206f776e657281525060200191505060405180910390fd5b600073ffffffffffffffffffffffffffffffffffffffff16606560009054906101000a900473ffffffffffffffffffffffffffffffffffffffff1673ffffffffffffffffffffffffffffffffffffffff167f8be0079c531659141344cd1fd0a4f28419497f9722a3daafe3b4186f6b6457e060405160405180910390a36000606560006101000a81548173ffffffffffffffffffffffffffffffffffffffff021916908373ffffffffffffffffffffffffffffffffffffffff160217905550565b6118a3612e0e565b73ffffffffffffffffffffffffffffffffffffffff16606560009054906101000a900473ffffffffffffffffffffffffffffffffffffffff1673ffffffffffffffffffffffffffffffffffffffff1614611965576040517f08c379a00000000000000000000000000000000000000000000000000000000081526004018080602001828103825260208152602001807f4f776e61626c653a2063616c6c6572206973206e6f7420746865206f776e657281525060200191505060405180910390fd5b80609c60006101000a81548173ffffffffffffffffffffffffffffffffffffffff021916908373ffffffffffffffffffffffffffffffffffffffff16021790555050565b6000609d60009054906101000a900473ffffffffffffffffffffffffffffffffffffffff168073ffffffffffffffffffffffffffffffffffffffff163373ffffffffffffffffffffffffffffffffffffffff1614611a52576040517f08c379a000000000000000000000000000000000000000000000000000000000815260040180806020018281038252602881526020018061377d6028913960400191505060405180910390fd5b83609760008273ffffffffffffffffffffffffffffffffffffffff1673ffffffffffffffffffffffffffffffffffffffff16815260200190815260200160002060009054906101000a900460ff1615611b13576040517f08c379a00000000000000000000000000000000000000000000000000000000081526004018080602001828103825260158152602001807f5265656e7472616e63792070726f74656374696f6e000000000000000000000081525060200191505060405180910390fd5b6001609760008373ffffffffffffffffffffffffffffffffffffffff1673ffffffffffffffffffffffffffffffffffffffff16815260200190815260200160002060006101000a81548160ff0219169083151502179055506000609e60008773ffffffffffffffffffffffffffffffffffffffff1673ffffffffffffffffffffffffffffffffffffffff1681526020019081526020016000209050611bfc856040518060400160405280601281526020017f496e73756666696369656e742066756e647300000000000000000000000000008152508360010154612e169092919063ffffffff16565b8160010181905550611c1b858260000154612ed690919063ffffffff16565b81600001819055508573ffffffffffffffffffffffffffffffffffffffff167f2cfce4af01bcb9d6cf6c84ee1b7c491100b8695368264146a94d71e10a63083f866040518082815260200191505060405180910390a260019350506000609760008373ffffffffffffffffffffffffffffffffffffffff1673ffffffffffffffffffffffffffffffffffffffff16815260200190815260200160002060006101000a81548160ff021916908315150217905550505092915050565b6000606560009054906101000a900473ffffffffffffffffffffffffffffffffffffffff16905090565b611d08612e0e565b73ffffffffffffffffffffffffffffffffffffffff16609d60009054906101000a900473ffffffffffffffffffffffffffffffffffffffff1673ffffffffffffffffffffffffffffffffffffffff1614611dad576040517f08c379a000000000000000000000000000000000000000000000000000000000815260040180806020018281038252602d815260200180613701602d913960400191505060405180910390fd5b6000609e60008473ffffffffffffffffffffffffffffffffffffffff1673ffffffffffffffffffffffffffffffffffffffff16815260200190815260200160002090508181600101541015611e6a576040517f08c379a00000000000000000000000000000000000000000000000000000000081526004018080602001828103825260148152602001807f496e73756666696369656e742062616c616e636500000000000000000000000081525060200191505060405180910390fd5b6000611f23609b60009054906101000a900473ffffffffffffffffffffffffffffffffffffffff1673ffffffffffffffffffffffffffffffffffffffff166353b651536040518163ffffffff1660e01b8152600401602060405180830381600087803b158015611ed957600080fd5b505af1158015611eed573d6000803e3d6000fd5b505050506040513d6020811015611f0357600080fd5b810190808051906020019092919050505084612fa890919063ffffffff16565b9050611f56611f3185612c70565b611f48858560030154612fa890919063ffffffff16565b612f5e90919063ffffffff16565b8260030181905550611f7581836001015461302e90919063ffffffff16565b8260010181905550611f928160a05461302e90919063ffffffff16565b60a081905550609b60009054906101000a900473ffffffffffffffffffffffffffffffffffffffff1673ffffffffffffffffffffffffffffffffffffffff16631d65a6ca826040518263ffffffff1660e01b815260040180828152602001915050602060405180830381600087803b15801561200d57600080fd5b505af1158015612021573d6000803e3d6000fd5b505050506040513d602081101561203757600080fd5b810190808051906020019092919050505050609a60009054906101000a900473ffffffffffffffffffffffffffffffffffffffff1673ffffffffffffffffffffffffffffffffffffffff166342966c68826040518263ffffffff1660e01b815260040180828152602001915050600060405180830381600087803b1580156120be57600080fd5b505af11580156120d2573d6000803e3d6000fd5b505050507f92c2a7173158b7618078365b4ad89fd1f774ae4aa04f39e10b966b47f469d34b8482604051808373ffffffffffffffffffffffffffffffffffffffff1673ffffffffffffffffffffffffffffffffffffffff1681526020018281526020019250505060405180910390a150505050565b61214f612e0e565b73ffffffffffffffffffffffffffffffffffffffff16609d60009054906101000a900473ffffffffffffffffffffffffffffffffffffffff1673ffffffffffffffffffffffffffffffffffffffff16146121f4576040517f08c379a000000000000000000000000000000000000000000000000000000000815260040180806020018281038252602d815260200180613701602d913960400191505060405180910390fd5b61220934609f54612ed690919063ffffffff16565b609f819055507f1a82ed3bbc7037be59b403f919eb66af9e715aa7388c7c401629a27a56628ab78134604051808381526020018281526020019250505060405180910390a150565b60a05481565b600060019054906101000a900460ff168061227657506122756131d2565b5b8061228d57506000809054906101000a900460ff16155b6122e2576040517f08c379a000000000000000000000000000000000000000000000000000000000815260040180806020018281038252602e81526020018061374f602e913960400191505060405180910390fd5b60008060019054906101000a900460ff161590508015612332576001600060016101000a81548160ff02191690831515021790555060016000806101000a81548160ff0219169083151502179055505b61233a6131e9565b4360998190555083609c60006101000a81548173ffffffffffffffffffffffffffffffffffffffff021916908373ffffffffffffffffffffffffffffffffffffffff16021790555082609d60006101000a81548173ffffffffffffffffffffffffffffffffffffffff021916908373ffffffffffffffffffffffffffffffffffffffff16021790555081609a60006101000a81548173ffffffffffffffffffffffffffffffffffffffff021916908373ffffffffffffffffffffffffffffffffffffffff16021790555080156124255760008060016101000a81548160ff0219169083151502179055505b50505050565b609e6020528060005260406000206000915090508060000154908060010154908060020154908060030154908060040154905085565b600061246b613665565b609e60008473ffffffffffffffffffffffffffffffffffffffff1673ffffffffffffffffffffffffffffffffffffffff1681526020019081526020016000206040518060a0016040529081600082015481526020016001820154815260200160028201548152602001600382015481526020016004820154815250509050600061251c60a05461250e6124fd87612c70565b609f54612fa890919063ffffffff16565b612f5e90919063ffffffff16565b90508160800151810392505050919050565b609a60009054906101000a900473ffffffffffffffffffffffffffffffffffffffff1681565b61255c612e0e565b73ffffffffffffffffffffffffffffffffffffffff16606560009054906101000a900473ffffffffffffffffffffffffffffffffffffffff1673ffffffffffffffffffffffffffffffffffffffff161461261e576040517f08c379a00000000000000000000000000000000000000000000000000000000081526004018080602001828103825260208152602001807f4f776e61626c653a2063616c6c6572206973206e6f7420746865206f776e657281525060200191505060405180910390fd5b600073ffffffffffffffffffffffffffffffffffffffff168173ffffffffffffffffffffffffffffffffffffffff1614156126a4576040517f08c379a00000000000000000000000000000000000000000000000000000000081526004018080602001828103825260268152602001806136956026913960400191505060405180910390fd5b8073ffffffffffffffffffffffffffffffffffffffff16606560009054906101000a900473ffffffffffffffffffffffffffffffffffffffff1673ffffffffffffffffffffffffffffffffffffffff167f8be0079c531659141344cd1fd0a4f28419497f9722a3daafe3b4186f6b6457e060405160405180910390a380606560006101000a81548173ffffffffffffffffffffffffffffffffffffffff021916908373ffffffffffffffffffffffffffffffffffffffff16021790555050565b600081609760008273ffffffffffffffffffffffffffffffffffffffff1673ffffffffffffffffffffffffffffffffffffffff16815260200190815260200160002060009054906101000a900460ff1615612827576040517f08c379a00000000000000000000000000000000000000000000000000000000081526004018080602001828103825260158152602001807f5265656e7472616e63792070726f74656374696f6e000000000000000000000081525060200191505060405180910390fd5b6001609760008373ffffffffffffffffffffffffffffffffffffffff1673ffffffffffffffffffffffffffffffffffffffff16815260200190815260200160002060006101000a81548160ff0219169083151502179055506000609c60009054906101000a900473ffffffffffffffffffffffffffffffffffffffff1673ffffffffffffffffffffffffffffffffffffffff1663dd62ed3e85306040518363ffffffff1660e01b8152600401808373ffffffffffffffffffffffffffffffffffffffff1673ffffffffffffffffffffffffffffffffffffffff1681526020018273ffffffffffffffffffffffffffffffffffffffff1673ffffffffffffffffffffffffffffffffffffffff1681526020019250505060206040518083038186803b15801561295457600080fd5b505afa158015612968573d6000803e3d6000fd5b505050506040513d602081101561297e57600080fd5b8101908080519060200190929190505050905060008114156129a4576000925050612c12565b609c60009054906101000a900473ffffffffffffffffffffffffffffffffffffffff1673ffffffffffffffffffffffffffffffffffffffff166323b872dd8530846040518463ffffffff1660e01b8152600401808473ffffffffffffffffffffffffffffffffffffffff1673ffffffffffffffffffffffffffffffffffffffff1681526020018373ffffffffffffffffffffffffffffffffffffffff1673ffffffffffffffffffffffffffffffffffffffff1681526020018281526020019350505050602060405180830381600087803b158015612a8157600080fd5b505af1158015612a95573d6000803e3d6000fd5b505050506040513d6020811015612aab57600080fd5b8101908080519060200190929190505050612b11576040517f08c379a00000000000000000000000000000000000000000000000000000000081526004018080602001828103825260468152602001806136bb6046913960600191505060405180910390fd5b6000609e60008673ffffffffffffffffffffffffffffffffffffffff1673ffffffffffffffffffffffffffffffffffffffff1681526020019081526020016000209050818160030181905550612b74438260020154612ed690919063ffffffff16565b8160020181905550612b93828260000154612ed690919063ffffffff16565b8160000181905550612bb08260a054612ed690919063ffffffff16565b60a0819055508473ffffffffffffffffffffffffffffffffffffffff167f5af417134f72a9d41143ace85b0a26dce6f550f894f2cbc1eeee8810603d91b64384604051808381526020018281526020019250505060405180910390a281935050505b6000609760008373ffffffffffffffffffffffffffffffffffffffff1673ffffffffffffffffffffffffffffffffffffffff16815260200190815260200160002060006101000a81548160ff02191690831515021790555050919050565b6000609e60008373ffffffffffffffffffffffffffffffffffffffff1673ffffffffffffffffffffffffffffffffffffffff16815260200190815260200160002060010154609e60008473ffffffffffffffffffffffffffffffffffffffff1673ffffffffffffffffffffffffffffffffffffffff16815260200190815260200160002060000154019050919050565b612d08612e0e565b73ffffffffffffffffffffffffffffffffffffffff16606560009054906101000a900473ffffffffffffffffffffffffffffffffffffffff1673ffffffffffffffffffffffffffffffffffffffff1614612dca576040517f08c379a00000000000000000000000000000000000000000000000000000000081526004018080602001828103825260208152602001807f4f776e61626c653a2063616c6c6572206973206e6f7420746865206f776e657281525060200191505060405180910390fd5b80609d60006101000a81548173ffffffffffffffffffffffffffffffffffffffff021916908373ffffffffffffffffffffffffffffffffffffffff16021790555050565b600033905090565b6000838311158290612ec3576040517f08c379a00000000000000000000000000000000000000000000000000000000081526004018080602001828103825283818151815260200191508051906020019080838360005b83811015612e88578082015181840152602081019050612e6d565b50505050905090810190601f168015612eb55780820380516001836020036101000a031916815260200191505b509250505060405180910390fd5b5060008385039050809150509392505050565b600080828401905083811015612f54576040517f08c379a000000000000000000000000000000000000000000000000000000000815260040180806020018281038252601b8152602001807f536166654d6174683a206164646974696f6e206f766572666c6f77000000000081525060200191505060405180910390fd5b8091505092915050565b6000612fa083836040518060400160405280601a81526020017f536166654d6174683a206469766973696f6e206279207a65726f0000000000008152506132f8565b905092915050565b600080831415612fbb5760009050613028565b6000828402905082848281612fcc57fe5b0414613023576040517f08c379a000000000000000000000000000000000000000000000000000000000815260040180806020018281038252602181526020018061372e6021913960400191505060405180910390fd5b809150505b92915050565b600061307083836040518060400160405280601e81526020017f536166654d6174683a207375627472616374696f6e206f766572666c6f770000815250612e16565b905092915050565b609c60009054906101000a900473ffffffffffffffffffffffffffffffffffffffff1673ffffffffffffffffffffffffffffffffffffffff1663a9059cbb83836040518363ffffffff1660e01b8152600401808373ffffffffffffffffffffffffffffffffffffffff1673ffffffffffffffffffffffffffffffffffffffff16815260200182815260200192505050602060405180830381600087803b15801561312157600080fd5b505af1158015613135573d6000803e3d6000fd5b505050506040513d602081101561314b57600080fd5b81019080805190602001909291905050506131ce576040517f08c379a00000000000000000000000000000000000000000000000000000000081526004018080602001828103825260158152602001807f4661696c656420746f6b656e207472616e73666572000000000000000000000081525060200191505060405180910390fd5b5050565b6000803090506000813b9050600081149250505090565b600060019054906101000a900460ff168061320857506132076131d2565b5b8061321f57506000809054906101000a900460ff16155b613274576040517f08c379a000000000000000000000000000000000000000000000000000000000815260040180806020018281038252602e81526020018061374f602e913960400191505060405180910390fd5b60008060019054906101000a900460ff1615905080156132c4576001600060016101000a81548160ff02191690831515021790555060016000806101000a81548160ff0219169083151502179055505b6132cc6133be565b6132d46134bd565b80156132f55760008060016101000a81548160ff0219169083151502179055505b50565b600080831182906133a4576040517f08c379a00000000000000000000000000000000000000000000000000000000081526004018080602001828103825283818151815260200191508051906020019080838360005b8381101561336957808201518184015260208101905061334e565b50505050905090810190601f1680156133965780820380516001836020036101000a031916815260200191505b509250505060405180910390fd5b5060008385816133b057fe5b049050809150509392505050565b600060019054906101000a900460ff16806133dd57506133dc6131d2565b5b806133f457506000809054906101000a900460ff16155b613449576040517f08c379a000000000000000000000000000000000000000000000000000000000815260040180806020018281038252602e81526020018061374f602e913960400191505060405180910390fd5b60008060019054906101000a900460ff161590508015613499576001600060016101000a81548160ff02191690831515021790555060016000806101000a81548160ff0219169083151502179055505b80156134ba5760008060016101000a81548160ff0219169083151502179055505b50565b600060019054906101000a900460ff16806134dc57506134db6131d2565b5b806134f357506000809054906101000a900460ff16155b613548576040517f08c379a000000000000000000000000000000000000000000000000000000000815260040180806020018281038252602e81526020018061374f602e913960400191505060405180910390fd5b60008060019054906101000a900460ff161590508015613598576001600060016101000a81548160ff02191690831515021790555060016000806101000a81548160ff0219169083151502179055505b60006135a2612e0e565b905080606560006101000a81548173ffffffffffffffffffffffffffffffffffffffff021916908373ffffffffffffffffffffffffffffffffffffffff1602179055508073ffffffffffffffffffffffffffffffffffffffff16600073ffffffffffffffffffffffffffffffffffffffff167f8be0079c531659141344cd1fd0a4f28419497f9722a3daafe3b4186f6b6457e060405160405180910390a35080156136625760008060016101000a81548160ff0219169083151502179055505b50565b6040518060a001604052806000815260200160008152602001600081526020016000815260200160008152509056fe4f776e61626c653a206e6577206f776e657220697320746865207a65726f2061646472657373416c6c6f77616e636520436c61696d204572726f723a20546f6b656e7320636f756c64206e6f74207472616e736665727265642066726f6d20616e6b7220636f6e74726163744f776e61626c653a2063616c6c6572206973206e6f7420746865206d6963726f706f6f6c20636f6e7472616374536166654d6174683a206d756c7469706c69636174696f6e206f766572666c6f77436f6e747261637420696e7374616e63652068617320616c7265616479206265656e20696e697469616c697a6564596f7520617265206e6f7420616c6c6f77656420746f2072756e20746869732066756e6374696f6ea2646970667358221220ec398760a0dbd0b4fa83dd9f0d95778fc1209bfa91681509c23a44f9d8db789964736f6c63430006080033",
  "immutableReferences": {},
  "source": "// SPDX-License-Identifier: UNLICENSED\npragma solidity ^0.6.8;\n\nimport \"@openzeppelin/contracts-ethereum-package/contracts/math/SafeMath.sol\";\nimport \"@openzeppelin/contracts-ethereum-package/contracts/math/SignedSafeMath.sol\";\nimport \"@openzeppelin/contracts-ethereum-package/contracts/access/Ownable.sol\";\nimport \"./lib/Lockable.sol\";\nimport \"./lib/interfaces/IAETH.sol\";\nimport \"./lib/interfaces/IMarketPlace.sol\";\n\n// TODO: user can join late (reward should be reduced)\ncontract Staking is OwnableUpgradeSafe, Lockable {\n    using SafeMath for uint256;\n    using SignedSafeMath for int256;\n\n    event Stake(\n        address indexed staker,\n        uint256 blockNumber,\n        uint256 value\n    );\n\n    event Freeze(\n        address indexed staker,\n        uint256 value\n    );\n\n    event Unfreeze(\n        address indexed staker,\n        uint256 value\n    );\n\n    event Unstake(\n        address indexed staker,\n        uint256 value\n    );\n\n    event RewardIncome(\n        uint256 poolIndex,\n        uint256 amount\n    );\n\n    event Compensate(address provider, uint256 amount);\n\n    event RewardClaim(\n        address payable staker,\n        uint256 amount\n    );\n\n    struct UserStake {\n        uint256 available;\n        uint256 frozen;\n        uint256 lastBlock;\n        uint256 weight;\n\n        uint256 claimedRewardAmount;\n    }\n\n    // rewards will be claimable after selected block, rewards will calculated based on this too\n    uint256 public claimableAfter;\n\n    // start of contract\n    uint256 public startBlock;\n\n    IAETH public AETHContract;\n\n    IMarketPlace _marketPlaceContract;\n\n    IERC20 public _ankrContract;\n\n    address public _microPoolContract;\n\n    mapping(address => UserStake) public _stakes;\n\n    uint256 public totalRewards;\n    uint256 public totalStakes;\n\n    function initialize(address ankrContract, address microPoolContract, address aethContract) public initializer {\n        OwnableUpgradeSafe.__Ownable_init();\n\n        startBlock = block.number;\n\n        _ankrContract = IERC20(ankrContract);\n        _microPoolContract = microPoolContract;\n        AETHContract = IAETH(aethContract);\n    }\n\n    modifier addressAllowed(address addr) {\n        require(msg.sender == addr, \"You are not allowed to run this function\");\n        _;\n    }\n\n    modifier onlyMicroPoolContract() {\n        require(_microPoolContract == _msgSender(), \"Ownable: caller is not the micropool contract\");\n        _;\n    }\n\n    /*\n        This function used to stake ankr\n    */\n    function claimAnkrAndStake(address user) public unlocked(user) returns (uint256) {\n        uint256 allowance = _ankrContract.allowance(user, address(this));\n\n        if (allowance == 0) {\n            return 0;\n        }\n\n        require(_ankrContract.transferFrom(user, address(this), allowance), \"Allowance Claim Error: Tokens could not transferred from ankr contract\");\n\n\n        UserStake storage stake = _stakes[user];\n\n        // FIXME\n        stake.weight = allowance;\n\n//        if (stake.weight > 0) {\n//            stake.weight = stake.weight.mul(block.number).add(allowance.mul(stake.lastBlock)) / stake.lastBlock.add(block.number);\n//        }\n//        else {\n//            stake.weight = allowance;\n//        }\n\n        stake.lastBlock = stake.lastBlock.add(block.number);\n        stake.available = stake.available.add(allowance);\n\n        totalStakes = totalStakes.add(allowance);\n\n        emit Stake(user, block.number, allowance);\n\n        return allowance;\n    }\n\n    // this function will called by micro pool contract to freeze staked balance and claim allowance if exists\n    function freeze(address user, uint256 amount)\n    public\n    addressAllowed(_microPoolContract)\n    unlocked(msg.sender)\n    returns (bool)\n    {\n        claimAnkrAndStake(user);\n        UserStake storage userStake = _stakes[user];\n\n        userStake.available = userStake.available.sub(amount, \"Insufficient funds\");\n\n        userStake.frozen = userStake.frozen.add(amount);\n\n        emit Freeze(user, amount);\n        return true;\n    }\n\n    function updateAnkrContract(address ankrContract) public onlyOwner {\n        _ankrContract = IERC20(ankrContract);\n    }\n\n    function updateMicroPoolContract(address microPoolContract)\n    public\n    onlyOwner\n    {\n        _microPoolContract = microPoolContract;\n    }\n\n    function transferToken(address to, uint256 amount) private {\n        require(_ankrContract.transfer(to, amount), \"Failed token transfer\");\n    }\n\n    function unstake() public unlocked(msg.sender) returns (bool) {\n        UserStake storage stake = _stakes[msg.sender];\n        require(stake.available > 0, \"You dont have stake balance\");\n\n        uint256 available = stake.available.add(stake.frozen);\n\n        stake.available = 0;\n\n        if (stake.frozen > 0) {\n            // FIXME: int safemath\n            stake.weight = stake.weight.mul(stake.available.div(available.add(stake.frozen)));\n        }\n        else {\n            stake.weight = 0;\n            stake.lastBlock = 0;\n        }\n\n        totalStakes = totalStakes.sub(available);\n\n        transferToken(msg.sender, available);\n\n        emit Unfreeze(msg.sender, available);\n\n        return true;\n    }\n\n    function unfreeze(address addr, uint256 amount)\n    public\n    addressAllowed(_microPoolContract)\n    unlocked(addr)\n    returns (bool)\n    {\n        UserStake storage userStake = _stakes[addr];\n        userStake.frozen = userStake.frozen.sub(amount, \"Insufficient funds\");\n        userStake.available = userStake.available.add(amount);\n\n        emit Unfreeze(addr, amount);\n        return true;\n    }\n\n    function reward(uint256 poolIndex) payable external onlyMicroPoolContract {\n        totalRewards = totalRewards.add(msg.value);\n\n        emit RewardIncome(poolIndex, msg.value);\n    }\n\n    function compensatePoolLoss(address provider, uint256 amount) external onlyMicroPoolContract {\n        UserStake storage stake = _stakes[provider];\n        // TODO: this should be solved\n        require(stake.frozen >= amount, \"Insufficient balance\");\n\n        uint256 ankrAmount = amount.mul(_marketPlaceContract.ankrEthRate());\n\n        // FIXME: int safemath\n        stake.weight = stake.weight.mul(amount).div(totalStakesOf(provider));\n        stake.frozen = stake.frozen.sub(ankrAmount);\n\n        totalStakes = totalStakes.sub(ankrAmount);\n\n        _marketPlaceContract.swapAndBurn(ankrAmount);\n\n        AETHContract.burn(ankrAmount);\n\n        emit Compensate(provider, ankrAmount);\n    }\n\n    function totalStakesOf(address staker) public view returns (uint256) {\n        return _stakes[staker].available + _stakes[staker].frozen;\n    }\n\n    function claimableStakerReward(address _staker) public view returns(uint256) {\n        UserStake memory staker = _stakes[_staker];\n\n        // TODO: Time based calculation\n\n        uint256 totalEarned = totalRewards.mul(totalStakesOf(_staker)).div(totalStakes);\n        return totalEarned - staker.claimedRewardAmount;\n    }\n\n    function updateMarketPlaceContract(address marketPlaceContract) external onlyOwner {\n        _marketPlaceContract = IMarketPlace(marketPlaceContract);\n    }\n\n    function updateAETHContract(address aethContract) public onlyOwner {\n        AETHContract = IAETH(aethContract);\n    }\n\n    function setClaimableBlock(uint256 blockNumber) public onlyOwner {\n        claimableAfter = blockNumber;\n    }\n\n    function claimRewards() public payable unlocked(msg.sender)  {\n        require(claimableAfter > 0, \"Contract not claimable yet\");\n\n        uint256 claimableReward = claimableStakerReward(msg.sender);\n\n        require(claimableReward > 0, \"There is no rewards to claim\");\n\n        UserStake storage stake = _stakes[msg.sender];\n        stake.claimedRewardAmount = stake.claimedRewardAmount.add(claimableReward);\n\n        require(msg.sender.send(claimableReward), \"Rewards could not sent\");\n\n        emit RewardClaim(msg.sender, claimableReward);\n    }\n}\n",
  "sourcePath": "/Users/anilkucukrecep/Code/Personal/st/contracts/contracts/Staking.sol",
  "compiler": {
    "name": "solc",
    "version": "0.6.8+commit.0bbfe453.Emscripten.clang"
  },
  "schemaVersion": "3.3.0",
  "updatedAt": "2020-10-18T01:45:17.365Z",
  "networkType": "ethereum",
  "devdoc": {
    "methods": {
      "owner()": {
        "details": "Returns the address of the current owner."
      },
      "renounceOwnership()": {
        "details": "Leaves the contract without owner. It will not be possible to call `onlyOwner` functions anymore. Can only be called by the current owner.     * NOTE: Renouncing ownership will leave the contract without an owner, thereby removing any functionality that is only available to the owner."
      },
      "transferOwnership(address)": {
        "details": "Transfers ownership of the contract to a new account (`newOwner`). Can only be called by the current owner."
      }
    }
  },
  "userdoc": {
    "methods": {}
  }
}