{
  "contractName": "Staking",
  "abi": [
    {
      "anonymous": false,
      "inputs": [
        {
          "indexed": true,
          "internalType": "address",
          "name": "provider",
          "type": "address"
        },
        {
          "indexed": false,
          "internalType": "uint256",
          "name": "ankrAmount",
          "type": "uint256"
        },
        {
          "indexed": false,
          "internalType": "uint256",
          "name": "etherAmount",
          "type": "uint256"
        }
      ],
      "name": "Compensate",
      "type": "event"
    },
    {
      "anonymous": false,
      "inputs": [
        {
          "indexed": true,
          "internalType": "address",
          "name": "staker",
          "type": "address"
        },
        {
          "indexed": false,
          "internalType": "uint256",
          "name": "value",
          "type": "uint256"
        }
      ],
      "name": "Freeze",
      "type": "event"
    },
    {
      "anonymous": false,
      "inputs": [
        {
          "indexed": true,
          "internalType": "address",
          "name": "previousOwner",
          "type": "address"
        },
        {
          "indexed": true,
          "internalType": "address",
          "name": "newOwner",
          "type": "address"
        }
      ],
      "name": "OwnershipTransferred",
      "type": "event"
    },
    {
      "anonymous": false,
      "inputs": [
        {
          "indexed": false,
          "internalType": "address payable",
          "name": "staker",
          "type": "address"
        },
        {
          "indexed": false,
          "internalType": "uint256",
          "name": "amount",
          "type": "uint256"
        }
      ],
      "name": "RewardClaim",
      "type": "event"
    },
    {
      "anonymous": false,
      "inputs": [
        {
          "indexed": false,
          "internalType": "uint256",
          "name": "poolIndex",
          "type": "uint256"
        },
        {
          "indexed": false,
          "internalType": "uint256",
          "name": "amount",
          "type": "uint256"
        }
      ],
      "name": "RewardIncome",
      "type": "event"
    },
    {
      "anonymous": false,
      "inputs": [
        {
          "indexed": true,
          "internalType": "address",
          "name": "staker",
          "type": "address"
        },
        {
          "indexed": false,
          "internalType": "uint256",
          "name": "blockNumber",
          "type": "uint256"
        },
        {
          "indexed": false,
          "internalType": "uint256",
          "name": "value",
          "type": "uint256"
        }
      ],
      "name": "Stake",
      "type": "event"
    },
    {
      "anonymous": false,
      "inputs": [
        {
          "indexed": true,
          "internalType": "address",
          "name": "staker",
          "type": "address"
        },
        {
          "indexed": false,
          "internalType": "uint256",
          "name": "value",
          "type": "uint256"
        }
      ],
      "name": "Unfreeze",
      "type": "event"
    },
    {
      "anonymous": false,
      "inputs": [
        {
          "indexed": true,
          "internalType": "address",
          "name": "staker",
          "type": "address"
        },
        {
          "indexed": false,
          "internalType": "uint256",
          "name": "value",
          "type": "uint256"
        }
      ],
      "name": "Unstake",
      "type": "event"
    },
    {
      "inputs": [],
      "name": "AETHContract",
      "outputs": [
        {
          "internalType": "contract IAETH",
          "name": "",
          "type": "address"
        }
      ],
      "stateMutability": "view",
      "type": "function"
    },
    {
      "inputs": [],
      "name": "_ankrContract",
      "outputs": [
        {
          "internalType": "contract IERC20",
          "name": "",
          "type": "address"
        }
      ],
      "stateMutability": "view",
      "type": "function"
    },
    {
      "inputs": [],
      "name": "_microPoolContract",
      "outputs": [
        {
          "internalType": "address",
          "name": "",
          "type": "address"
        }
      ],
      "stateMutability": "view",
      "type": "function"
    },
    {
      "inputs": [
        {
          "internalType": "address",
          "name": "",
          "type": "address"
        }
      ],
      "name": "_stakes",
      "outputs": [
        {
          "internalType": "uint256",
          "name": "available",
          "type": "uint256"
        },
        {
          "internalType": "uint256",
          "name": "frozen",
          "type": "uint256"
        },
        {
          "internalType": "uint256",
          "name": "lastBlock",
          "type": "uint256"
        },
        {
          "internalType": "uint256",
          "name": "weight",
          "type": "uint256"
        },
        {
          "internalType": "uint256",
          "name": "claimedRewardAmount",
          "type": "uint256"
        }
      ],
      "stateMutability": "view",
      "type": "function"
    },
    {
      "inputs": [],
      "name": "claimableAfter",
      "outputs": [
        {
          "internalType": "uint256",
          "name": "",
          "type": "uint256"
        }
      ],
      "stateMutability": "view",
      "type": "function"
    },
    {
      "inputs": [],
      "name": "owner",
      "outputs": [
        {
          "internalType": "address",
          "name": "",
          "type": "address"
        }
      ],
      "stateMutability": "view",
      "type": "function"
    },
    {
      "inputs": [],
      "name": "renounceOwnership",
      "outputs": [],
      "stateMutability": "nonpayable",
      "type": "function"
    },
    {
      "inputs": [],
      "name": "startBlock",
      "outputs": [
        {
          "internalType": "uint256",
          "name": "",
          "type": "uint256"
        }
      ],
      "stateMutability": "view",
      "type": "function"
    },
    {
      "inputs": [],
      "name": "totalRewards",
      "outputs": [
        {
          "internalType": "uint256",
          "name": "",
          "type": "uint256"
        }
      ],
      "stateMutability": "view",
      "type": "function"
    },
    {
      "inputs": [],
      "name": "totalStakes",
      "outputs": [
        {
          "internalType": "uint256",
          "name": "",
          "type": "uint256"
        }
      ],
      "stateMutability": "view",
      "type": "function"
    },
    {
      "inputs": [
        {
          "internalType": "address",
          "name": "newOwner",
          "type": "address"
        }
      ],
      "name": "transferOwnership",
      "outputs": [],
      "stateMutability": "nonpayable",
      "type": "function"
    },
    {
      "inputs": [
        {
          "internalType": "address",
          "name": "ankrContract",
          "type": "address"
        },
        {
          "internalType": "address",
          "name": "microPoolContract",
          "type": "address"
        },
        {
          "internalType": "address",
          "name": "aethContract",
          "type": "address"
        }
      ],
      "name": "initialize",
      "outputs": [],
      "stateMutability": "nonpayable",
      "type": "function"
    },
    {
      "inputs": [
        {
          "internalType": "address",
          "name": "user",
          "type": "address"
        }
      ],
      "name": "claimAnkrAndStake",
      "outputs": [
        {
          "internalType": "uint256",
          "name": "",
          "type": "uint256"
        }
      ],
      "stateMutability": "nonpayable",
      "type": "function"
    },
    {
      "inputs": [
        {
          "internalType": "address",
          "name": "user",
          "type": "address"
        },
        {
          "internalType": "uint256",
          "name": "amount",
          "type": "uint256"
        }
      ],
      "name": "freeze",
      "outputs": [
        {
          "internalType": "bool",
          "name": "",
          "type": "bool"
        }
      ],
      "stateMutability": "nonpayable",
      "type": "function"
    },
    {
      "inputs": [
        {
          "internalType": "address",
          "name": "ankrContract",
          "type": "address"
        }
      ],
      "name": "updateAnkrContract",
      "outputs": [],
      "stateMutability": "nonpayable",
      "type": "function"
    },
    {
      "inputs": [
        {
          "internalType": "address",
          "name": "microPoolContract",
          "type": "address"
        }
      ],
      "name": "updateMicroPoolContract",
      "outputs": [],
      "stateMutability": "nonpayable",
      "type": "function"
    },
    {
      "inputs": [],
      "name": "unstake",
      "outputs": [
        {
          "internalType": "bool",
          "name": "",
          "type": "bool"
        }
      ],
      "stateMutability": "nonpayable",
      "type": "function"
    },
    {
      "inputs": [
        {
          "internalType": "address",
          "name": "addr",
          "type": "address"
        },
        {
          "internalType": "uint256",
          "name": "amount",
          "type": "uint256"
        }
      ],
      "name": "unfreeze",
      "outputs": [
        {
          "internalType": "bool",
          "name": "",
          "type": "bool"
        }
      ],
      "stateMutability": "nonpayable",
      "type": "function"
    },
    {
      "inputs": [
        {
          "internalType": "uint256",
          "name": "poolIndex",
          "type": "uint256"
        }
      ],
      "name": "reward",
      "outputs": [],
      "stateMutability": "payable",
      "type": "function"
    },
    {
      "inputs": [
        {
          "internalType": "address",
          "name": "provider",
          "type": "address"
        },
        {
          "internalType": "uint256",
          "name": "amount",
          "type": "uint256"
        },
        {
          "internalType": "uint256",
          "name": "providerStakeAmount",
          "type": "uint256"
        }
      ],
      "name": "compensatePoolLoss",
      "outputs": [
        {
          "internalType": "uint256",
          "name": "",
          "type": "uint256"
        }
      ],
      "stateMutability": "nonpayable",
      "type": "function"
    },
    {
      "inputs": [
        {
          "internalType": "address",
          "name": "staker",
          "type": "address"
        }
      ],
      "name": "totalStakesOf",
      "outputs": [
        {
          "internalType": "uint256",
          "name": "",
          "type": "uint256"
        }
      ],
      "stateMutability": "view",
      "type": "function"
    },
    {
      "inputs": [
        {
          "internalType": "address",
          "name": "_staker",
          "type": "address"
        }
      ],
      "name": "claimableStakerReward",
      "outputs": [
        {
          "internalType": "uint256",
          "name": "",
          "type": "uint256"
        }
      ],
      "stateMutability": "view",
      "type": "function"
    },
    {
      "inputs": [],
      "name": "claimRewards",
      "outputs": [],
      "stateMutability": "payable",
      "type": "function"
    },
    {
      "inputs": [
        {
          "internalType": "address",
          "name": "marketPlaceContract",
          "type": "address"
        }
      ],
      "name": "updateMarketPlaceContract",
      "outputs": [],
      "stateMutability": "nonpayable",
      "type": "function"
    },
    {
      "inputs": [
        {
          "internalType": "address",
          "name": "aethContract",
          "type": "address"
        }
      ],
      "name": "updateAETHContract",
      "outputs": [],
      "stateMutability": "nonpayable",
      "type": "function"
    },
    {
      "inputs": [
        {
          "internalType": "uint256",
          "name": "blockNumber",
          "type": "uint256"
        }
      ],
      "name": "setClaimableBlock",
      "outputs": [],
      "stateMutability": "nonpayable",
      "type": "function"
    }
  ],
  "bytecode": "0x608060405234801561001057600080fd5b506138b6806100206000396000f3fe6080604052600436106101815760003560e01c80637b46b80b116100d1578063c91ceccc1161008a578063f2fde38b11610064578063f2fde38b14610810578063f5963a0214610861578063f6e0bfe4146108c6578063fc1c50521461092b57610181565b8063c91ceccc146106d3578063cb92314414610754578063dba257d5146107b957610181565b80637b46b80b146104a65780637c12f733146105195780638da5cb5b14610592578063a9fb763c146105e9578063bf9befb114610617578063c0c53b8b1461064257610181565b8063372500ab1161013e5780634a8d7f75116101185780634a8d7f75146103ac5780635830fe32146103e7578063715018a61461043e57806373e35b901461045557610181565b8063372500ab1461034c5780633b1197401461035657806348cd4cb11461038157610181565b80630bb168bb146101865780630e15561a146101d757806324bce60c1461020257806328444aec146102755780632def6620146102cc5780632edabb71146102fb575b600080fd5b34801561019257600080fd5b506101d5600480360360208110156101a957600080fd5b81019080803573ffffffffffffffffffffffffffffffffffffffff16906020019092919050505061097c565b005b3480156101e357600080fd5b506101ec610a8a565b6040518082815260200191505060405180910390f35b34801561020e57600080fd5b5061025b6004803603604081101561022557600080fd5b81019080803573ffffffffffffffffffffffffffffffffffffffff16906020019092919080359060200190929190505050610a90565b604051808215151515815260200191505060405180910390f35b34801561028157600080fd5b5061028a610dc7565b604051808273ffffffffffffffffffffffffffffffffffffffff1673ffffffffffffffffffffffffffffffffffffffff16815260200191505060405180910390f35b3480156102d857600080fd5b506102e1610ded565b604051808215151515815260200191505060405180910390f35b34801561030757600080fd5b5061034a6004803603602081101561031e57600080fd5b81019080803573ffffffffffffffffffffffffffffffffffffffff169060200190929190505050611135565b005b610354611243565b005b34801561036257600080fd5b5061036b611628565b6040518082815260200191505060405180910390f35b34801561038d57600080fd5b5061039661162e565b6040518082815260200191505060405180910390f35b3480156103b857600080fd5b506103e5600480360360208110156103cf57600080fd5b8101908080359060200190929190505050611634565b005b3480156103f357600080fd5b506103fc611708565b604051808273ffffffffffffffffffffffffffffffffffffffff1673ffffffffffffffffffffffffffffffffffffffff16815260200191505060405180910390f35b34801561044a57600080fd5b5061045361172e565b005b34801561046157600080fd5b506104a46004803603602081101561047857600080fd5b81019080803573ffffffffffffffffffffffffffffffffffffffff1690602001909291905050506118b9565b005b3480156104b257600080fd5b506104ff600480360360408110156104c957600080fd5b81019080803573ffffffffffffffffffffffffffffffffffffffff169060200190929190803590602001909291905050506119c7565b604051808215151515815260200191505060405180910390f35b34801561052557600080fd5b5061057c6004803603606081101561053c57600080fd5b81019080803573ffffffffffffffffffffffffffffffffffffffff1690602001909291908035906020019092919080359060200190929190505050611cf4565b6040518082815260200191505060405180910390f35b34801561059e57600080fd5b506105a76121d9565b604051808273ffffffffffffffffffffffffffffffffffffffff1673ffffffffffffffffffffffffffffffffffffffff16815260200191505060405180910390f35b610615600480360360208110156105ff57600080fd5b8101908080359060200190929190505050612203565b005b34801561062357600080fd5b5061062c61230d565b6040518082815260200191505060405180910390f35b34801561064e57600080fd5b506106d16004803603606081101561066557600080fd5b81019080803573ffffffffffffffffffffffffffffffffffffffff169060200190929190803573ffffffffffffffffffffffffffffffffffffffff169060200190929190803573ffffffffffffffffffffffffffffffffffffffff169060200190929190505050612313565b005b3480156106df57600080fd5b50610722600480360360208110156106f657600080fd5b81019080803573ffffffffffffffffffffffffffffffffffffffff1690602001909291905050506124e7565b604051808681526020018581526020018481526020018381526020018281526020019550505050505060405180910390f35b34801561076057600080fd5b506107a36004803603602081101561077757600080fd5b81019080803573ffffffffffffffffffffffffffffffffffffffff16906020019092919050505061251d565b6040518082815260200191505060405180910390f35b3480156107c557600080fd5b506107ce6125fa565b604051808273ffffffffffffffffffffffffffffffffffffffff1673ffffffffffffffffffffffffffffffffffffffff16815260200191505060405180910390f35b34801561081c57600080fd5b5061085f6004803603602081101561083357600080fd5b81019080803573ffffffffffffffffffffffffffffffffffffffff169060200190929190505050612620565b005b34801561086d57600080fd5b506108b06004803603602081101561088457600080fd5b81019080803573ffffffffffffffffffffffffffffffffffffffff169060200190929190505050612830565b6040518082815260200191505060405180910390f35b3480156108d257600080fd5b50610915600480360360208110156108e957600080fd5b81019080803573ffffffffffffffffffffffffffffffffffffffff169060200190929190505050612d3c565b6040518082815260200191505060405180910390f35b34801561093757600080fd5b5061097a6004803603602081101561094e57600080fd5b81019080803573ffffffffffffffffffffffffffffffffffffffff169060200190929190505050612ddc565b005b610984612eea565b73ffffffffffffffffffffffffffffffffffffffff16606560009054906101000a900473ffffffffffffffffffffffffffffffffffffffff1673ffffffffffffffffffffffffffffffffffffffff1614610a46576040517f08c379a00000000000000000000000000000000000000000000000000000000081526004018080602001828103825260208152602001807f4f776e61626c653a2063616c6c6572206973206e6f7420746865206f776e657281525060200191505060405180910390fd5b80609b60006101000a81548173ffffffffffffffffffffffffffffffffffffffff021916908373ffffffffffffffffffffffffffffffffffffffff16021790555050565b609f5481565b6000609d60009054906101000a900473ffffffffffffffffffffffffffffffffffffffff168073ffffffffffffffffffffffffffffffffffffffff163373ffffffffffffffffffffffffffffffffffffffff1614610b39576040517f08c379a00000000000000000000000000000000000000000000000000000000081526004018080602001828103825260288152602001806138596028913960400191505060405180910390fd5b33609760008273ffffffffffffffffffffffffffffffffffffffff1673ffffffffffffffffffffffffffffffffffffffff16815260200190815260200160002060009054906101000a900460ff1615610bfa576040517f08c379a00000000000000000000000000000000000000000000000000000000081526004018080602001828103825260158152602001807f5265656e7472616e63792070726f74656374696f6e000000000000000000000081525060200191505060405180910390fd5b6001609760008373ffffffffffffffffffffffffffffffffffffffff1673ffffffffffffffffffffffffffffffffffffffff16815260200190815260200160002060006101000a81548160ff021916908315150217905550610c5b85612830565b506000609e60008773ffffffffffffffffffffffffffffffffffffffff1673ffffffffffffffffffffffffffffffffffffffff1681526020019081526020016000209050610ced856040518060400160405280601b81526020017f5374616b696e673a20496e73756666696369656e742066756e647300000000008152508360000154612ef29092919063ffffffff16565b8160000181905550610d0c858260010154612fb290919063ffffffff16565b81600101819055508573ffffffffffffffffffffffffffffffffffffffff167ff97a274face0b5517365ad396b1fdba6f68bd3135ef603e44272adba3af5a1e0866040518082815260200191505060405180910390a260019350506000609760008373ffffffffffffffffffffffffffffffffffffffff1673ffffffffffffffffffffffffffffffffffffffff16815260200190815260200160002060006101000a81548160ff021916908315150217905550505092915050565b609c60009054906101000a900473ffffffffffffffffffffffffffffffffffffffff1681565b600033609760008273ffffffffffffffffffffffffffffffffffffffff1673ffffffffffffffffffffffffffffffffffffffff16815260200190815260200160002060009054906101000a900460ff1615610eb0576040517f08c379a00000000000000000000000000000000000000000000000000000000081526004018080602001828103825260158152602001807f5265656e7472616e63792070726f74656374696f6e000000000000000000000081525060200191505060405180910390fd5b6001609760008373ffffffffffffffffffffffffffffffffffffffff1673ffffffffffffffffffffffffffffffffffffffff16815260200190815260200160002060006101000a81548160ff0219169083151502179055506000609e60003373ffffffffffffffffffffffffffffffffffffffff1673ffffffffffffffffffffffffffffffffffffffff16815260200190815260200160002090506000816000015411610fc5576040517f08c379a000000000000000000000000000000000000000000000000000000000815260040180806020018281038252601b8152602001807f596f7520646f6e742068617665207374616b652062616c616e6365000000000081525060200191505060405180910390fd5b6000610fe282600101548360000154612fb290919063ffffffff16565b90506000826000018190555060008260010154111561104b5761103e61102b611018846001015484612fb290919063ffffffff16565b846000015461303a90919063ffffffff16565b836003015461308490919063ffffffff16565b8260030181905550611060565b60008260030181905550600082600201819055505b6110758160a05461310a90919063ffffffff16565b60a0819055506110853382613154565b3373ffffffffffffffffffffffffffffffffffffffff167f2cfce4af01bcb9d6cf6c84ee1b7c491100b8695368264146a94d71e10a63083f826040518082815260200191505060405180910390a26001935050506000609760008373ffffffffffffffffffffffffffffffffffffffff1673ffffffffffffffffffffffffffffffffffffffff16815260200190815260200160002060006101000a81548160ff0219169083151502179055505090565b61113d612eea565b73ffffffffffffffffffffffffffffffffffffffff16606560009054906101000a900473ffffffffffffffffffffffffffffffffffffffff1673ffffffffffffffffffffffffffffffffffffffff16146111ff576040517f08c379a00000000000000000000000000000000000000000000000000000000081526004018080602001828103825260208152602001807f4f776e61626c653a2063616c6c6572206973206e6f7420746865206f776e657281525060200191505060405180910390fd5b80609a60006101000a81548173ffffffffffffffffffffffffffffffffffffffff021916908373ffffffffffffffffffffffffffffffffffffffff16021790555050565b33609760008273ffffffffffffffffffffffffffffffffffffffff1673ffffffffffffffffffffffffffffffffffffffff16815260200190815260200160002060009054906101000a900460ff1615611304576040517f08c379a00000000000000000000000000000000000000000000000000000000081526004018080602001828103825260158152602001807f5265656e7472616e63792070726f74656374696f6e000000000000000000000081525060200191505060405180910390fd5b6001609760008373ffffffffffffffffffffffffffffffffffffffff1673ffffffffffffffffffffffffffffffffffffffff16815260200190815260200160002060006101000a81548160ff0219169083151502179055506000609854116113d4576040517f08c379a000000000000000000000000000000000000000000000000000000000815260040180806020018281038252601a8152602001807f436f6e7472616374206e6f7420636c61696d61626c652079657400000000000081525060200191505060405180910390fd5b60006113df3361251d565b905060008111611457576040517f08c379a000000000000000000000000000000000000000000000000000000000815260040180806020018281038252601c8152602001807f5468657265206973206e6f207265776172647320746f20636c61696d0000000081525060200191505060405180910390fd5b6000609e60003373ffffffffffffffffffffffffffffffffffffffff1673ffffffffffffffffffffffffffffffffffffffff16815260200190815260200160002090506114b1828260040154612fb290919063ffffffff16565b81600401819055503373ffffffffffffffffffffffffffffffffffffffff166108fc839081150290604051600060405180830381858888f19350505050611560576040517f08c379a00000000000000000000000000000000000000000000000000000000081526004018080602001828103825260168152602001807f5265776172647320636f756c64206e6f742073656e740000000000000000000081525060200191505060405180910390fd5b7f75690555e75b04e280e646889defdcbefd8401507e5394d1173fd84290944c293383604051808373ffffffffffffffffffffffffffffffffffffffff1673ffffffffffffffffffffffffffffffffffffffff1681526020018281526020019250505060405180910390a150506000609760008373ffffffffffffffffffffffffffffffffffffffff1673ffffffffffffffffffffffffffffffffffffffff16815260200190815260200160002060006101000a81548160ff02191690831515021790555050565b60985481565b60995481565b61163c612eea565b73ffffffffffffffffffffffffffffffffffffffff16606560009054906101000a900473ffffffffffffffffffffffffffffffffffffffff1673ffffffffffffffffffffffffffffffffffffffff16146116fe576040517f08c379a00000000000000000000000000000000000000000000000000000000081526004018080602001828103825260208152602001807f4f776e61626c653a2063616c6c6572206973206e6f7420746865206f776e657281525060200191505060405180910390fd5b8060988190555050565b609d60009054906101000a900473ffffffffffffffffffffffffffffffffffffffff1681565b611736612eea565b73ffffffffffffffffffffffffffffffffffffffff16606560009054906101000a900473ffffffffffffffffffffffffffffffffffffffff1673ffffffffffffffffffffffffffffffffffffffff16146117f8576040517f08c379a00000000000000000000000000000000000000000000000000000000081526004018080602001828103825260208152602001807f4f776e61626c653a2063616c6c6572206973206e6f7420746865206f776e657281525060200191505060405180910390fd5b600073ffffffffffffffffffffffffffffffffffffffff16606560009054906101000a900473ffffffffffffffffffffffffffffffffffffffff1673ffffffffffffffffffffffffffffffffffffffff167f8be0079c531659141344cd1fd0a4f28419497f9722a3daafe3b4186f6b6457e060405160405180910390a36000606560006101000a81548173ffffffffffffffffffffffffffffffffffffffff021916908373ffffffffffffffffffffffffffffffffffffffff160217905550565b6118c1612eea565b73ffffffffffffffffffffffffffffffffffffffff16606560009054906101000a900473ffffffffffffffffffffffffffffffffffffffff1673ffffffffffffffffffffffffffffffffffffffff1614611983576040517f08c379a00000000000000000000000000000000000000000000000000000000081526004018080602001828103825260208152602001807f4f776e61626c653a2063616c6c6572206973206e6f7420746865206f776e657281525060200191505060405180910390fd5b80609c60006101000a81548173ffffffffffffffffffffffffffffffffffffffff021916908373ffffffffffffffffffffffffffffffffffffffff16021790555050565b6000609d60009054906101000a900473ffffffffffffffffffffffffffffffffffffffff168073ffffffffffffffffffffffffffffffffffffffff163373ffffffffffffffffffffffffffffffffffffffff1614611a70576040517f08c379a00000000000000000000000000000000000000000000000000000000081526004018080602001828103825260288152602001806138596028913960400191505060405180910390fd5b83609760008273ffffffffffffffffffffffffffffffffffffffff1673ffffffffffffffffffffffffffffffffffffffff16815260200190815260200160002060009054906101000a900460ff1615611b31576040517f08c379a00000000000000000000000000000000000000000000000000000000081526004018080602001828103825260158152602001807f5265656e7472616e63792070726f74656374696f6e000000000000000000000081525060200191505060405180910390fd5b6001609760008373ffffffffffffffffffffffffffffffffffffffff1673ffffffffffffffffffffffffffffffffffffffff16815260200190815260200160002060006101000a81548160ff0219169083151502179055506000609e60008773ffffffffffffffffffffffffffffffffffffffff1673ffffffffffffffffffffffffffffffffffffffff1681526020019081526020016000209050611c1a856040518060400160405280601281526020017f496e73756666696369656e742066756e647300000000000000000000000000008152508360010154612ef29092919063ffffffff16565b8160010181905550611c39858260000154612fb290919063ffffffff16565b81600001819055508573ffffffffffffffffffffffffffffffffffffffff167f2cfce4af01bcb9d6cf6c84ee1b7c491100b8695368264146a94d71e10a63083f866040518082815260200191505060405180910390a260019350506000609760008373ffffffffffffffffffffffffffffffffffffffff1673ffffffffffffffffffffffffffffffffffffffff16815260200190815260200160002060006101000a81548160ff021916908315150217905550505092915050565b6000611cfe612eea565b73ffffffffffffffffffffffffffffffffffffffff16609d60009054906101000a900473ffffffffffffffffffffffffffffffffffffffff1673ffffffffffffffffffffffffffffffffffffffff1614611da3576040517f08c379a000000000000000000000000000000000000000000000000000000000815260040180806020018281038252602d8152602001806137dd602d913960400191505060405180910390fd5b6000609e60008673ffffffffffffffffffffffffffffffffffffffff1673ffffffffffffffffffffffffffffffffffffffff16815260200190815260200160002090506000611e9f609b60009054906101000a900473ffffffffffffffffffffffffffffffffffffffff1673ffffffffffffffffffffffffffffffffffffffff166353b651536040518163ffffffff1660e01b8152600401602060405180830381600087803b158015611e5557600080fd5b505af1158015611e69573d6000803e3d6000fd5b505050506040513d6020811015611e7f57600080fd5b81019080805190602001909291905050508661308490919063ffffffff16565b90508482600101541015611f1b576040517f08c379a000000000000000000000000000000000000000000000000000000000815260040180806020018281038252601c8152602001807f496e73756666696369656e74207374616b696e672062616c616e63650000000081525060200191505060405180910390fd5b611f3284836001015461310a90919063ffffffff16565b8260010181905550611f6381611f55868560000154612fb290919063ffffffff16565b61310a90919063ffffffff16565b8260000181905550611f9c611f7787612d3c565b611f8e87856003015461308490919063ffffffff16565b61303a90919063ffffffff16565b8260030181905550611fb98160a05461310a90919063ffffffff16565b60a081905550609c60009054906101000a900473ffffffffffffffffffffffffffffffffffffffff1673ffffffffffffffffffffffffffffffffffffffff1663a9059cbb609b60009054906101000a900473ffffffffffffffffffffffffffffffffffffffff16836040518363ffffffff1660e01b8152600401808373ffffffffffffffffffffffffffffffffffffffff1673ffffffffffffffffffffffffffffffffffffffff16815260200182815260200192505050602060405180830381600087803b15801561208a57600080fd5b505af115801561209e573d6000803e3d6000fd5b505050506040513d60208110156120b457600080fd5b810190808051906020019092919050505050609b60009054906101000a900473ffffffffffffffffffffffffffffffffffffffff1673ffffffffffffffffffffffffffffffffffffffff1663fa3fbe08866040518263ffffffff1660e01b815260040180828152602001915050602060405180830381600087803b15801561213b57600080fd5b505af115801561214f573d6000803e3d6000fd5b505050506040513d602081101561216557600080fd5b8101908080519060200190929190505050508573ffffffffffffffffffffffffffffffffffffffff167f0a4421f2ef32f0aca569f26b96b84995d89eb00874f3c73d9b53a1d5bf96f1c88287604051808381526020018281526020019250505060405180910390a280925050509392505050565b6000606560009054906101000a900473ffffffffffffffffffffffffffffffffffffffff16905090565b61220b612eea565b73ffffffffffffffffffffffffffffffffffffffff16609d60009054906101000a900473ffffffffffffffffffffffffffffffffffffffff1673ffffffffffffffffffffffffffffffffffffffff16146122b0576040517f08c379a000000000000000000000000000000000000000000000000000000000815260040180806020018281038252602d8152602001806137dd602d913960400191505060405180910390fd5b6122c534609f54612fb290919063ffffffff16565b609f819055507f1a82ed3bbc7037be59b403f919eb66af9e715aa7388c7c401629a27a56628ab78134604051808381526020018281526020019250505060405180910390a150565b60a05481565b600060019054906101000a900460ff168061233257506123316132ae565b5b8061234957506000809054906101000a900460ff16155b61239e576040517f08c379a000000000000000000000000000000000000000000000000000000000815260040180806020018281038252602e81526020018061382b602e913960400191505060405180910390fd5b60008060019054906101000a900460ff1615905080156123ee576001600060016101000a81548160ff02191690831515021790555060016000806101000a81548160ff0219169083151502179055505b6123f66132c5565b4360998190555083609c60006101000a81548173ffffffffffffffffffffffffffffffffffffffff021916908373ffffffffffffffffffffffffffffffffffffffff16021790555082609d60006101000a81548173ffffffffffffffffffffffffffffffffffffffff021916908373ffffffffffffffffffffffffffffffffffffffff16021790555081609a60006101000a81548173ffffffffffffffffffffffffffffffffffffffff021916908373ffffffffffffffffffffffffffffffffffffffff16021790555080156124e15760008060016101000a81548160ff0219169083151502179055505b50505050565b609e6020528060005260406000206000915090508060000154908060010154908060020154908060030154908060040154905085565b6000612527613741565b609e60008473ffffffffffffffffffffffffffffffffffffffff1673ffffffffffffffffffffffffffffffffffffffff1681526020019081526020016000206040518060a001604052908160008201548152602001600182015481526020016002820154815260200160038201548152602001600482015481525050905060006125d860a0546125ca6125b987612d3c565b609f5461308490919063ffffffff16565b61303a90919063ffffffff16565b90506125f182608001518261310a90919063ffffffff16565b92505050919050565b609a60009054906101000a900473ffffffffffffffffffffffffffffffffffffffff1681565b612628612eea565b73ffffffffffffffffffffffffffffffffffffffff16606560009054906101000a900473ffffffffffffffffffffffffffffffffffffffff1673ffffffffffffffffffffffffffffffffffffffff16146126ea576040517f08c379a00000000000000000000000000000000000000000000000000000000081526004018080602001828103825260208152602001807f4f776e61626c653a2063616c6c6572206973206e6f7420746865206f776e657281525060200191505060405180910390fd5b600073ffffffffffffffffffffffffffffffffffffffff168173ffffffffffffffffffffffffffffffffffffffff161415612770576040517f08c379a00000000000000000000000000000000000000000000000000000000081526004018080602001828103825260268152602001806137716026913960400191505060405180910390fd5b8073ffffffffffffffffffffffffffffffffffffffff16606560009054906101000a900473ffffffffffffffffffffffffffffffffffffffff1673ffffffffffffffffffffffffffffffffffffffff167f8be0079c531659141344cd1fd0a4f28419497f9722a3daafe3b4186f6b6457e060405160405180910390a380606560006101000a81548173ffffffffffffffffffffffffffffffffffffffff021916908373ffffffffffffffffffffffffffffffffffffffff16021790555050565b600081609760008273ffffffffffffffffffffffffffffffffffffffff1673ffffffffffffffffffffffffffffffffffffffff16815260200190815260200160002060009054906101000a900460ff16156128f3576040517f08c379a00000000000000000000000000000000000000000000000000000000081526004018080602001828103825260158152602001807f5265656e7472616e63792070726f74656374696f6e000000000000000000000081525060200191505060405180910390fd5b6001609760008373ffffffffffffffffffffffffffffffffffffffff1673ffffffffffffffffffffffffffffffffffffffff16815260200190815260200160002060006101000a81548160ff0219169083151502179055506000609c60009054906101000a900473ffffffffffffffffffffffffffffffffffffffff1673ffffffffffffffffffffffffffffffffffffffff1663dd62ed3e85306040518363ffffffff1660e01b8152600401808373ffffffffffffffffffffffffffffffffffffffff1673ffffffffffffffffffffffffffffffffffffffff1681526020018273ffffffffffffffffffffffffffffffffffffffff1673ffffffffffffffffffffffffffffffffffffffff1681526020019250505060206040518083038186803b158015612a2057600080fd5b505afa158015612a34573d6000803e3d6000fd5b505050506040513d6020811015612a4a57600080fd5b810190808051906020019092919050505090506000811415612a70576000925050612cde565b609c60009054906101000a900473ffffffffffffffffffffffffffffffffffffffff1673ffffffffffffffffffffffffffffffffffffffff166323b872dd8530846040518463ffffffff1660e01b8152600401808473ffffffffffffffffffffffffffffffffffffffff1673ffffffffffffffffffffffffffffffffffffffff1681526020018373ffffffffffffffffffffffffffffffffffffffff1673ffffffffffffffffffffffffffffffffffffffff1681526020018281526020019350505050602060405180830381600087803b158015612b4d57600080fd5b505af1158015612b61573d6000803e3d6000fd5b505050506040513d6020811015612b7757600080fd5b8101908080519060200190929190505050612bdd576040517f08c379a00000000000000000000000000000000000000000000000000000000081526004018080602001828103825260468152602001806137976046913960600191505060405180910390fd5b6000609e60008673ffffffffffffffffffffffffffffffffffffffff1673ffffffffffffffffffffffffffffffffffffffff1681526020019081526020016000209050818160030181905550612c40438260020154612fb290919063ffffffff16565b8160020181905550612c5f828260000154612fb290919063ffffffff16565b8160000181905550612c7c8260a054612fb290919063ffffffff16565b60a0819055508473ffffffffffffffffffffffffffffffffffffffff167f5af417134f72a9d41143ace85b0a26dce6f550f894f2cbc1eeee8810603d91b64384604051808381526020018281526020019250505060405180910390a281935050505b6000609760008373ffffffffffffffffffffffffffffffffffffffff1673ffffffffffffffffffffffffffffffffffffffff16815260200190815260200160002060006101000a81548160ff02191690831515021790555050919050565b6000612dd5609e60008473ffffffffffffffffffffffffffffffffffffffff1673ffffffffffffffffffffffffffffffffffffffff16815260200190815260200160002060010154609e60008573ffffffffffffffffffffffffffffffffffffffff1673ffffffffffffffffffffffffffffffffffffffff16815260200190815260200160002060000154612fb290919063ffffffff16565b9050919050565b612de4612eea565b73ffffffffffffffffffffffffffffffffffffffff16606560009054906101000a900473ffffffffffffffffffffffffffffffffffffffff1673ffffffffffffffffffffffffffffffffffffffff1614612ea6576040517f08c379a00000000000000000000000000000000000000000000000000000000081526004018080602001828103825260208152602001807f4f776e61626c653a2063616c6c6572206973206e6f7420746865206f776e657281525060200191505060405180910390fd5b80609d60006101000a81548173ffffffffffffffffffffffffffffffffffffffff021916908373ffffffffffffffffffffffffffffffffffffffff16021790555050565b600033905090565b6000838311158290612f9f576040517f08c379a00000000000000000000000000000000000000000000000000000000081526004018080602001828103825283818151815260200191508051906020019080838360005b83811015612f64578082015181840152602081019050612f49565b50505050905090810190601f168015612f915780820380516001836020036101000a031916815260200191505b509250505060405180910390fd5b5060008385039050809150509392505050565b600080828401905083811015613030576040517f08c379a000000000000000000000000000000000000000000000000000000000815260040180806020018281038252601b8152602001807f536166654d6174683a206164646974696f6e206f766572666c6f77000000000081525060200191505060405180910390fd5b8091505092915050565b600061307c83836040518060400160405280601a81526020017f536166654d6174683a206469766973696f6e206279207a65726f0000000000008152506133d4565b905092915050565b6000808314156130975760009050613104565b60008284029050828482816130a857fe5b04146130ff576040517f08c379a000000000000000000000000000000000000000000000000000000000815260040180806020018281038252602181526020018061380a6021913960400191505060405180910390fd5b809150505b92915050565b600061314c83836040518060400160405280601e81526020017f536166654d6174683a207375627472616374696f6e206f766572666c6f770000815250612ef2565b905092915050565b609c60009054906101000a900473ffffffffffffffffffffffffffffffffffffffff1673ffffffffffffffffffffffffffffffffffffffff1663a9059cbb83836040518363ffffffff1660e01b8152600401808373ffffffffffffffffffffffffffffffffffffffff1673ffffffffffffffffffffffffffffffffffffffff16815260200182815260200192505050602060405180830381600087803b1580156131fd57600080fd5b505af1158015613211573d6000803e3d6000fd5b505050506040513d602081101561322757600080fd5b81019080805190602001909291905050506132aa576040517f08c379a00000000000000000000000000000000000000000000000000000000081526004018080602001828103825260158152602001807f4661696c656420746f6b656e207472616e73666572000000000000000000000081525060200191505060405180910390fd5b5050565b6000803090506000813b9050600081149250505090565b600060019054906101000a900460ff16806132e457506132e36132ae565b5b806132fb57506000809054906101000a900460ff16155b613350576040517f08c379a000000000000000000000000000000000000000000000000000000000815260040180806020018281038252602e81526020018061382b602e913960400191505060405180910390fd5b60008060019054906101000a900460ff1615905080156133a0576001600060016101000a81548160ff02191690831515021790555060016000806101000a81548160ff0219169083151502179055505b6133a861349a565b6133b0613599565b80156133d15760008060016101000a81548160ff0219169083151502179055505b50565b60008083118290613480576040517f08c379a00000000000000000000000000000000000000000000000000000000081526004018080602001828103825283818151815260200191508051906020019080838360005b8381101561344557808201518184015260208101905061342a565b50505050905090810190601f1680156134725780820380516001836020036101000a031916815260200191505b509250505060405180910390fd5b50600083858161348c57fe5b049050809150509392505050565b600060019054906101000a900460ff16806134b957506134b86132ae565b5b806134d057506000809054906101000a900460ff16155b613525576040517f08c379a000000000000000000000000000000000000000000000000000000000815260040180806020018281038252602e81526020018061382b602e913960400191505060405180910390fd5b60008060019054906101000a900460ff161590508015613575576001600060016101000a81548160ff02191690831515021790555060016000806101000a81548160ff0219169083151502179055505b80156135965760008060016101000a81548160ff0219169083151502179055505b50565b600060019054906101000a900460ff16806135b857506135b76132ae565b5b806135cf57506000809054906101000a900460ff16155b613624576040517f08c379a000000000000000000000000000000000000000000000000000000000815260040180806020018281038252602e81526020018061382b602e913960400191505060405180910390fd5b60008060019054906101000a900460ff161590508015613674576001600060016101000a81548160ff02191690831515021790555060016000806101000a81548160ff0219169083151502179055505b600061367e612eea565b905080606560006101000a81548173ffffffffffffffffffffffffffffffffffffffff021916908373ffffffffffffffffffffffffffffffffffffffff1602179055508073ffffffffffffffffffffffffffffffffffffffff16600073ffffffffffffffffffffffffffffffffffffffff167f8be0079c531659141344cd1fd0a4f28419497f9722a3daafe3b4186f6b6457e060405160405180910390a350801561373e5760008060016101000a81548160ff0219169083151502179055505b50565b6040518060a001604052806000815260200160008152602001600081526020016000815260200160008152509056fe4f776e61626c653a206e6577206f776e657220697320746865207a65726f2061646472657373416c6c6f77616e636520436c61696d204572726f723a20546f6b656e7320636f756c64206e6f74207472616e736665727265642066726f6d20616e6b7220636f6e74726163744f776e61626c653a2063616c6c6572206973206e6f7420746865206d6963726f706f6f6c20636f6e7472616374536166654d6174683a206d756c7469706c69636174696f6e206f766572666c6f77436f6e747261637420696e7374616e63652068617320616c7265616479206265656e20696e697469616c697a6564596f7520617265206e6f7420616c6c6f77656420746f2072756e20746869732066756e6374696f6ea2646970667358221220b30995264ae4d6baea3c5eda6c73b644aa64e4287650592e6e483e81e4eff0fd64736f6c63430006080033",
  "immutableReferences": {},
  "source": "// SPDX-License-Identifier: UNLICENSED\npragma solidity ^0.6.8;\n\nimport \"@openzeppelin/contracts-ethereum-package/contracts/math/SafeMath.sol\";\nimport \"@openzeppelin/contracts-ethereum-package/contracts/math/SignedSafeMath.sol\";\nimport \"@openzeppelin/contracts-ethereum-package/contracts/access/Ownable.sol\";\nimport \"./lib/Lockable.sol\";\nimport \"./lib/interfaces/IAETH.sol\";\nimport \"./lib/interfaces/IMarketPlace.sol\";\n\n// TODO: user can join late (reward should be reduced)\ncontract Staking is OwnableUpgradeSafe, Lockable {\n    using SafeMath for uint256;\n    using SignedSafeMath for int256;\n\n    event Stake(\n        address indexed staker,\n        uint256 blockNumber,\n        uint256 value\n    );\n\n    event Freeze(\n        address indexed staker,\n        uint256 value\n    );\n\n    event Unfreeze(\n        address indexed staker,\n        uint256 value\n    );\n\n    event Unstake(\n        address indexed staker,\n        uint256 value\n    );\n\n    event RewardIncome(\n        uint256 poolIndex,\n        uint256 amount\n    );\n\n    event Compensate(address indexed provider, uint256 ankrAmount, uint256 etherAmount);\n\n    event RewardClaim(\n        address payable staker,\n        uint256 amount\n    );\n\n    struct UserStake {\n        uint256 available;\n        uint256 frozen;\n        uint256 lastBlock;\n        uint256 weight;\n\n        uint256 claimedRewardAmount;\n    }\n\n    // rewards will be claimable after selected block, rewards will calculated based on this too\n    uint256 public claimableAfter;\n\n    // start of contract\n    uint256 public startBlock;\n\n    IAETH public AETHContract;\n\n    IMarketPlace _marketPlaceContract;\n\n    IERC20 public _ankrContract;\n\n    address public _microPoolContract;\n\n    mapping(address => UserStake) public _stakes;\n\n    uint256 public totalRewards;\n    uint256 public totalStakes;\n\n    function initialize(address ankrContract, address microPoolContract, address aethContract) public initializer {\n        OwnableUpgradeSafe.__Ownable_init();\n\n        startBlock = block.number;\n\n        _ankrContract = IERC20(ankrContract);\n        _microPoolContract = microPoolContract;\n        AETHContract = IAETH(aethContract);\n    }\n\n    modifier addressAllowed(address addr) {\n        require(msg.sender == addr, \"You are not allowed to run this function\");\n        _;\n    }\n\n    modifier onlyMicroPoolContract() {\n        require(_microPoolContract == _msgSender(), \"Ownable: caller is not the micropool contract\");\n        _;\n    }\n\n    /*\n        This function used to stake ankr\n    */\n    function claimAnkrAndStake(address user) public unlocked(user) returns (uint256) {\n        uint256 allowance = _ankrContract.allowance(user, address(this));\n\n        if (allowance == 0) {\n            return 0;\n        }\n\n        require(_ankrContract.transferFrom(user, address(this), allowance), \"Allowance Claim Error: Tokens could not transferred from ankr contract\");\n\n\n        UserStake storage stake = _stakes[user];\n\n        // FIXME\n        stake.weight = allowance;\n\n        //        if (stake.weight > 0) {\n        //            stake.weight = stake.weight.mul(block.number).add(allowance.mul(stake.lastBlock)) / stake.lastBlock.add(block.number);\n        //        }\n        //        else {\n        //            stake.weight = allowance;\n        //        }\n\n        stake.lastBlock = stake.lastBlock.add(block.number);\n        stake.available = stake.available.add(allowance);\n\n        totalStakes = totalStakes.add(allowance);\n\n        emit Stake(user, block.number, allowance);\n\n        return allowance;\n    }\n\n    // this function will called by micro pool contract to freeze staked balance and claim allowance if exists\n    function freeze(address user, uint256 amount)\n    public\n    addressAllowed(_microPoolContract)\n    unlocked(msg.sender)\n    returns (bool)\n    {\n        claimAnkrAndStake(user);\n        UserStake storage userStake = _stakes[user];\n\n        userStake.available = userStake.available.sub(amount, \"Staking: Insufficient funds\");\n\n        userStake.frozen = userStake.frozen.add(amount);\n\n        emit Freeze(user, amount);\n        return true;\n    }\n\n    function updateAnkrContract(address ankrContract) public onlyOwner {\n        _ankrContract = IERC20(ankrContract);\n    }\n\n    function updateMicroPoolContract(address microPoolContract)\n    public\n    onlyOwner\n    {\n        _microPoolContract = microPoolContract;\n    }\n\n    function transferToken(address to, uint256 amount) private {\n        require(_ankrContract.transfer(to, amount), \"Failed token transfer\");\n    }\n\n    function unstake() public unlocked(msg.sender) returns (bool) {\n        UserStake storage stake = _stakes[msg.sender];\n        require(stake.available > 0, \"You dont have stake balance\");\n\n        uint256 available = stake.available.add(stake.frozen);\n\n        stake.available = 0;\n\n        if (stake.frozen > 0) {\n            // FIXME: int safemath\n            stake.weight = stake.weight.mul(stake.available.div(available.add(stake.frozen)));\n        }\n        else {\n            stake.weight = 0;\n            stake.lastBlock = 0;\n        }\n\n        totalStakes = totalStakes.sub(available);\n\n        transferToken(msg.sender, available);\n\n        emit Unfreeze(msg.sender, available);\n\n        return true;\n    }\n\n    function unfreeze(address addr, uint256 amount)\n    public\n    addressAllowed(_microPoolContract)\n    unlocked(addr)\n    returns (bool)\n    {\n        UserStake storage userStake = _stakes[addr];\n        userStake.frozen = userStake.frozen.sub(amount, \"Insufficient funds\");\n        userStake.available = userStake.available.add(amount);\n\n        emit Unfreeze(addr, amount);\n        return true;\n    }\n\n    function reward(uint256 poolIndex) payable external onlyMicroPoolContract {\n        totalRewards = totalRewards.add(msg.value);\n\n        emit RewardIncome(poolIndex, msg.value);\n    }\n\n    function compensatePoolLoss(address provider, uint256 amount, uint256 providerStakeAmount) external onlyMicroPoolContract returns (uint256) {\n        UserStake storage stake = _stakes[provider];\n\n        // ankr amount equals to needed ether\n        uint256 ankrAmount = amount.mul(_marketPlaceContract.ankrEthRate());\n\n        // TODO: this should be solved\n        require(stake.frozen >= amount, \"Insufficient staking balance\");\n\n        stake.frozen = stake.frozen.sub(providerStakeAmount);\n        stake.available = stake.available.add(providerStakeAmount).sub(ankrAmount);\n        stake.weight = stake.weight.mul(amount).div(totalStakesOf(provider));\n\n        totalStakes = totalStakes.sub(ankrAmount);\n\n        _ankrContract.transfer(address(_marketPlaceContract), ankrAmount);\n\n        _marketPlaceContract.burnAeth(amount);\n\n        emit Compensate(provider, ankrAmount, amount);\n\n        return ankrAmount;\n    }\n\n    function totalStakesOf(address staker) public view returns (uint256) {\n        return _stakes[staker].available.add(_stakes[staker].frozen);\n    }\n\n    function claimableStakerReward(address _staker) public view returns (uint256) {\n        UserStake memory staker = _stakes[_staker];\n\n        // TODO: Time based calculation\n\n        uint256 totalEarned = totalRewards.mul(totalStakesOf(_staker)).div(totalStakes);\n        return totalEarned.sub(staker.claimedRewardAmount);\n    }\n\n    function claimRewards() public payable unlocked(msg.sender) {\n        require(claimableAfter > 0, \"Contract not claimable yet\");\n\n        uint256 claimableReward = claimableStakerReward(msg.sender);\n\n        require(claimableReward > 0, \"There is no rewards to claim\");\n\n        UserStake storage stake = _stakes[msg.sender];\n        stake.claimedRewardAmount = stake.claimedRewardAmount.add(claimableReward);\n\n        require(msg.sender.send(claimableReward), \"Rewards could not sent\");\n\n        emit RewardClaim(msg.sender, claimableReward);\n    }\n\n    function updateMarketPlaceContract(address marketPlaceContract) external onlyOwner {\n        _marketPlaceContract = IMarketPlace(marketPlaceContract);\n    }\n\n    function updateAETHContract(address aethContract) public onlyOwner {\n        AETHContract = IAETH(aethContract);\n    }\n\n    function setClaimableBlock(uint256 blockNumber) public onlyOwner {\n        claimableAfter = blockNumber;\n    }\n}\n",
  "sourcePath": "/Users/anilkucukrecep/Code/Personal/st/contracts/contracts/Staking.sol",
  "compiler": {
    "name": "solc",
    "version": "0.6.8+commit.0bbfe453.Emscripten.clang"
  },
  "schemaVersion": "3.3.0",
  "updatedAt": "2020-10-21T22:57:56.810Z",
  "devdoc": {
    "methods": {
      "owner()": {
        "details": "Returns the address of the current owner."
      },
      "renounceOwnership()": {
        "details": "Leaves the contract without owner. It will not be possible to call `onlyOwner` functions anymore. Can only be called by the current owner.     * NOTE: Renouncing ownership will leave the contract without an owner, thereby removing any functionality that is only available to the owner."
      },
      "transferOwnership(address)": {
        "details": "Transfers ownership of the contract to a new account (`newOwner`). Can only be called by the current owner."
      }
    }
  },
  "userdoc": {
    "methods": {}
  }
}