{
  "contractName": "SystemParameters",
  "abi": [
    {
      "anonymous": false,
      "inputs": [
        {
          "indexed": true,
          "internalType": "address",
          "name": "previousOwner",
          "type": "address"
        },
        {
          "indexed": true,
          "internalType": "address",
          "name": "newOwner",
          "type": "address"
        }
      ],
      "name": "OwnershipTransferred",
      "type": "event"
    },
    {
      "inputs": [],
      "name": "PROVIDER_MINIMUM_STAKING",
      "outputs": [
        {
          "internalType": "uint256",
          "name": "",
          "type": "uint256"
        }
      ],
      "stateMutability": "view",
      "type": "function",
      "constant": true
    },
    {
      "inputs": [],
      "name": "REQUESTER_MINIMUM_POOL_STAKING",
      "outputs": [
        {
          "internalType": "uint256",
          "name": "",
          "type": "uint256"
        }
      ],
      "stateMutability": "view",
      "type": "function",
      "constant": true
    },
    {
      "inputs": [],
      "name": "SLASHINGS_FOR_MIGRATION",
      "outputs": [
        {
          "internalType": "uint256",
          "name": "",
          "type": "uint256"
        }
      ],
      "stateMutability": "view",
      "type": "function",
      "constant": true
    },
    {
      "inputs": [],
      "name": "owner",
      "outputs": [
        {
          "internalType": "address",
          "name": "",
          "type": "address"
        }
      ],
      "stateMutability": "view",
      "type": "function",
      "constant": true
    },
    {
      "inputs": [],
      "name": "renounceOwnership",
      "outputs": [],
      "stateMutability": "nonpayable",
      "type": "function"
    },
    {
      "inputs": [
        {
          "internalType": "address",
          "name": "newOwner",
          "type": "address"
        }
      ],
      "name": "transferOwnership",
      "outputs": [],
      "stateMutability": "nonpayable",
      "type": "function"
    },
    {
      "inputs": [],
      "name": "initialize",
      "outputs": [],
      "stateMutability": "nonpayable",
      "type": "function"
    }
  ],
  "bytecode": "0x608060405234801561001057600080fd5b5061072c806100206000396000f3fe608060405234801561001057600080fd5b506004361061007d5760003560e01c8063715018a61161005b578063715018a6146100dc5780638129fc1c146100e65780638da5cb5b146100f0578063f2fde38b1461013a5761007d565b80631aea175e1461008257806321011331146100a05780636c70b1e5146100be575b600080fd5b61008a61017e565b6040518082815260200191505060405180910390f35b6100a8610184565b6040518082815260200191505060405180910390f35b6100c661018a565b6040518082815260200191505060405180910390f35b6100e4610190565b005b6100ee61031b565b005b6100f8610449565b604051808273ffffffffffffffffffffffffffffffffffffffff1673ffffffffffffffffffffffffffffffffffffffff16815260200191505060405180910390f35b61017c6004803603602081101561015057600080fd5b81019080803573ffffffffffffffffffffffffffffffffffffffff169060200190929190505050610473565b005b60995481565b60985481565b60975481565b610198610683565b73ffffffffffffffffffffffffffffffffffffffff16606560009054906101000a900473ffffffffffffffffffffffffffffffffffffffff1673ffffffffffffffffffffffffffffffffffffffff161461025a576040517f08c379a00000000000000000000000000000000000000000000000000000000081526004018080602001828103825260208152602001807f4f776e61626c653a2063616c6c6572206973206e6f7420746865206f776e657281525060200191505060405180910390fd5b600073ffffffffffffffffffffffffffffffffffffffff16606560009054906101000a900473ffffffffffffffffffffffffffffffffffffffff1673ffffffffffffffffffffffffffffffffffffffff167f8be0079c531659141344cd1fd0a4f28419497f9722a3daafe3b4186f6b6457e060405160405180910390a36000606560006101000a81548173ffffffffffffffffffffffffffffffffffffffff021916908373ffffffffffffffffffffffffffffffffffffffff160217905550565b600060019054906101000a900460ff168061033a575061033961068b565b5b8061035157506000809054906101000a900460ff16155b6103a6576040517f08c379a000000000000000000000000000000000000000000000000000000000815260040180806020018281038252602e8152602001806106c9602e913960400191505060405180910390fd5b60008060019054906101000a900460ff1615905080156103f6576001600060016101000a81548160ff02191690831515021790555060016000806101000a81548160ff0219169083151502179055505b69152d02c7e14af680000060978190555067016345785d8a000060988190555067016345785d8a000060998190555080156104465760008060016101000a81548160ff0219169083151502179055505b50565b6000606560009054906101000a900473ffffffffffffffffffffffffffffffffffffffff16905090565b61047b610683565b73ffffffffffffffffffffffffffffffffffffffff16606560009054906101000a900473ffffffffffffffffffffffffffffffffffffffff1673ffffffffffffffffffffffffffffffffffffffff161461053d576040517f08c379a00000000000000000000000000000000000000000000000000000000081526004018080602001828103825260208152602001807f4f776e61626c653a2063616c6c6572206973206e6f7420746865206f776e657281525060200191505060405180910390fd5b600073ffffffffffffffffffffffffffffffffffffffff168173ffffffffffffffffffffffffffffffffffffffff1614156105c3576040517f08c379a00000000000000000000000000000000000000000000000000000000081526004018080602001828103825260268152602001806106a36026913960400191505060405180910390fd5b8073ffffffffffffffffffffffffffffffffffffffff16606560009054906101000a900473ffffffffffffffffffffffffffffffffffffffff1673ffffffffffffffffffffffffffffffffffffffff167f8be0079c531659141344cd1fd0a4f28419497f9722a3daafe3b4186f6b6457e060405160405180910390a380606560006101000a81548173ffffffffffffffffffffffffffffffffffffffff021916908373ffffffffffffffffffffffffffffffffffffffff16021790555050565b600033905090565b6000803090506000813b905060008114925050509056fe4f776e61626c653a206e6577206f776e657220697320746865207a65726f2061646472657373436f6e747261637420696e7374616e63652068617320616c7265616479206265656e20696e697469616c697a6564a2646970667358221220fd1cb23f233126c94282ac6f92c5ad3abb00ddf99a5ae0bad9558ef9ce2d627c64736f6c63430006080033",
  "immutableReferences": {},
  "source": "//SPDX-License-Identifier: UNLICENSED\npragma solidity ^0.6.8;\n\nimport \"@openzeppelin/contracts-ethereum-package/contracts/access/Ownable.sol\";\n\ncontract SystemParameters is OwnableUpgradeSafe {\n\n    // Minimum ankr staking amount to be abel to initialize a pool\n    uint256 public PROVIDER_MINIMUM_STAKING;\n\n    // Minimum staking amount for pool participants\n    uint256 public REQUESTER_MINIMUM_POOL_STAKING; // 0.1 ETH\n\n    // Minimum slashing amount for migration as ether\n    uint256 public SLASHINGS_FOR_MIGRATION;\n\n    // TODO: allow only multiplies of requester minimum staking amount\n\n    function initialize() external initializer {\n        PROVIDER_MINIMUM_STAKING = 100000 ether;\n        REQUESTER_MINIMUM_POOL_STAKING = 100 finney; // 0.1 ETH\n        SLASHINGS_FOR_MIGRATION = 0.1 ether;\n    }\n}",
  "sourcePath": "/Users/anilkucukrecep/Code/Personal/st/contracts/contracts/SystemParameters.sol",
  "compiler": {
    "name": "solc",
    "version": "0.6.8+commit.0bbfe453.Emscripten.clang"
  },
  "schemaVersion": "3.3.0",
  "updatedAt": "2020-10-19T01:00:35.416Z",
  "networkType": "ethereum",
  "devdoc": {
    "methods": {
      "owner()": {
        "details": "Returns the address of the current owner."
      },
      "renounceOwnership()": {
        "details": "Leaves the contract without owner. It will not be possible to call `onlyOwner` functions anymore. Can only be called by the current owner.     * NOTE: Renouncing ownership will leave the contract without an owner, thereby removing any functionality that is only available to the owner."
      },
      "transferOwnership(address)": {
        "details": "Transfers ownership of the contract to a new account (`newOwner`). Can only be called by the current owner."
      }
    }
  },
  "userdoc": {
    "methods": {}
  }
}